{
  "_format": "hh-sol-artifact-1",
  "contractName": "Bluexross",
  "sourceName": "contracts/Bluexross.sol",
  "abi": [
    {
      "inputs": [],
      "stateMutability": "nonpayable",
      "type": "constructor"
    },
    {
      "inputs": [],
      "name": "AccessControlBadConfirmation",
      "type": "error"
    },
    {
      "inputs": [
        {
          "internalType": "address",
          "name": "account",
          "type": "address"
        },
        {
          "internalType": "bytes32",
          "name": "neededRole",
          "type": "bytes32"
        }
      ],
      "name": "AccessControlUnauthorizedAccount",
      "type": "error"
    },
    {
      "inputs": [
        {
          "internalType": "address",
          "name": "owner",
          "type": "address"
        }
      ],
      "name": "OwnableInvalidOwner",
      "type": "error"
    },
    {
      "inputs": [
        {
          "internalType": "address",
          "name": "account",
          "type": "address"
        }
      ],
      "name": "OwnableUnauthorizedAccount",
      "type": "error"
    },
    {
      "anonymous": false,
      "inputs": [
        {
          "components": [
            {
              "internalType": "address",
              "name": "user",
              "type": "address"
            },
            {
              "internalType": "uint256",
              "name": "Id",
              "type": "uint256"
            },
            {
              "internalType": "string",
              "name": "phoneno",
              "type": "string"
            },
            {
              "internalType": "string",
              "name": "addres",
              "type": "string"
            },
            {
              "internalType": "bool",
              "name": "fakeissue",
              "type": "bool"
            },
            {
              "internalType": "uint256",
              "name": "time",
              "type": "uint256"
            },
            {
              "internalType": "uint256",
              "name": "timestamp",
              "type": "uint256"
            },
            {
              "internalType": "string",
              "name": "status",
              "type": "string"
            },
            {
              "internalType": "string",
              "name": "rewardstatus",
              "type": "string"
            }
          ],
          "indexed": false,
          "internalType": "struct Bluexross.Issue",
          "name": "_issue",
          "type": "tuple"
        },
        {
          "indexed": false,
          "internalType": "uint256",
          "name": "Time",
          "type": "uint256"
        },
        {
          "indexed": false,
          "internalType": "string",
          "name": "status",
          "type": "string"
        }
      ],
      "name": "IssueRised",
      "type": "event"
    },
    {
      "anonymous": false,
      "inputs": [
        {
          "indexed": true,
          "internalType": "address",
          "name": "previousOwner",
          "type": "address"
        },
        {
          "indexed": true,
          "internalType": "address",
          "name": "newOwner",
          "type": "address"
        }
      ],
      "name": "OwnershipTransferred",
      "type": "event"
    },
    {
      "anonymous": false,
      "inputs": [
        {
          "indexed": true,
          "internalType": "bytes32",
          "name": "role",
          "type": "bytes32"
        },
        {
          "indexed": true,
          "internalType": "bytes32",
          "name": "previousAdminRole",
          "type": "bytes32"
        },
        {
          "indexed": true,
          "internalType": "bytes32",
          "name": "newAdminRole",
          "type": "bytes32"
        }
      ],
      "name": "RoleAdminChanged",
      "type": "event"
    },
    {
      "anonymous": false,
      "inputs": [
        {
          "indexed": true,
          "internalType": "bytes32",
          "name": "role",
          "type": "bytes32"
        },
        {
          "indexed": true,
          "internalType": "address",
          "name": "account",
          "type": "address"
        },
        {
          "indexed": true,
          "internalType": "address",
          "name": "sender",
          "type": "address"
        }
      ],
      "name": "RoleGranted",
      "type": "event"
    },
    {
      "anonymous": false,
      "inputs": [
        {
          "indexed": true,
          "internalType": "bytes32",
          "name": "role",
          "type": "bytes32"
        },
        {
          "indexed": true,
          "internalType": "address",
          "name": "account",
          "type": "address"
        },
        {
          "indexed": true,
          "internalType": "address",
          "name": "sender",
          "type": "address"
        }
      ],
      "name": "RoleRevoked",
      "type": "event"
    },
    {
      "anonymous": false,
      "inputs": [
        {
          "indexed": false,
          "internalType": "string",
          "name": "status",
          "type": "string"
        },
        {
          "indexed": false,
          "internalType": "string",
          "name": "Rewardstatus",
          "type": "string"
        }
      ],
      "name": "Status",
      "type": "event"
    },
    {
      "anonymous": false,
      "inputs": [
        {
          "indexed": true,
          "internalType": "address",
          "name": "_user",
          "type": "address"
        }
      ],
      "name": "newuser",
      "type": "event"
    },
    {
      "inputs": [
        {
          "internalType": "uint256",
          "name": "id",
          "type": "uint256"
        }
      ],
      "name": "CheckAndReward",
      "outputs": [],
      "stateMutability": "nonpayable",
      "type": "function"
    },
    {
      "inputs": [],
      "name": "CheckverifierAccess",
      "outputs": [
        {
          "internalType": "bool",
          "name": "",
          "type": "bool"
        }
      ],
      "stateMutability": "view",
      "type": "function"
    },
    {
      "inputs": [],
      "name": "DEFAULT_ADMIN_ROLE",
      "outputs": [
        {
          "internalType": "bytes32",
          "name": "",
          "type": "bytes32"
        }
      ],
      "stateMutability": "view",
      "type": "function"
    },
    {
      "inputs": [
        {
          "internalType": "address",
          "name": "_Verifier",
          "type": "address"
        }
      ],
      "name": "GrantVerifyAccess",
      "outputs": [],
      "stateMutability": "nonpayable",
      "type": "function"
    },
    {
      "inputs": [
        {
          "internalType": "contract StakeTokens",
          "name": "_stakecoins",
          "type": "address"
        },
        {
          "internalType": "contract RewardTokens",
          "name": "_rewardcoins",
          "type": "address"
        }
      ],
      "name": "InitialiseCoins",
      "outputs": [],
      "stateMutability": "nonpayable",
      "type": "function"
    },
    {
      "inputs": [
        {
          "internalType": "string",
          "name": "rescuetype",
          "type": "string"
        },
        {
          "internalType": "string",
          "name": "phoneNo",
          "type": "string"
        },
        {
          "internalType": "string",
          "name": "addres",
          "type": "string"
        }
      ],
      "name": "IssueRescue",
      "outputs": [],
      "stateMutability": "nonpayable",
      "type": "function"
    },
    {
      "inputs": [
        {
          "internalType": "bool",
          "name": "issueDetail",
          "type": "bool"
        },
        {
          "internalType": "uint256",
          "name": "id",
          "type": "uint256"
        }
      ],
      "name": "IssueVerify",
      "outputs": [],
      "stateMutability": "nonpayable",
      "type": "function"
    },
    {
      "inputs": [],
      "name": "VERIFIER",
      "outputs": [
        {
          "internalType": "bytes32",
          "name": "",
          "type": "bytes32"
        }
      ],
      "stateMutability": "view",
      "type": "function"
    },
    {
      "inputs": [],
      "name": "checkOwner",
      "outputs": [
        {
          "internalType": "bool",
          "name": "",
          "type": "bool"
        }
      ],
      "stateMutability": "view",
      "type": "function"
    },
    {
      "inputs": [],
      "name": "getCheckAndReward",
      "outputs": [
        {
          "internalType": "uint256[]",
          "name": "",
          "type": "uint256[]"
        }
      ],
      "stateMutability": "view",
      "type": "function"
    },
    {
      "inputs": [],
      "name": "getIssues",
      "outputs": [
        {
          "components": [
            {
              "internalType": "address",
              "name": "user",
              "type": "address"
            },
            {
              "internalType": "uint256",
              "name": "Id",
              "type": "uint256"
            },
            {
              "internalType": "string",
              "name": "phoneno",
              "type": "string"
            },
            {
              "internalType": "string",
              "name": "addres",
              "type": "string"
            },
            {
              "internalType": "bool",
              "name": "fakeissue",
              "type": "bool"
            },
            {
              "internalType": "uint256",
              "name": "time",
              "type": "uint256"
            },
            {
              "internalType": "uint256",
              "name": "timestamp",
              "type": "uint256"
            },
            {
              "internalType": "string",
              "name": "status",
              "type": "string"
            },
            {
              "internalType": "string",
              "name": "rewardstatus",
              "type": "string"
            }
          ],
          "internalType": "struct Bluexross.Issue[]",
          "name": "",
          "type": "tuple[]"
        }
      ],
      "stateMutability": "view",
      "type": "function"
    },
    {
      "inputs": [
        {
          "internalType": "bytes32",
          "name": "role",
          "type": "bytes32"
        }
      ],
      "name": "getRoleAdmin",
      "outputs": [
        {
          "internalType": "bytes32",
          "name": "",
          "type": "bytes32"
        }
      ],
      "stateMutability": "view",
      "type": "function"
    },
    {
      "inputs": [],
      "name": "getrewardbalance",
      "outputs": [
        {
          "internalType": "uint256",
          "name": "",
          "type": "uint256"
        }
      ],
      "stateMutability": "view",
      "type": "function"
    },
    {
      "inputs": [],
      "name": "getstakebalance",
      "outputs": [
        {
          "internalType": "uint256",
          "name": "",
          "type": "uint256"
        }
      ],
      "stateMutability": "view",
      "type": "function"
    },
    {
      "inputs": [
        {
          "internalType": "bytes32",
          "name": "role",
          "type": "bytes32"
        },
        {
          "internalType": "address",
          "name": "account",
          "type": "address"
        }
      ],
      "name": "grantRole",
      "outputs": [],
      "stateMutability": "nonpayable",
      "type": "function"
    },
    {
      "inputs": [
        {
          "internalType": "bytes32",
          "name": "role",
          "type": "bytes32"
        },
        {
          "internalType": "address",
          "name": "account",
          "type": "address"
        }
      ],
      "name": "hasRole",
      "outputs": [
        {
          "internalType": "bool",
          "name": "",
          "type": "bool"
        }
      ],
      "stateMutability": "view",
      "type": "function"
    },
    {
      "inputs": [],
      "name": "isNewUser",
      "outputs": [
        {
          "internalType": "bool",
          "name": "",
          "type": "bool"
        }
      ],
      "stateMutability": "view",
      "type": "function"
    },
    {
      "inputs": [
        {
          "internalType": "uint256",
          "name": "",
          "type": "uint256"
        }
      ],
      "name": "issues",
      "outputs": [
        {
          "internalType": "address",
          "name": "user",
          "type": "address"
        },
        {
          "internalType": "uint256",
          "name": "Id",
          "type": "uint256"
        },
        {
          "internalType": "string",
          "name": "phoneno",
          "type": "string"
        },
        {
          "internalType": "string",
          "name": "addres",
          "type": "string"
        },
        {
          "internalType": "bool",
          "name": "fakeissue",
          "type": "bool"
        },
        {
          "internalType": "uint256",
          "name": "time",
          "type": "uint256"
        },
        {
          "internalType": "uint256",
          "name": "timestamp",
          "type": "uint256"
        },
        {
          "internalType": "string",
          "name": "status",
          "type": "string"
        },
        {
          "internalType": "string",
          "name": "rewardstatus",
          "type": "string"
        }
      ],
      "stateMutability": "view",
      "type": "function"
    },
    {
      "inputs": [],
      "name": "newUser",
      "outputs": [],
      "stateMutability": "nonpayable",
      "type": "function"
    },
    {
      "inputs": [],
      "name": "owner",
      "outputs": [
        {
          "internalType": "address",
          "name": "",
          "type": "address"
        }
      ],
      "stateMutability": "view",
      "type": "function"
    },
    {
      "inputs": [],
      "name": "renounceOwnership",
      "outputs": [],
      "stateMutability": "nonpayable",
      "type": "function"
    },
    {
      "inputs": [
        {
          "internalType": "bytes32",
          "name": "role",
          "type": "bytes32"
        },
        {
          "internalType": "address",
          "name": "callerConfirmation",
          "type": "address"
        }
      ],
      "name": "renounceRole",
      "outputs": [],
      "stateMutability": "nonpayable",
      "type": "function"
    },
    {
      "inputs": [
        {
          "internalType": "bytes32",
          "name": "role",
          "type": "bytes32"
        },
        {
          "internalType": "address",
          "name": "account",
          "type": "address"
        }
      ],
      "name": "revokeRole",
      "outputs": [],
      "stateMutability": "nonpayable",
      "type": "function"
    },
    {
      "inputs": [
        {
          "internalType": "bytes4",
          "name": "interfaceId",
          "type": "bytes4"
        }
      ],
      "name": "supportsInterface",
      "outputs": [
        {
          "internalType": "bool",
          "name": "",
          "type": "bool"
        }
      ],
      "stateMutability": "view",
      "type": "function"
    },
    {
      "inputs": [
        {
          "internalType": "address",
          "name": "newOwner",
          "type": "address"
        }
      ],
      "name": "transferOwnership",
      "outputs": [],
      "stateMutability": "nonpayable",
      "type": "function"
    }
  ],
  "bytecode": "0x608060405260056008553480156200001657600080fd5b5033600073ffffffffffffffffffffffffffffffffffffffff168173ffffffffffffffffffffffffffffffffffffffff16036200008d5760006040517f1e4fbdf70000000000000000000000000000000000000000000000000000000081526004016200008491906200028e565b60405180910390fd5b6200009e816200018560201b60201c565b50603c6003604051620000b19062000306565b908152602001604051809103902060006101000a81548160ff021916908360ff16021790555060786003604051620000e9906200036d565b908152602001604051809103902060006101000a81548160ff021916908360ff16021790555060b460036040516200012190620003d4565b908152602001604051809103902060006101000a81548160ff021916908360ff16021790555060f0600360405162000159906200043b565b908152602001604051809103902060006101000a81548160ff021916908360ff16021790555062000452565b60008060009054906101000a900473ffffffffffffffffffffffffffffffffffffffff169050816000806101000a81548173ffffffffffffffffffffffffffffffffffffffff021916908373ffffffffffffffffffffffffffffffffffffffff1602179055508173ffffffffffffffffffffffffffffffffffffffff168173ffffffffffffffffffffffffffffffffffffffff167f8be0079c531659141344cd1fd0a4f28419497f9722a3daafe3b4186f6b6457e060405160405180910390a35050565b600073ffffffffffffffffffffffffffffffffffffffff82169050919050565b6000620002768262000249565b9050919050565b620002888162000269565b82525050565b6000602082019050620002a560008301846200027d565b92915050565b600081905092915050565b7f7265736375650000000000000000000000000000000000000000000000000000600082015250565b6000620002ee600683620002ab565b9150620002fb82620002b6565b600682019050919050565b60006200031382620002df565b9150819050919050565b7f696e6a7572790000000000000000000000000000000000000000000000000000600082015250565b600062000355600683620002ab565b915062000362826200031d565b600682019050919050565b60006200037a8262000346565b9150819050919050565b7f6163636964656e74000000000000000000000000000000000000000000000000600082015250565b6000620003bc600883620002ab565b9150620003c98262000384565b600882019050919050565b6000620003e182620003ad565b9150819050919050565b7f616e696d616c6162757365000000000000000000000000000000000000000000600082015250565b600062000423600b83620002ab565b91506200043082620003eb565b600b82019050919050565b6000620004488262000414565b9150819050919050565b613e3c80620004626000396000f3fe608060405234801561001057600080fd5b50600436106101735760003560e01c8063715018a6116100de578063a217fddf11610097578063beb29f5311610071578063beb29f531461040a578063cdbce03d14610426578063d547741f14610444578063f2fde38b1461046057610173565b8063a217fddf146103b2578063a4965d36146103d0578063b3d0f186146103ee57610173565b8063715018a6146103025780637a9f245a1461030c5780637ce4f0891461032a57806386f910ae146103485780638da5cb5b1461036457806391d148541461038257610173565b80633428cd09116101305780633428cd091461026857806336568abe146102845780634434f973146102a0578063570588db146102be5780636b5b0d9c146102da5780636cebad98146102f857610173565b806301ffc9a71461017857806304e15de5146101a857806308c84e70146101e057806308df086c146101fe578063248a9ca31461021c5780632f2ff15d1461024c575b600080fd5b610192600480360381019061018d91906128ab565b61047c565b60405161019f91906128f3565b60405180910390f35b6101c260048036038101906101bd9190612944565b6104f6565b6040516101d799989796959493929190612a51565b60405180910390f35b6101e86107a1565b6040516101f59190612b13565b60405180910390f35b6102066107c5565b60405161021391906128f3565b60405180910390f35b61023660048036038101906102319190612b5a565b6107f6565b6040516102439190612b13565b60405180910390f35b61026660048036038101906102619190612bb3565b610816565b005b610282600480360381019061027d9190612bf3565b610838565b005b61029e60048036038101906102999190612bb3565b61086e565b005b6102a86108e9565b6040516102b59190612e33565b60405180910390f35b6102d860048036038101906102d39190612944565b610c89565b005b6102e2611134565b6040516102ef9190612e55565b60405180910390f35b6103006111e0565b005b61030a6113a0565b005b6103146113b4565b6040516103219190612e55565b60405180910390f35b610332611457565b60405161033f9190612f1f565b60405180910390f35b610362600480360381019061035d9190612f6d565b6114ec565b005b61036c611a14565b6040516103799190612fad565b60405180910390f35b61039c60048036038101906103979190612bb3565b611a3d565b6040516103a991906128f3565b60405180910390f35b6103ba611aa8565b6040516103c79190612b13565b60405180910390f35b6103d8611aaf565b6040516103e591906128f3565b60405180910390f35b610408600480360381019061040391906130fd565b611b03565b005b610424600480360381019061041f9190613220565b611f76565b005b61042e612004565b60405161043b91906128f3565b60405180910390f35b61045e60048036038101906104599190612bb3565b612041565b005b61047a60048036038101906104759190612bf3565b612063565b005b60007f7965db0b000000000000000000000000000000000000000000000000000000007bffffffffffffffffffffffffffffffffffffffffffffffffffffffff1916827bffffffffffffffffffffffffffffffffffffffffffffffffffffffff191614806104ef57506104ee826120e9565b5b9050919050565b6002818154811061050657600080fd5b90600052602060002090600902016000915090508060000160009054906101000a900473ffffffffffffffffffffffffffffffffffffffff16908060010154908060020180546105559061328f565b80601f01602080910402602001604051908101604052809291908181526020018280546105819061328f565b80156105ce5780601f106105a3576101008083540402835291602001916105ce565b820191906000526020600020905b8154815290600101906020018083116105b157829003601f168201915b5050505050908060030180546105e39061328f565b80601f016020809104026020016040519081016040528092919081815260200182805461060f9061328f565b801561065c5780601f106106315761010080835404028352916020019161065c565b820191906000526020600020905b81548152906001019060200180831161063f57829003601f168201915b5050505050908060040160009054906101000a900460ff16908060050154908060060154908060070180546106909061328f565b80601f01602080910402602001604051908101604052809291908181526020018280546106bc9061328f565b80156107095780601f106106de57610100808354040283529160200191610709565b820191906000526020600020905b8154815290600101906020018083116106ec57829003601f168201915b50505050509080600801805461071e9061328f565b80601f016020809104026020016040519081016040528092919081815260200182805461074a9061328f565b80156107975780601f1061076c57610100808354040283529160200191610797565b820191906000526020600020905b81548152906001019060200180831161077a57829003601f168201915b5050505050905089565b7fa48c898f5241be426b79d4b5a3c206f9c9a06576e1b72c338c3ec849771d568681565b60006107f17fa48c898f5241be426b79d4b5a3c206f9c9a06576e1b72c338c3ec849771d568633611a3d565b905090565b600060016000838152602001908152602001600020600101549050919050565b61081f826107f6565b61082881612153565b6108328383612167565b50505050565b610840612258565b61086a7fa48c898f5241be426b79d4b5a3c206f9c9a06576e1b72c338c3ec849771d568682612167565b5050565b6108766122df565b73ffffffffffffffffffffffffffffffffffffffff168173ffffffffffffffffffffffffffffffffffffffff16146108da576040517f6697b23200000000000000000000000000000000000000000000000000000000815260040160405180910390fd5b6108e482826122e7565b505050565b60606109157fa48c898f5241be426b79d4b5a3c206f9c9a06576e1b72c338c3ec849771d568633611a3d565b610954576040517f08c379a000000000000000000000000000000000000000000000000000000000815260040161094b9061330c565b60405180910390fd5b6002805480602002602001604051908101604052809291908181526020016000905b82821015610c805783829060005260206000209060090201604051806101200160405290816000820160009054906101000a900473ffffffffffffffffffffffffffffffffffffffff1673ffffffffffffffffffffffffffffffffffffffff1673ffffffffffffffffffffffffffffffffffffffff16815260200160018201548152602001600282018054610a0a9061328f565b80601f0160208091040260200160405190810160405280929190818152602001828054610a369061328f565b8015610a835780601f10610a5857610100808354040283529160200191610a83565b820191906000526020600020905b815481529060010190602001808311610a6657829003601f168201915b50505050508152602001600382018054610a9c9061328f565b80601f0160208091040260200160405190810160405280929190818152602001828054610ac89061328f565b8015610b155780601f10610aea57610100808354040283529160200191610b15565b820191906000526020600020905b815481529060010190602001808311610af857829003601f168201915b505050505081526020016004820160009054906101000a900460ff161515151581526020016005820154815260200160068201548152602001600782018054610b5d9061328f565b80601f0160208091040260200160405190810160405280929190818152602001828054610b899061328f565b8015610bd65780601f10610bab57610100808354040283529160200191610bd6565b820191906000526020600020905b815481529060010190602001808311610bb957829003601f168201915b50505050508152602001600882018054610bef9061328f565b80601f0160208091040260200160405190810160405280929190818152602001828054610c1b9061328f565b8015610c685780601f10610c3d57610100808354040283529160200191610c68565b820191906000526020600020905b815481529060010190602001808311610c4b57829003601f168201915b50505050508152505081526020019060010190610976565b50505050905090565b600280549050811115610cd1576040517f08c379a0000000000000000000000000000000000000000000000000000000008152600401610cc890613378565b60405180910390fd5b3373ffffffffffffffffffffffffffffffffffffffff166002600183610cf791906133c7565b81548110610d0857610d076133fb565b5b906000526020600020906009020160000160009054906101000a900473ffffffffffffffffffffffffffffffffffffffff1673ffffffffffffffffffffffffffffffffffffffff1614610d90576040517f08c379a0000000000000000000000000000000000000000000000000000000008152600401610d879061349c565b60405180910390fd5b6002600182610d9f91906133c7565b81548110610db057610daf6133fb565b5b9060005260206000209060090201600501546002600183610dd191906133c7565b81548110610de257610de16133fb565b5b906000526020600020906009020160060154610dfe91906134bc565b42111561102357610e436040518060400160405280600681526020017f48495454545400000000000000000000000000000000000000000000000000008152506123da565b6040518060400160405280600a81526020017f756e617474656e646564000000000000000000000000000000000000000000008152506002600183610e8891906133c7565b81548110610e9957610e986133fb565b5b90600052602060002090600902016007019081610eb6919061369c565b50610f116002600183610ec991906133c7565b81548110610eda57610ed96133fb565b5b906000526020600020906009020160000160009054906101000a900473ffffffffffffffffffffffffffffffffffffffff16612473565b6040518060400160405280601281526020017f526577617264207375636365737366756c6c00000000000000000000000000008152506002600183610f5691906133c7565b81548110610f6757610f666133fb565b5b90600052602060002090600902016008019081610f84919061369c565b507f69633d2671bb8c2b303d5a46d471ce695817434f9bb15943539c4016831e47826002600183610fb591906133c7565b81548110610fc657610fc56133fb565b5b90600052602060002090600902016007016002600184610fe691906133c7565b81548110610ff757610ff66133fb565b5b90600052602060002090600902016008016040516110169291906137f2565b60405180910390a1611131565b6040518060400160405280600781526020017f70656e64696e6700000000000000000000000000000000000000000000000000815250600260018361106891906133c7565b81548110611079576110786133fb565b5b90600052602060002090600902016008019081611096919061369c565b507f69633d2671bb8c2b303d5a46d471ce695817434f9bb15943539c4016831e478260026001836110c791906133c7565b815481106110d8576110d76133fb565b5b906000526020600020906009020160070160026001846110f891906133c7565b81548110611109576111086133fb565b5b90600052602060002090600902016008016040516111289291906137f2565b60405180910390a15b50565b600061113f336125a8565b600660009054906101000a900473ffffffffffffffffffffffffffffffffffffffff1673ffffffffffffffffffffffffffffffffffffffff166370a08231336040518263ffffffff1660e01b815260040161119a9190612fad565b602060405180830381865afa1580156111b7573d6000803e3d6000fd5b505050506040513d601f19601f820116820180604052508101906111db919061383e565b905090565b60001515600460003373ffffffffffffffffffffffffffffffffffffffff1673ffffffffffffffffffffffffffffffffffffffff16815260200190815260200160002060009054906101000a900460ff16151514611273576040517f08c379a000000000000000000000000000000000000000000000000000000000815260040161126a906138b7565b60405180910390fd5b6001600460003373ffffffffffffffffffffffffffffffffffffffff1673ffffffffffffffffffffffffffffffffffffffff16815260200190815260200160002060006101000a81548160ff021916908315150217905550600660009054906101000a900473ffffffffffffffffffffffffffffffffffffffff1673ffffffffffffffffffffffffffffffffffffffff166340c10f193360056040518363ffffffff1660e01b8152600401611329929190613912565b600060405180830381600087803b15801561134357600080fd5b505af1158015611357573d6000803e3d6000fd5b505050503373ffffffffffffffffffffffffffffffffffffffff167fb7ef386d3c6dc080c6176a3903ca6fcdd0add9272221b4866b01a6514564b09960405160405180910390a2565b6113a8612258565b6113b26000612641565b565b6000600760009054906101000a900473ffffffffffffffffffffffffffffffffffffffff1673ffffffffffffffffffffffffffffffffffffffff166370a08231336040518263ffffffff1660e01b81526004016114119190612fad565b602060405180830381865afa15801561142e573d6000803e3d6000fd5b505050506040513d601f19601f82011682018060405250810190611452919061383e565b905090565b6060600560003373ffffffffffffffffffffffffffffffffffffffff1673ffffffffffffffffffffffffffffffffffffffff1681526020019081526020016000208054806020026020016040519081016040528092919081815260200182805480156114e257602002820191906000526020600020905b8154815260200190600101908083116114ce575b5050505050905090565b6115167fa48c898f5241be426b79d4b5a3c206f9c9a06576e1b72c338c3ec849771d568633611a3d565b611555576040517f08c379a000000000000000000000000000000000000000000000000000000000815260040161154c9061330c565b60405180910390fd5b60028054905081111561159d576040517f08c379a000000000000000000000000000000000000000000000000000000000815260040161159490613378565b60405180910390fd5b6040518060400160405280600781526020017f70656e64696e67000000000000000000000000000000000000000000000000008152508051906020012060026001836115e991906133c7565b815481106115fa576115f96133fb565b5b906000526020600020906009020160070160405161161891906139de565b604051809103902014611660576040517f08c379a000000000000000000000000000000000000000000000000000000000815260040161165790613a41565b60405180910390fd5b81600260018361167091906133c7565b81548110611681576116806133fb565b5b906000526020600020906009020160040160006101000a81548160ff0219169083151502179055508161188e576040518060400160405280600981526020017f636f6d706c65746564000000000000000000000000000000000000000000000081525060026001836116f391906133c7565b81548110611704576117036133fb565b5b90600052602060002090600902016007019081611721919061369c565b5061177c600260018361173491906133c7565b81548110611745576117446133fb565b5b906000526020600020906009020160000160009054906101000a900473ffffffffffffffffffffffffffffffffffffffff16612473565b6040518060400160405280601281526020017f526577617264207375636365737366756c6c000000000000000000000000000081525060026001836117c191906133c7565b815481106117d2576117d16133fb565b5b906000526020600020906009020160080190816117ef919061369c565b507f69633d2671bb8c2b303d5a46d471ce695817434f9bb15943539c4016831e4782600260018361182091906133c7565b81548110611831576118306133fb565b5b9060005260206000209060090201600701600260018461185191906133c7565b81548110611862576118616133fb565b5b90600052602060002090600902016008016040516118819291906137f2565b60405180910390a1611a10565b6040518060400160405280600a81526020017f66616b652069737375650000000000000000000000000000000000000000000081525060026001836118d391906133c7565b815481106118e4576118e36133fb565b5b90600052602060002090600902016007019081611901919061369c565b506040518060400160405280601781526020017f7374616b6520636f696e20697320676f6e65203a5d5d20000000000000000000815250600260018361194791906133c7565b81548110611958576119576133fb565b5b90600052602060002090600902016008019081611975919061369c565b507f69633d2671bb8c2b303d5a46d471ce695817434f9bb15943539c4016831e478260026001836119a691906133c7565b815481106119b7576119b66133fb565b5b906000526020600020906009020160070160026001846119d791906133c7565b815481106119e8576119e76133fb565b5b9060005260206000209060090201600801604051611a079291906137f2565b60405180910390a15b5050565b60008060009054906101000a900473ffffffffffffffffffffffffffffffffffffffff16905090565b60006001600084815260200190815260200160002060000160008373ffffffffffffffffffffffffffffffffffffffff1673ffffffffffffffffffffffffffffffffffffffff16815260200190815260200160002060009054906101000a900460ff16905092915050565b6000801b81565b6000600460003373ffffffffffffffffffffffffffffffffffffffff1673ffffffffffffffffffffffffffffffffffffffff16815260200190815260200160002060009054906101000a900460ff16905090565b611b0c336125a8565b611b15306125a8565b600660009054906101000a900473ffffffffffffffffffffffffffffffffffffffff1673ffffffffffffffffffffffffffffffffffffffff1663095ea7b33060056040518363ffffffff1660e01b8152600401611b73929190613912565b6020604051808303816000875af1158015611b92573d6000803e3d6000fd5b505050506040513d601f19601f82011682018060405250810190611bb69190613a76565b50600660009054906101000a900473ffffffffffffffffffffffffffffffffffffffff1673ffffffffffffffffffffffffffffffffffffffff166323b872dd33306008546040518463ffffffff1660e01b8152600401611c1893929190613aa3565b6020604051808303816000875af1158015611c37573d6000803e3d6000fd5b505050506040513d601f19601f82011682018060405250810190611c5b9190613a76565b611c9a576040517f08c379a0000000000000000000000000000000000000000000000000000000008152600401611c9190613b4c565b60405180910390fd5b6000600384604051611cac9190613ba8565b908152602001604051809103902060009054906101000a900460ff1660ff169050611cdb600280549050612705565b60006040518061012001604052803373ffffffffffffffffffffffffffffffffffffffff1681526020016001600280549050611d1791906134bc565b81526020018581526020018481526020016000151581526020018381526020014281526020016040518060400160405280600781526020017f70656e64696e670000000000000000000000000000000000000000000000000081525081526020016040518060400160405280600781526020017f70656e64696e67000000000000000000000000000000000000000000000000008152508152509050600560003373ffffffffffffffffffffffffffffffffffffffff1673ffffffffffffffffffffffffffffffffffffffff1681526020019081526020016000206001600280549050611e0491906134bc565b9080600181540180825580915050600190039060005260206000200160009091909190915055600281908060018154018082558091505060019003906000526020600020906009020160009091909190915060008201518160000160006101000a81548173ffffffffffffffffffffffffffffffffffffffff021916908373ffffffffffffffffffffffffffffffffffffffff160217905550602082015181600101556040820151816002019081611ebc919061369c565b506060820151816003019081611ed2919061369c565b5060808201518160040160006101000a81548160ff02191690831515021790555060a0820151816005015560c0820151816006015560e0820151816007019081611f1c919061369c565b50610100820151816008019081611f33919061369c565b5050507fd7581ce2bb3a8c58c90eb3ec4c2b35e69644c0930b100296d4b065907c844fbc8183604051611f67929190613ce5565b60405180910390a15050505050565b611f7e612258565b81600660006101000a81548173ffffffffffffffffffffffffffffffffffffffff021916908373ffffffffffffffffffffffffffffffffffffffff16021790555080600760006101000a81548173ffffffffffffffffffffffffffffffffffffffff021916908373ffffffffffffffffffffffffffffffffffffffff1602179055505050565b600061200e611a14565b73ffffffffffffffffffffffffffffffffffffffff163373ffffffffffffffffffffffffffffffffffffffff1614905090565b61204a826107f6565b61205381612153565b61205d83836122e7565b50505050565b61206b612258565b600073ffffffffffffffffffffffffffffffffffffffff168173ffffffffffffffffffffffffffffffffffffffff16036120dd5760006040517f1e4fbdf70000000000000000000000000000000000000000000000000000000081526004016120d49190612fad565b60405180910390fd5b6120e681612641565b50565b60007f01ffc9a7000000000000000000000000000000000000000000000000000000007bffffffffffffffffffffffffffffffffffffffffffffffffffffffff1916827bffffffffffffffffffffffffffffffffffffffffffffffffffffffff1916149050919050565b6121648161215f6122df565b61279e565b50565b60006121738383611a3d565b61224d57600180600085815260200190815260200160002060000160008473ffffffffffffffffffffffffffffffffffffffff1673ffffffffffffffffffffffffffffffffffffffff16815260200190815260200160002060006101000a81548160ff0219169083151502179055506121ea6122df565b73ffffffffffffffffffffffffffffffffffffffff168273ffffffffffffffffffffffffffffffffffffffff16847f2f8788117e7eff1d82e926ec794901d17c78024a50270940304540a733656f0d60405160405180910390a460019050612252565b600090505b92915050565b6122606122df565b73ffffffffffffffffffffffffffffffffffffffff1661227e611a14565b73ffffffffffffffffffffffffffffffffffffffff16146122dd576122a16122df565b6040517f118cdaa70000000000000000000000000000000000000000000000000000000081526004016122d49190612fad565b60405180910390fd5b565b600033905090565b60006122f38383611a3d565b156123cf5760006001600085815260200190815260200160002060000160008473ffffffffffffffffffffffffffffffffffffffff1673ffffffffffffffffffffffffffffffffffffffff16815260200190815260200160002060006101000a81548160ff02191690831515021790555061236c6122df565b73ffffffffffffffffffffffffffffffffffffffff168273ffffffffffffffffffffffffffffffffffffffff16847ff6391f5c32d9c69d2a47ea670b442974b53935d1edc7fd64eb21e047a839171b60405160405180910390a4600190506123d4565b600090505b92915050565b612470816040516024016123ee9190613d28565b6040516020818303038152906040527f41304fac000000000000000000000000000000000000000000000000000000007bffffffffffffffffffffffffffffffffffffffffffffffffffffffff19166020820180517bffffffffffffffffffffffffffffffffffffffffffffffffffffffff83818316178352505050506127ef565b50565b600660009054906101000a900473ffffffffffffffffffffffffffffffffffffffff1673ffffffffffffffffffffffffffffffffffffffff1663a9059cbb8260056040518363ffffffff1660e01b81526004016124d1929190613912565b6020604051808303816000875af11580156124f0573d6000803e3d6000fd5b505050506040513d601f19601f820116820180604052508101906125149190613a76565b50600760009054906101000a900473ffffffffffffffffffffffffffffffffffffffff1673ffffffffffffffffffffffffffffffffffffffff166340c10f198260026040518363ffffffff1660e01b8152600401612573929190613d85565b600060405180830381600087803b15801561258d57600080fd5b505af11580156125a1573d6000803e3d6000fd5b5050505050565b61263e816040516024016125bc9190612fad565b6040516020818303038152906040527f2c2ecbc2000000000000000000000000000000000000000000000000000000007bffffffffffffffffffffffffffffffffffffffffffffffffffffffff19166020820180517bffffffffffffffffffffffffffffffffffffffffffffffffffffffff83818316178352505050506127ef565b50565b60008060009054906101000a900473ffffffffffffffffffffffffffffffffffffffff169050816000806101000a81548173ffffffffffffffffffffffffffffffffffffffff021916908373ffffffffffffffffffffffffffffffffffffffff1602179055508173ffffffffffffffffffffffffffffffffffffffff168173ffffffffffffffffffffffffffffffffffffffff167f8be0079c531659141344cd1fd0a4f28419497f9722a3daafe3b4186f6b6457e060405160405180910390a35050565b61279b816040516024016127199190612e55565b6040516020818303038152906040527ff82c50f1000000000000000000000000000000000000000000000000000000007bffffffffffffffffffffffffffffffffffffffffffffffffffffffff19166020820180517bffffffffffffffffffffffffffffffffffffffffffffffffffffffff83818316178352505050506127ef565b50565b6127a88282611a3d565b6127eb5780826040517fe2517d3f0000000000000000000000000000000000000000000000000000000081526004016127e2929190613dae565b60405180910390fd5b5050565b612806816127fe61280961282a565b63ffffffff16565b50565b60006a636f6e736f6c652e6c6f679050600080835160208501845afa505050565b612835819050919050565b61283d613dd7565b565b6000604051905090565b600080fd5b600080fd5b60007fffffffff0000000000000000000000000000000000000000000000000000000082169050919050565b61288881612853565b811461289357600080fd5b50565b6000813590506128a58161287f565b92915050565b6000602082840312156128c1576128c0612849565b5b60006128cf84828501612896565b91505092915050565b60008115159050919050565b6128ed816128d8565b82525050565b600060208201905061290860008301846128e4565b92915050565b6000819050919050565b6129218161290e565b811461292c57600080fd5b50565b60008135905061293e81612918565b92915050565b60006020828403121561295a57612959612849565b5b60006129688482850161292f565b91505092915050565b600073ffffffffffffffffffffffffffffffffffffffff82169050919050565b600061299c82612971565b9050919050565b6129ac81612991565b82525050565b6129bb8161290e565b82525050565b600081519050919050565b600082825260208201905092915050565b60005b838110156129fb5780820151818401526020810190506129e0565b60008484015250505050565b6000601f19601f8301169050919050565b6000612a23826129c1565b612a2d81856129cc565b9350612a3d8185602086016129dd565b612a4681612a07565b840191505092915050565b600061012082019050612a67600083018c6129a3565b612a74602083018b6129b2565b8181036040830152612a86818a612a18565b90508181036060830152612a9a8189612a18565b9050612aa960808301886128e4565b612ab660a08301876129b2565b612ac360c08301866129b2565b81810360e0830152612ad58185612a18565b9050818103610100830152612aea8184612a18565b90509a9950505050505050505050565b6000819050919050565b612b0d81612afa565b82525050565b6000602082019050612b286000830184612b04565b92915050565b612b3781612afa565b8114612b4257600080fd5b50565b600081359050612b5481612b2e565b92915050565b600060208284031215612b7057612b6f612849565b5b6000612b7e84828501612b45565b91505092915050565b612b9081612991565b8114612b9b57600080fd5b50565b600081359050612bad81612b87565b92915050565b60008060408385031215612bca57612bc9612849565b5b6000612bd885828601612b45565b9250506020612be985828601612b9e565b9150509250929050565b600060208284031215612c0957612c08612849565b5b6000612c1784828501612b9e565b91505092915050565b600081519050919050565b600082825260208201905092915050565b6000819050602082019050919050565b612c5581612991565b82525050565b612c648161290e565b82525050565b600082825260208201905092915050565b6000612c86826129c1565b612c908185612c6a565b9350612ca08185602086016129dd565b612ca981612a07565b840191505092915050565b612cbd816128d8565b82525050565b600061012083016000830151612cdc6000860182612c4c565b506020830151612cef6020860182612c5b565b5060408301518482036040860152612d078282612c7b565b91505060608301518482036060860152612d218282612c7b565b9150506080830151612d366080860182612cb4565b5060a0830151612d4960a0860182612c5b565b5060c0830151612d5c60c0860182612c5b565b5060e083015184820360e0860152612d748282612c7b565b915050610100830151848203610100860152612d908282612c7b565b9150508091505092915050565b6000612da98383612cc3565b905092915050565b6000602082019050919050565b6000612dc982612c20565b612dd38185612c2b565b935083602082028501612de585612c3c565b8060005b85811015612e215784840389528151612e028582612d9d565b9450612e0d83612db1565b925060208a01995050600181019050612de9565b50829750879550505050505092915050565b60006020820190508181036000830152612e4d8184612dbe565b905092915050565b6000602082019050612e6a60008301846129b2565b92915050565b600081519050919050565b600082825260208201905092915050565b6000819050602082019050919050565b6000612ea88383612c5b565b60208301905092915050565b6000602082019050919050565b6000612ecc82612e70565b612ed68185612e7b565b9350612ee183612e8c565b8060005b83811015612f12578151612ef98882612e9c565b9750612f0483612eb4565b925050600181019050612ee5565b5085935050505092915050565b60006020820190508181036000830152612f398184612ec1565b905092915050565b612f4a816128d8565b8114612f5557600080fd5b50565b600081359050612f6781612f41565b92915050565b60008060408385031215612f8457612f83612849565b5b6000612f9285828601612f58565b9250506020612fa38582860161292f565b9150509250929050565b6000602082019050612fc260008301846129a3565b92915050565b600080fd5b600080fd5b7f4e487b7100000000000000000000000000000000000000000000000000000000600052604160045260246000fd5b61300a82612a07565b810181811067ffffffffffffffff8211171561302957613028612fd2565b5b80604052505050565b600061303c61283f565b90506130488282613001565b919050565b600067ffffffffffffffff82111561306857613067612fd2565b5b61307182612a07565b9050602081019050919050565b82818337600083830152505050565b60006130a061309b8461304d565b613032565b9050828152602081018484840111156130bc576130bb612fcd565b5b6130c784828561307e565b509392505050565b600082601f8301126130e4576130e3612fc8565b5b81356130f484826020860161308d565b91505092915050565b60008060006060848603121561311657613115612849565b5b600084013567ffffffffffffffff8111156131345761313361284e565b5b613140868287016130cf565b935050602084013567ffffffffffffffff8111156131615761316061284e565b5b61316d868287016130cf565b925050604084013567ffffffffffffffff81111561318e5761318d61284e565b5b61319a868287016130cf565b9150509250925092565b60006131af82612991565b9050919050565b6131bf816131a4565b81146131ca57600080fd5b50565b6000813590506131dc816131b6565b92915050565b60006131ed82612991565b9050919050565b6131fd816131e2565b811461320857600080fd5b50565b60008135905061321a816131f4565b92915050565b6000806040838503121561323757613236612849565b5b6000613245858286016131cd565b92505060206132568582860161320b565b9150509250929050565b7f4e487b7100000000000000000000000000000000000000000000000000000000600052602260045260246000fd5b600060028204905060018216806132a757607f821691505b6020821081036132ba576132b9613260565b5b50919050565b7f43616c6c6572206973206e6f7420612056455249464945520000000000000000600082015250565b60006132f66018836129cc565b9150613301826132c0565b602082019050919050565b60006020820190508181036000830152613325816132e9565b9050919050565b7f496e76616c696420697373756520494400000000000000000000000000000000600082015250565b60006133626010836129cc565b915061336d8261332c565b602082019050919050565b6000602082019050818103600083015261339181613355565b9050919050565b7f4e487b7100000000000000000000000000000000000000000000000000000000600052601160045260246000fd5b60006133d28261290e565b91506133dd8361290e565b92508282039050818111156133f5576133f4613398565b5b92915050565b7f4e487b7100000000000000000000000000000000000000000000000000000000600052603260045260246000fd5b7f596f7520617265206e6f7420746865206f776e6572206f66207468652069737360008201527f7565210000000000000000000000000000000000000000000000000000000000602082015250565b60006134866023836129cc565b91506134918261342a565b604082019050919050565b600060208201905081810360008301526134b581613479565b9050919050565b60006134c78261290e565b91506134d28361290e565b92508282019050808211156134ea576134e9613398565b5b92915050565b60008190508160005260206000209050919050565b60006020601f8301049050919050565b600082821b905092915050565b6000600883026135527fffffffffffffffffffffffffffffffffffffffffffffffffffffffffffffffff82613515565b61355c8683613515565b95508019841693508086168417925050509392505050565b6000819050919050565b600061359961359461358f8461290e565b613574565b61290e565b9050919050565b6000819050919050565b6135b38361357e565b6135c76135bf826135a0565b848454613522565b825550505050565b600090565b6135dc6135cf565b6135e78184846135aa565b505050565b5b8181101561360b576136006000826135d4565b6001810190506135ed565b5050565b601f82111561365057613621816134f0565b61362a84613505565b81016020851015613639578190505b61364d61364585613505565b8301826135ec565b50505b505050565b600082821c905092915050565b600061367360001984600802613655565b1980831691505092915050565b600061368c8383613662565b9150826002028217905092915050565b6136a5826129c1565b67ffffffffffffffff8111156136be576136bd612fd2565b5b6136c8825461328f565b6136d382828561360f565b600060209050601f83116001811461370657600084156136f4578287015190505b6136fe8582613680565b865550613766565b601f198416613714866134f0565b60005b8281101561373c57848901518255600182019150602085019450602081019050613717565b868310156137595784890151613755601f891682613662565b8355505b6001600288020188555050505b505050505050565b6000815461377b8161328f565b61378581866129cc565b945060018216600081146137a057600181146137b6576137e9565b60ff1983168652811515602002860193506137e9565b6137bf856134f0565b60005b838110156137e1578154818901526001820191506020810190506137c2565b808801955050505b50505092915050565b6000604082019050818103600083015261380c818561376e565b90508181036020830152613820818461376e565b90509392505050565b60008151905061383881612918565b92915050565b60006020828403121561385457613853612849565b5b600061386284828501613829565b91505092915050565b7f596f752061726520616c726561647920612075736572203b5b5b000000000000600082015250565b60006138a1601a836129cc565b91506138ac8261386b565b602082019050919050565b600060208201905081810360008301526138d081613894565b9050919050565b6000819050919050565b60006138fc6138f76138f2846138d7565b613574565b61290e565b9050919050565b61390c816138e1565b82525050565b600060408201905061392760008301856129a3565b6139346020830184613903565b9392505050565b600081905092915050565b60008190508160005260206000209050919050565b600081546139688161328f565b613972818661393b565b9450600182166000811461398d57600181146139a2576139d5565b60ff19831686528115158202860193506139d5565b6139ab85613946565b60005b838110156139cd578154818901526001820191506020810190506139ae565b838801955050505b50505092915050565b60006139ea828461395b565b915081905092915050565b7f497373756520616c726561647920766572696669656400000000000000000000600082015250565b6000613a2b6016836129cc565b9150613a36826139f5565b602082019050919050565b60006020820190508181036000830152613a5a81613a1e565b9050919050565b600081519050613a7081612f41565b92915050565b600060208284031215613a8c57613a8b612849565b5b6000613a9a84828501613a61565b91505092915050565b6000606082019050613ab860008301866129a3565b613ac560208301856129a3565b613ad260408301846129b2565b949350505050565b7f594f5520444f4e2754204841564520454e4f554748205354414b4520434f494e60008201527f5300000000000000000000000000000000000000000000000000000000000000602082015250565b6000613b366021836129cc565b9150613b4182613ada565b604082019050919050565b60006020820190508181036000830152613b6581613b29565b9050919050565b600081905092915050565b6000613b82826129c1565b613b8c8185613b6c565b9350613b9c8185602086016129dd565b80840191505092915050565b6000613bb48284613b77565b915081905092915050565b600061012083016000830151613bd86000860182612c4c565b506020830151613beb6020860182612c5b565b5060408301518482036040860152613c038282612c7b565b91505060608301518482036060860152613c1d8282612c7b565b9150506080830151613c326080860182612cb4565b5060a0830151613c4560a0860182612c5b565b5060c0830151613c5860c0860182612c5b565b5060e083015184820360e0860152613c708282612c7b565b915050610100830151848203610100860152613c8c8282612c7b565b9150508091505092915050565b7f70656e64696e6700000000000000000000000000000000000000000000000000600082015250565b6000613ccf6007836129cc565b9150613cda82613c99565b602082019050919050565b60006060820190508181036000830152613cff8185613bbf565b9050613d0e60208301846129b2565b8181036040830152613d1f81613cc2565b90509392505050565b60006020820190508181036000830152613d428184612a18565b905092915050565b6000819050919050565b6000613d6f613d6a613d6584613d4a565b613574565b61290e565b9050919050565b613d7f81613d54565b82525050565b6000604082019050613d9a60008301856129a3565b613da76020830184613d76565b9392505050565b6000604082019050613dc360008301856129a3565b613dd06020830184612b04565b9392505050565b7f4e487b7100000000000000000000000000000000000000000000000000000000600052605160045260246000fdfea2646970667358221220025c87268e567ecdc43fa9442de63231732f54763c56544f250d9ef84e82557564736f6c63430008180033",
  "linkReferences": {},
  "deployedLinkReferences": {}
}