{
  "_format": "hh-sol-artifact-1",
  "contractName": "Bluexross",
  "sourceName": "contracts/Bluexross.sol",
  "abi": [
    {
      "inputs": [],
      "stateMutability": "nonpayable",
      "type": "constructor"
    },
    {
      "inputs": [],
      "name": "AccessControlBadConfirmation",
      "type": "error"
    },
    {
      "inputs": [
        {
          "internalType": "address",
          "name": "account",
          "type": "address"
        },
        {
          "internalType": "bytes32",
          "name": "neededRole",
          "type": "bytes32"
        }
      ],
      "name": "AccessControlUnauthorizedAccount",
      "type": "error"
    },
    {
      "inputs": [
        {
          "internalType": "address",
          "name": "owner",
          "type": "address"
        }
      ],
      "name": "OwnableInvalidOwner",
      "type": "error"
    },
    {
      "inputs": [
        {
          "internalType": "address",
          "name": "account",
          "type": "address"
        }
      ],
      "name": "OwnableUnauthorizedAccount",
      "type": "error"
    },
    {
      "anonymous": false,
      "inputs": [
        {
          "components": [
            {
              "internalType": "address",
              "name": "user",
              "type": "address"
            },
            {
              "internalType": "uint256",
              "name": "Id",
              "type": "uint256"
            },
            {
              "internalType": "uint256",
              "name": "phoneno",
              "type": "uint256"
            },
            {
              "internalType": "string",
              "name": "addres",
              "type": "string"
            },
            {
              "internalType": "bool",
              "name": "fakeissue",
              "type": "bool"
            },
            {
              "internalType": "uint256",
              "name": "time",
              "type": "uint256"
            },
            {
              "internalType": "uint256",
              "name": "timestamp",
              "type": "uint256"
            },
            {
              "internalType": "enum Bluexross.IssueStatus",
              "name": "status",
              "type": "uint8"
            },
            {
              "internalType": "enum Bluexross.RewardStatus",
              "name": "rewardstatus",
              "type": "uint8"
            }
          ],
          "indexed": false,
          "internalType": "struct Bluexross.Issue",
          "name": "_issue",
          "type": "tuple"
        }
      ],
      "name": "IssueRose",
      "type": "event"
    },
    {
      "anonymous": false,
      "inputs": [
        {
          "indexed": true,
          "internalType": "address",
          "name": "previousOwner",
          "type": "address"
        },
        {
          "indexed": true,
          "internalType": "address",
          "name": "newOwner",
          "type": "address"
        }
      ],
      "name": "OwnershipTransferred",
      "type": "event"
    },
    {
      "anonymous": false,
      "inputs": [
        {
          "indexed": true,
          "internalType": "bytes32",
          "name": "role",
          "type": "bytes32"
        },
        {
          "indexed": true,
          "internalType": "bytes32",
          "name": "previousAdminRole",
          "type": "bytes32"
        },
        {
          "indexed": true,
          "internalType": "bytes32",
          "name": "newAdminRole",
          "type": "bytes32"
        }
      ],
      "name": "RoleAdminChanged",
      "type": "event"
    },
    {
      "anonymous": false,
      "inputs": [
        {
          "indexed": true,
          "internalType": "bytes32",
          "name": "role",
          "type": "bytes32"
        },
        {
          "indexed": true,
          "internalType": "address",
          "name": "account",
          "type": "address"
        },
        {
          "indexed": true,
          "internalType": "address",
          "name": "sender",
          "type": "address"
        }
      ],
      "name": "RoleGranted",
      "type": "event"
    },
    {
      "anonymous": false,
      "inputs": [
        {
          "indexed": true,
          "internalType": "bytes32",
          "name": "role",
          "type": "bytes32"
        },
        {
          "indexed": true,
          "internalType": "address",
          "name": "account",
          "type": "address"
        },
        {
          "indexed": true,
          "internalType": "address",
          "name": "sender",
          "type": "address"
        }
      ],
      "name": "RoleRevoked",
      "type": "event"
    },
    {
      "anonymous": false,
      "inputs": [
        {
          "components": [
            {
              "internalType": "address",
              "name": "user",
              "type": "address"
            },
            {
              "internalType": "uint256",
              "name": "Id",
              "type": "uint256"
            },
            {
              "internalType": "uint256",
              "name": "phoneno",
              "type": "uint256"
            },
            {
              "internalType": "string",
              "name": "addres",
              "type": "string"
            },
            {
              "internalType": "bool",
              "name": "fakeissue",
              "type": "bool"
            },
            {
              "internalType": "uint256",
              "name": "time",
              "type": "uint256"
            },
            {
              "internalType": "uint256",
              "name": "timestamp",
              "type": "uint256"
            },
            {
              "internalType": "enum Bluexross.IssueStatus",
              "name": "status",
              "type": "uint8"
            },
            {
              "internalType": "enum Bluexross.RewardStatus",
              "name": "rewardstatus",
              "type": "uint8"
            }
          ],
          "indexed": false,
          "internalType": "struct Bluexross.Issue",
          "name": "_issue",
          "type": "tuple"
        },
        {
          "indexed": false,
          "internalType": "enum Bluexross.IssueStatus",
          "name": "status",
          "type": "uint8"
        },
        {
          "indexed": false,
          "internalType": "enum Bluexross.RewardStatus",
          "name": "rewardstatus",
          "type": "uint8"
        }
      ],
      "name": "Status",
      "type": "event"
    },
    {
      "anonymous": false,
      "inputs": [
        {
          "indexed": true,
          "internalType": "address",
          "name": "_user",
          "type": "address"
        }
      ],
      "name": "newuser",
      "type": "event"
    },
    {
      "inputs": [
        {
          "internalType": "uint256",
          "name": "id",
          "type": "uint256"
        }
      ],
      "name": "CheckAndReward",
      "outputs": [],
      "stateMutability": "nonpayable",
      "type": "function"
    },
    {
      "inputs": [],
      "name": "CheckverifierAccess",
      "outputs": [
        {
          "internalType": "bool",
          "name": "",
          "type": "bool"
        }
      ],
      "stateMutability": "view",
      "type": "function"
    },
    {
      "inputs": [],
      "name": "DEFAULT_ADMIN_ROLE",
      "outputs": [
        {
          "internalType": "bytes32",
          "name": "",
          "type": "bytes32"
        }
      ],
      "stateMutability": "view",
      "type": "function"
    },
    {
      "inputs": [
        {
          "internalType": "address",
          "name": "_Verifier",
          "type": "address"
        }
      ],
      "name": "GrantVerifyAccess",
      "outputs": [],
      "stateMutability": "nonpayable",
      "type": "function"
    },
    {
      "inputs": [
        {
          "internalType": "contract StakeTokens",
          "name": "_stakecoins",
          "type": "address"
        },
        {
          "internalType": "contract RewardTokens",
          "name": "_rewardcoins",
          "type": "address"
        }
      ],
      "name": "InitialiseCoins",
      "outputs": [],
      "stateMutability": "nonpayable",
      "type": "function"
    },
    {
      "inputs": [
        {
          "internalType": "string",
          "name": "rescuetype",
          "type": "string"
        },
        {
          "internalType": "uint256",
          "name": "_phoneNo",
          "type": "uint256"
        },
        {
          "internalType": "string",
          "name": "_address",
          "type": "string"
        }
      ],
      "name": "IssueRescue",
      "outputs": [],
      "stateMutability": "nonpayable",
      "type": "function"
    },
    {
      "inputs": [
        {
          "internalType": "bool",
          "name": "_fake",
          "type": "bool"
        },
        {
          "internalType": "uint256",
          "name": "id",
          "type": "uint256"
        }
      ],
      "name": "IssueVerify",
      "outputs": [],
      "stateMutability": "nonpayable",
      "type": "function"
    },
    {
      "inputs": [
        {
          "internalType": "address",
          "name": "_Verifier",
          "type": "address"
        }
      ],
      "name": "RevokeVerifyAccess",
      "outputs": [],
      "stateMutability": "nonpayable",
      "type": "function"
    },
    {
      "inputs": [],
      "name": "VERIFIER",
      "outputs": [
        {
          "internalType": "bytes32",
          "name": "",
          "type": "bytes32"
        }
      ],
      "stateMutability": "view",
      "type": "function"
    },
    {
      "inputs": [],
      "name": "checkOwner",
      "outputs": [
        {
          "internalType": "bool",
          "name": "",
          "type": "bool"
        }
      ],
      "stateMutability": "view",
      "type": "function"
    },
    {
      "inputs": [],
      "name": "getCheckAndReward",
      "outputs": [
        {
          "internalType": "uint256[]",
          "name": "",
          "type": "uint256[]"
        }
      ],
      "stateMutability": "view",
      "type": "function"
    },
    {
      "inputs": [],
      "name": "getIssues",
      "outputs": [
        {
          "components": [
            {
              "internalType": "address",
              "name": "user",
              "type": "address"
            },
            {
              "internalType": "uint256",
              "name": "Id",
              "type": "uint256"
            },
            {
              "internalType": "uint256",
              "name": "phoneno",
              "type": "uint256"
            },
            {
              "internalType": "string",
              "name": "addres",
              "type": "string"
            },
            {
              "internalType": "bool",
              "name": "fakeissue",
              "type": "bool"
            },
            {
              "internalType": "uint256",
              "name": "time",
              "type": "uint256"
            },
            {
              "internalType": "uint256",
              "name": "timestamp",
              "type": "uint256"
            },
            {
              "internalType": "enum Bluexross.IssueStatus",
              "name": "status",
              "type": "uint8"
            },
            {
              "internalType": "enum Bluexross.RewardStatus",
              "name": "rewardstatus",
              "type": "uint8"
            }
          ],
          "internalType": "struct Bluexross.Issue[]",
          "name": "",
          "type": "tuple[]"
        }
      ],
      "stateMutability": "view",
      "type": "function"
    },
    {
      "inputs": [
        {
          "internalType": "bytes32",
          "name": "role",
          "type": "bytes32"
        }
      ],
      "name": "getRoleAdmin",
      "outputs": [
        {
          "internalType": "bytes32",
          "name": "",
          "type": "bytes32"
        }
      ],
      "stateMutability": "view",
      "type": "function"
    },
    {
      "inputs": [],
      "name": "getrewardbalance",
      "outputs": [
        {
          "internalType": "uint256",
          "name": "",
          "type": "uint256"
        }
      ],
      "stateMutability": "view",
      "type": "function"
    },
    {
      "inputs": [],
      "name": "getstakebalance",
      "outputs": [
        {
          "internalType": "uint256",
          "name": "",
          "type": "uint256"
        }
      ],
      "stateMutability": "view",
      "type": "function"
    },
    {
      "inputs": [
        {
          "internalType": "bytes32",
          "name": "role",
          "type": "bytes32"
        },
        {
          "internalType": "address",
          "name": "account",
          "type": "address"
        }
      ],
      "name": "grantRole",
      "outputs": [],
      "stateMutability": "nonpayable",
      "type": "function"
    },
    {
      "inputs": [
        {
          "internalType": "bytes32",
          "name": "role",
          "type": "bytes32"
        },
        {
          "internalType": "address",
          "name": "account",
          "type": "address"
        }
      ],
      "name": "hasRole",
      "outputs": [
        {
          "internalType": "bool",
          "name": "",
          "type": "bool"
        }
      ],
      "stateMutability": "view",
      "type": "function"
    },
    {
      "inputs": [],
      "name": "isAUser",
      "outputs": [
        {
          "internalType": "bool",
          "name": "",
          "type": "bool"
        }
      ],
      "stateMutability": "view",
      "type": "function"
    },
    {
      "inputs": [
        {
          "internalType": "uint256",
          "name": "",
          "type": "uint256"
        }
      ],
      "name": "issues",
      "outputs": [
        {
          "internalType": "address",
          "name": "user",
          "type": "address"
        },
        {
          "internalType": "uint256",
          "name": "Id",
          "type": "uint256"
        },
        {
          "internalType": "uint256",
          "name": "phoneno",
          "type": "uint256"
        },
        {
          "internalType": "string",
          "name": "addres",
          "type": "string"
        },
        {
          "internalType": "bool",
          "name": "fakeissue",
          "type": "bool"
        },
        {
          "internalType": "uint256",
          "name": "time",
          "type": "uint256"
        },
        {
          "internalType": "uint256",
          "name": "timestamp",
          "type": "uint256"
        },
        {
          "internalType": "enum Bluexross.IssueStatus",
          "name": "status",
          "type": "uint8"
        },
        {
          "internalType": "enum Bluexross.RewardStatus",
          "name": "rewardstatus",
          "type": "uint8"
        }
      ],
      "stateMutability": "view",
      "type": "function"
    },
    {
      "inputs": [],
      "name": "newUser",
      "outputs": [],
      "stateMutability": "nonpayable",
      "type": "function"
    },
    {
      "inputs": [],
      "name": "owner",
      "outputs": [
        {
          "internalType": "address",
          "name": "",
          "type": "address"
        }
      ],
      "stateMutability": "view",
      "type": "function"
    },
    {
      "inputs": [],
      "name": "renounceOwnership",
      "outputs": [],
      "stateMutability": "nonpayable",
      "type": "function"
    },
    {
      "inputs": [
        {
          "internalType": "bytes32",
          "name": "role",
          "type": "bytes32"
        },
        {
          "internalType": "address",
          "name": "callerConfirmation",
          "type": "address"
        }
      ],
      "name": "renounceRole",
      "outputs": [],
      "stateMutability": "nonpayable",
      "type": "function"
    },
    {
      "inputs": [
        {
          "internalType": "bytes32",
          "name": "role",
          "type": "bytes32"
        },
        {
          "internalType": "address",
          "name": "account",
          "type": "address"
        }
      ],
      "name": "revokeRole",
      "outputs": [],
      "stateMutability": "nonpayable",
      "type": "function"
    },
    {
      "inputs": [
        {
          "internalType": "bytes4",
          "name": "interfaceId",
          "type": "bytes4"
        }
      ],
      "name": "supportsInterface",
      "outputs": [
        {
          "internalType": "bool",
          "name": "",
          "type": "bool"
        }
      ],
      "stateMutability": "view",
      "type": "function"
    },
    {
      "inputs": [
        {
          "internalType": "address",
          "name": "newOwner",
          "type": "address"
        }
      ],
      "name": "transferOwnership",
      "outputs": [],
      "stateMutability": "nonpayable",
      "type": "function"
    }
  ],
  "bytecode": "0x60806040523480156200001157600080fd5b5033600073ffffffffffffffffffffffffffffffffffffffff168173ffffffffffffffffffffffffffffffffffffffff1603620000885760006040517f1e4fbdf70000000000000000000000000000000000000000000000000000000081526004016200007f919062000289565b60405180910390fd5b62000099816200018060201b60201c565b50601e6003604051620000ac9062000301565b908152602001604051809103902060006101000a81548160ff021916908360ff16021790555060786003604051620000e49062000368565b908152602001604051809103902060006101000a81548160ff021916908360ff16021790555060b460036040516200011c90620003cf565b908152602001604051809103902060006101000a81548160ff021916908360ff16021790555060f06003604051620001549062000436565b908152602001604051809103902060006101000a81548160ff021916908360ff1602179055506200044d565b60008060009054906101000a900473ffffffffffffffffffffffffffffffffffffffff169050816000806101000a81548173ffffffffffffffffffffffffffffffffffffffff021916908373ffffffffffffffffffffffffffffffffffffffff1602179055508173ffffffffffffffffffffffffffffffffffffffff168173ffffffffffffffffffffffffffffffffffffffff167f8be0079c531659141344cd1fd0a4f28419497f9722a3daafe3b4186f6b6457e060405160405180910390a35050565b600073ffffffffffffffffffffffffffffffffffffffff82169050919050565b6000620002718262000244565b9050919050565b620002838162000264565b82525050565b6000602082019050620002a0600083018462000278565b92915050565b600081905092915050565b7f7265736375650000000000000000000000000000000000000000000000000000600082015250565b6000620002e9600683620002a6565b9150620002f682620002b1565b600682019050919050565b60006200030e82620002da565b9150819050919050565b7f6163636964656e74000000000000000000000000000000000000000000000000600082015250565b600062000350600883620002a6565b91506200035d8262000318565b600882019050919050565b6000620003758262000341565b9150819050919050565b7f696e6a7572790000000000000000000000000000000000000000000000000000600082015250565b6000620003b7600683620002a6565b9150620003c4826200037f565b600682019050919050565b6000620003dc82620003a8565b9150819050919050565b7f616e696d616c6162757365000000000000000000000000000000000000000000600082015250565b60006200041e600b83620002a6565b91506200042b82620003e6565b600b82019050919050565b600062000443826200040f565b9150819050919050565b6139b0806200045d6000396000f3fe608060405234801561001057600080fd5b506004361061018e5760003560e01c8063715018a6116100de5780639333ee3c11610097578063cdbce03d11610071578063cdbce03d14610441578063cfd135a11461045f578063d547741f1461047b578063f2fde38b146104975761018e565b80639333ee3c146103eb578063a217fddf14610407578063beb29f53146104255761018e565b8063715018a61461033b5780637a9f245a146103455780637ce4f0891461036357806386f910ae146103815780638da5cb5b1461039d57806391d14854146103bb5761018e565b80633428cd091161014b578063570588db11610125578063570588db146102d95780636b5b0d9c146102f55780636cebad98146103135780636f6d9c871461031d5761018e565b80633428cd091461028357806336568abe1461029f5780634434f973146102bb5761018e565b806301ffc9a71461019357806304e15de5146101c357806308c84e70146101fb57806308df086c14610219578063248a9ca3146102375780632f2ff15d14610267575b600080fd5b6101ad60048036038101906101a89190612300565b6104b3565b6040516101ba9190612348565b60405180910390f35b6101dd60048036038101906101d89190612399565b61052d565b6040516101f299989796959493929190612565565b60405180910390f35b61020361065a565b6040516102109190612612565b60405180910390f35b61022161067e565b60405161022e9190612348565b60405180910390f35b610251600480360381019061024c9190612659565b6106af565b60405161025e9190612612565b60405180910390f35b610281600480360381019061027c91906126b2565b6106cf565b005b61029d600480360381019061029891906126f2565b6106f1565b005b6102b960048036038101906102b491906126b2565b610727565b005b6102c36107a2565b6040516102d0919061293b565b60405180910390f35b6102f360048036038101906102ee9190612399565b6109a3565b005b6102fd610dae565b60405161030a919061295d565b60405180910390f35b61031b610e51565b005b610325611011565b6040516103329190612348565b60405180910390f35b610343611065565b005b61034d611079565b60405161035a919061295d565b60405180910390f35b61036b61111c565b6040516103789190612a27565b60405180910390f35b61039b60048036038101906103969190612a75565b6111b1565b005b6103a56116e7565b6040516103b29190612ab5565b60405180910390f35b6103d560048036038101906103d091906126b2565b611710565b6040516103e29190612348565b60405180910390f35b610405600480360381019061040091906126f2565b61177b565b005b61040f6117b1565b60405161041c9190612612565b60405180910390f35b61043f600480360381019061043a9190612b4c565b6117b8565b005b610449611846565b6040516104569190612348565b60405180910390f35b61047960048036038101906104749190612cc1565b611883565b005b610495600480360381019061049091906126b2565b611cb1565b005b6104b160048036038101906104ac91906126f2565b611cd3565b005b60007f7965db0b000000000000000000000000000000000000000000000000000000007bffffffffffffffffffffffffffffffffffffffffffffffffffffffff1916827bffffffffffffffffffffffffffffffffffffffffffffffffffffffff19161480610526575061052582611d59565b5b9050919050565b6002818154811061053d57600080fd5b90600052602060002090600802016000915090508060000160009054906101000a900473ffffffffffffffffffffffffffffffffffffffff169080600101549080600201549080600301805461059290612d7b565b80601f01602080910402602001604051908101604052809291908181526020018280546105be90612d7b565b801561060b5780601f106105e05761010080835404028352916020019161060b565b820191906000526020600020905b8154815290600101906020018083116105ee57829003601f168201915b5050505050908060040160009054906101000a900460ff16908060050154908060060154908060070160009054906101000a900460ff16908060070160019054906101000a900460ff16905089565b7fa48c898f5241be426b79d4b5a3c206f9c9a06576e1b72c338c3ec849771d568681565b60006106aa7fa48c898f5241be426b79d4b5a3c206f9c9a06576e1b72c338c3ec849771d568633611710565b905090565b600060016000838152602001908152602001600020600101549050919050565b6106d8826106af565b6106e181611dc3565b6106eb8383611dd7565b50505050565b6106f9611ec8565b6107237fa48c898f5241be426b79d4b5a3c206f9c9a06576e1b72c338c3ec849771d568682611dd7565b5050565b61072f611f4f565b73ffffffffffffffffffffffffffffffffffffffff168173ffffffffffffffffffffffffffffffffffffffff1614610793576040517f6697b23200000000000000000000000000000000000000000000000000000000815260040160405180910390fd5b61079d8282611f57565b505050565b60606002805480602002602001604051908101604052809291908181526020016000905b8282101561099a5783829060005260206000209060080201604051806101200160405290816000820160009054906101000a900473ffffffffffffffffffffffffffffffffffffffff1673ffffffffffffffffffffffffffffffffffffffff1673ffffffffffffffffffffffffffffffffffffffff168152602001600182015481526020016002820154815260200160038201805461086490612d7b565b80601f016020809104026020016040519081016040528092919081815260200182805461089090612d7b565b80156108dd5780601f106108b2576101008083540402835291602001916108dd565b820191906000526020600020905b8154815290600101906020018083116108c057829003601f168201915b505050505081526020016004820160009054906101000a900460ff1615151515815260200160058201548152602001600682015481526020016007820160009054906101000a900460ff16600381111561093a576109396124a6565b5b600381111561094c5761094b6124a6565b5b81526020016007820160019054906101000a900460ff166002811115610975576109746124a6565b5b6002811115610987576109866124a6565b5b81525050815260200190600101906107c6565b50505050905090565b6002805490508111156109eb576040517f08c379a00000000000000000000000000000000000000000000000000000000081526004016109e290612df8565b60405180910390fd5b3373ffffffffffffffffffffffffffffffffffffffff166002600183610a119190612e47565b81548110610a2257610a21612e7b565b5b906000526020600020906008020160000160009054906101000a900473ffffffffffffffffffffffffffffffffffffffff1673ffffffffffffffffffffffffffffffffffffffff1614610aaa576040517f08c379a0000000000000000000000000000000000000000000000000000000008152600401610aa190612f1c565b60405180910390fd5b6002600182610ab99190612e47565b81548110610aca57610ac9612e7b565b5b9060005260206000209060080201600501546002600183610aeb9190612e47565b81548110610afc57610afb612e7b565b5b906000526020600020906008020160060154610b189190612f3c565b421115610d165760036002600183610b309190612e47565b81548110610b4157610b40612e7b565b5b906000526020600020906008020160070160006101000a81548160ff02191690836003811115610b7457610b736124a6565b5b0217905550610bd36002600183610b8b9190612e47565b81548110610b9c57610b9b612e7b565b5b906000526020600020906008020160000160009054906101000a900473ffffffffffffffffffffffffffffffffffffffff1661204a565b60016002600183610be49190612e47565b81548110610bf557610bf4612e7b565b5b906000526020600020906008020160070160016101000a81548160ff02191690836002811115610c2857610c276124a6565b5b02179055507f512379ef3f4c10c0205c8a2db3f7f0d67914269b009267a1d6b78c4ac213d13d6002600183610c5d9190612e47565b81548110610c6e57610c6d612e7b565b5b90600052602060002090600802016002600184610c8b9190612e47565b81548110610c9c57610c9b612e7b565b5b906000526020600020906008020160070160009054906101000a900460ff166002600185610cca9190612e47565b81548110610cdb57610cda612e7b565b5b906000526020600020906008020160070160019054906101000a900460ff16604051610d099392919061320c565b60405180910390a1610dab565b60006002600183610d279190612e47565b81548110610d3857610d37612e7b565b5b906000526020600020906008020160070160016101000a81548160ff02191690836002811115610d6b57610d6a6124a6565b5b02179055506040517f08c379a0000000000000000000000000000000000000000000000000000000008152600401610da290613296565b60405180910390fd5b50565b6000600660009054906101000a900473ffffffffffffffffffffffffffffffffffffffff1673ffffffffffffffffffffffffffffffffffffffff166370a08231336040518263ffffffff1660e01b8152600401610e0b9190612ab5565b602060405180830381865afa158015610e28573d6000803e3d6000fd5b505050506040513d601f19601f82011682018060405250810190610e4c91906132cb565b905090565b60001515600460003373ffffffffffffffffffffffffffffffffffffffff1673ffffffffffffffffffffffffffffffffffffffff16815260200190815260200160002060009054906101000a900460ff16151514610ee4576040517f08c379a0000000000000000000000000000000000000000000000000000000008152600401610edb90613344565b60405180910390fd5b6001600460003373ffffffffffffffffffffffffffffffffffffffff1673ffffffffffffffffffffffffffffffffffffffff16815260200190815260200160002060006101000a81548160ff021916908315150217905550600660009054906101000a900473ffffffffffffffffffffffffffffffffffffffff1673ffffffffffffffffffffffffffffffffffffffff166340c10f193360056040518363ffffffff1660e01b8152600401610f9a9291906133ac565b600060405180830381600087803b158015610fb457600080fd5b505af1158015610fc8573d6000803e3d6000fd5b505050503373ffffffffffffffffffffffffffffffffffffffff167fb7ef386d3c6dc080c6176a3903ca6fcdd0add9272221b4866b01a6514564b09960405160405180910390a2565b6000600460003373ffffffffffffffffffffffffffffffffffffffff1673ffffffffffffffffffffffffffffffffffffffff16815260200190815260200160002060009054906101000a900460ff16905090565b61106d611ec8565b611077600061217f565b565b6000600760009054906101000a900473ffffffffffffffffffffffffffffffffffffffff1673ffffffffffffffffffffffffffffffffffffffff166370a08231336040518263ffffffff1660e01b81526004016110d69190612ab5565b602060405180830381865afa1580156110f3573d6000803e3d6000fd5b505050506040513d601f19601f8201168201806040525081019061111791906132cb565b905090565b6060600560003373ffffffffffffffffffffffffffffffffffffffff1673ffffffffffffffffffffffffffffffffffffffff1681526020019081526020016000208054806020026020016040519081016040528092919081815260200182805480156111a757602002820191906000526020600020905b815481526020019060010190808311611193575b5050505050905090565b6111db7fa48c898f5241be426b79d4b5a3c206f9c9a06576e1b72c338c3ec849771d568633611710565b61121a576040517f08c379a000000000000000000000000000000000000000000000000000000000815260040161121190613421565b60405180910390fd5b600280549050811115611262576040517f08c379a000000000000000000000000000000000000000000000000000000000815260040161125990612df8565b60405180910390fd5b60006003811115611276576112756124a6565b5b60026001836112859190612e47565b8154811061129657611295612e7b565b5b906000526020600020906008020160070160009054906101000a900460ff1660038111156112c7576112c66124a6565b5b14611307576040517f08c379a00000000000000000000000000000000000000000000000000000000081526004016112fe9061348d565b60405180910390fd5b8160026001836113179190612e47565b8154811061132857611327612e7b565b5b906000526020600020906008020160040160006101000a81548160ff0219169083151502179055508161154c57600160026001836113669190612e47565b8154811061137757611376612e7b565b5b906000526020600020906008020160070160006101000a81548160ff021916908360038111156113aa576113a96124a6565b5b021790555061140960026001836113c19190612e47565b815481106113d2576113d1612e7b565b5b906000526020600020906008020160000160009054906101000a900473ffffffffffffffffffffffffffffffffffffffff1661204a565b6001600260018361141a9190612e47565b8154811061142b5761142a612e7b565b5b906000526020600020906008020160070160016101000a81548160ff0219169083600281111561145e5761145d6124a6565b5b02179055507f512379ef3f4c10c0205c8a2db3f7f0d67914269b009267a1d6b78c4ac213d13d60026001836114939190612e47565b815481106114a4576114a3612e7b565b5b906000526020600020906008020160026001846114c19190612e47565b815481106114d2576114d1612e7b565b5b906000526020600020906008020160070160009054906101000a900460ff1660026001856115009190612e47565b8154811061151157611510612e7b565b5b906000526020600020906008020160070160019054906101000a900460ff1660405161153f9392919061320c565b60405180910390a16116e3565b60028060018361155c9190612e47565b8154811061156d5761156c612e7b565b5b906000526020600020906008020160070160006101000a81548160ff021916908360038111156115a05761159f6124a6565b5b02179055506002806001836115b59190612e47565b815481106115c6576115c5612e7b565b5b906000526020600020906008020160070160016101000a81548160ff021916908360028111156115f9576115f86124a6565b5b02179055507f512379ef3f4c10c0205c8a2db3f7f0d67914269b009267a1d6b78c4ac213d13d600260018361162e9190612e47565b8154811061163f5761163e612e7b565b5b9060005260206000209060080201600260018461165c9190612e47565b8154811061166d5761166c612e7b565b5b906000526020600020906008020160070160009054906101000a900460ff16600260018561169b9190612e47565b815481106116ac576116ab612e7b565b5b906000526020600020906008020160070160019054906101000a900460ff166040516116da9392919061320c565b60405180910390a15b5050565b60008060009054906101000a900473ffffffffffffffffffffffffffffffffffffffff16905090565b60006001600084815260200190815260200160002060000160008373ffffffffffffffffffffffffffffffffffffffff1673ffffffffffffffffffffffffffffffffffffffff16815260200190815260200160002060009054906101000a900460ff16905092915050565b611783611ec8565b6117ad7fa48c898f5241be426b79d4b5a3c206f9c9a06576e1b72c338c3ec849771d568682611f57565b5050565b6000801b81565b6117c0611ec8565b81600660006101000a81548173ffffffffffffffffffffffffffffffffffffffff021916908373ffffffffffffffffffffffffffffffffffffffff16021790555080600760006101000a81548173ffffffffffffffffffffffffffffffffffffffff021916908373ffffffffffffffffffffffffffffffffffffffff1602179055505050565b60006118506116e7565b73ffffffffffffffffffffffffffffffffffffffff163373ffffffffffffffffffffffffffffffffffffffff1614905090565b600660009054906101000a900473ffffffffffffffffffffffffffffffffffffffff1673ffffffffffffffffffffffffffffffffffffffff1663095ea7b33060056040518363ffffffff1660e01b81526004016118e19291906133ac565b6020604051808303816000875af1158015611900573d6000803e3d6000fd5b505050506040513d601f19601f8201168201806040525081019061192491906134c2565b50600660009054906101000a900473ffffffffffffffffffffffffffffffffffffffff1673ffffffffffffffffffffffffffffffffffffffff166323b872dd333060056040518463ffffffff1660e01b8152600401611985939291906134ef565b6020604051808303816000875af11580156119a4573d6000803e3d6000fd5b505050506040513d601f19601f820116820180604052508101906119c891906134c2565b611a07576040517f08c379a00000000000000000000000000000000000000000000000000000000081526004016119fe90613598565b60405180910390fd5b60006040518061012001604052803373ffffffffffffffffffffffffffffffffffffffff1681526020016001600280549050611a439190612f3c565b8152602001848152602001838152602001600015158152602001600386604051611a6d91906135f4565b908152602001604051809103902060009054906101000a900460ff1660ff16815260200142815260200160006003811115611aab57611aaa6124a6565b5b815260200160006002811115611ac457611ac36124a6565b5b8152509050600560003373ffffffffffffffffffffffffffffffffffffffff1673ffffffffffffffffffffffffffffffffffffffff1681526020019081526020016000206001600280549050611b1a9190612f3c565b9080600181540180825580915050600190039060005260206000200160009091909190915055600281908060018154018082558091505060019003906000526020600020906008020160009091909190915060008201518160000160006101000a81548173ffffffffffffffffffffffffffffffffffffffff021916908373ffffffffffffffffffffffffffffffffffffffff16021790555060208201518160010155604082015181600201556060820151816003019081611bdc9190613798565b5060808201518160040160006101000a81548160ff02191690831515021790555060a0820151816005015560c0820151816006015560e08201518160070160006101000a81548160ff02191690836003811115611c3c57611c3b6124a6565b5b02179055506101008201518160070160016101000a81548160ff02191690836002811115611c6d57611c6c6124a6565b5b021790555050507fcdeef1b552fe01c7052ed0f38eccca40a9c93cd8b2386e77cf8a057446d341fe81604051611ca3919061392f565b60405180910390a150505050565b611cba826106af565b611cc381611dc3565b611ccd8383611f57565b50505050565b611cdb611ec8565b600073ffffffffffffffffffffffffffffffffffffffff168173ffffffffffffffffffffffffffffffffffffffff1603611d4d5760006040517f1e4fbdf7000000000000000000000000000000000000000000000000000000008152600401611d449190612ab5565b60405180910390fd5b611d568161217f565b50565b60007f01ffc9a7000000000000000000000000000000000000000000000000000000007bffffffffffffffffffffffffffffffffffffffffffffffffffffffff1916827bffffffffffffffffffffffffffffffffffffffffffffffffffffffff1916149050919050565b611dd481611dcf611f4f565b612243565b50565b6000611de38383611710565b611ebd57600180600085815260200190815260200160002060000160008473ffffffffffffffffffffffffffffffffffffffff1673ffffffffffffffffffffffffffffffffffffffff16815260200190815260200160002060006101000a81548160ff021916908315150217905550611e5a611f4f565b73ffffffffffffffffffffffffffffffffffffffff168273ffffffffffffffffffffffffffffffffffffffff16847f2f8788117e7eff1d82e926ec794901d17c78024a50270940304540a733656f0d60405160405180910390a460019050611ec2565b600090505b92915050565b611ed0611f4f565b73ffffffffffffffffffffffffffffffffffffffff16611eee6116e7565b73ffffffffffffffffffffffffffffffffffffffff1614611f4d57611f11611f4f565b6040517f118cdaa7000000000000000000000000000000000000000000000000000000008152600401611f449190612ab5565b60405180910390fd5b565b600033905090565b6000611f638383611710565b1561203f5760006001600085815260200190815260200160002060000160008473ffffffffffffffffffffffffffffffffffffffff1673ffffffffffffffffffffffffffffffffffffffff16815260200190815260200160002060006101000a81548160ff021916908315150217905550611fdc611f4f565b73ffffffffffffffffffffffffffffffffffffffff168273ffffffffffffffffffffffffffffffffffffffff16847ff6391f5c32d9c69d2a47ea670b442974b53935d1edc7fd64eb21e047a839171b60405160405180910390a460019050612044565b600090505b92915050565b600660009054906101000a900473ffffffffffffffffffffffffffffffffffffffff1673ffffffffffffffffffffffffffffffffffffffff1663a9059cbb8260056040518363ffffffff1660e01b81526004016120a89291906133ac565b6020604051808303816000875af11580156120c7573d6000803e3d6000fd5b505050506040513d601f19601f820116820180604052508101906120eb91906134c2565b50600760009054906101000a900473ffffffffffffffffffffffffffffffffffffffff1673ffffffffffffffffffffffffffffffffffffffff166340c10f198260026040518363ffffffff1660e01b815260040161214a9291906133ac565b600060405180830381600087803b15801561216457600080fd5b505af1158015612178573d6000803e3d6000fd5b5050505050565b60008060009054906101000a900473ffffffffffffffffffffffffffffffffffffffff169050816000806101000a81548173ffffffffffffffffffffffffffffffffffffffff021916908373ffffffffffffffffffffffffffffffffffffffff1602179055508173ffffffffffffffffffffffffffffffffffffffff168173ffffffffffffffffffffffffffffffffffffffff167f8be0079c531659141344cd1fd0a4f28419497f9722a3daafe3b4186f6b6457e060405160405180910390a35050565b61224d8282611710565b6122905780826040517fe2517d3f000000000000000000000000000000000000000000000000000000008152600401612287929190613951565b60405180910390fd5b5050565b6000604051905090565b600080fd5b600080fd5b60007fffffffff0000000000000000000000000000000000000000000000000000000082169050919050565b6122dd816122a8565b81146122e857600080fd5b50565b6000813590506122fa816122d4565b92915050565b6000602082840312156123165761231561229e565b5b6000612324848285016122eb565b91505092915050565b60008115159050919050565b6123428161232d565b82525050565b600060208201905061235d6000830184612339565b92915050565b6000819050919050565b61237681612363565b811461238157600080fd5b50565b6000813590506123938161236d565b92915050565b6000602082840312156123af576123ae61229e565b5b60006123bd84828501612384565b91505092915050565b600073ffffffffffffffffffffffffffffffffffffffff82169050919050565b60006123f1826123c6565b9050919050565b612401816123e6565b82525050565b61241081612363565b82525050565b600081519050919050565b600082825260208201905092915050565b60005b83811015612450578082015181840152602081019050612435565b60008484015250505050565b6000601f19601f8301169050919050565b600061247882612416565b6124828185612421565b9350612492818560208601612432565b61249b8161245c565b840191505092915050565b7f4e487b7100000000000000000000000000000000000000000000000000000000600052602160045260246000fd5b600481106124e6576124e56124a6565b5b50565b60008190506124f7826124d5565b919050565b6000612507826124e9565b9050919050565b612517816124fc565b82525050565b6003811061252e5761252d6124a6565b5b50565b600081905061253f8261251d565b919050565b600061254f82612531565b9050919050565b61255f81612544565b82525050565b60006101208201905061257b600083018c6123f8565b612588602083018b612407565b612595604083018a612407565b81810360608301526125a7818961246d565b90506125b66080830188612339565b6125c360a0830187612407565b6125d060c0830186612407565b6125dd60e083018561250e565b6125eb610100830184612556565b9a9950505050505050505050565b6000819050919050565b61260c816125f9565b82525050565b60006020820190506126276000830184612603565b92915050565b612636816125f9565b811461264157600080fd5b50565b6000813590506126538161262d565b92915050565b60006020828403121561266f5761266e61229e565b5b600061267d84828501612644565b91505092915050565b61268f816123e6565b811461269a57600080fd5b50565b6000813590506126ac81612686565b92915050565b600080604083850312156126c9576126c861229e565b5b60006126d785828601612644565b92505060206126e88582860161269d565b9150509250929050565b6000602082840312156127085761270761229e565b5b60006127168482850161269d565b91505092915050565b600081519050919050565b600082825260208201905092915050565b6000819050602082019050919050565b612754816123e6565b82525050565b61276381612363565b82525050565b600082825260208201905092915050565b600061278582612416565b61278f8185612769565b935061279f818560208601612432565b6127a88161245c565b840191505092915050565b6127bc8161232d565b82525050565b6127cb816124fc565b82525050565b6127da81612544565b82525050565b6000610120830160008301516127f9600086018261274b565b50602083015161280c602086018261275a565b50604083015161281f604086018261275a565b5060608301518482036060860152612837828261277a565b915050608083015161284c60808601826127b3565b5060a083015161285f60a086018261275a565b5060c083015161287260c086018261275a565b5060e083015161288560e08601826127c2565b5061010083015161289a6101008601826127d1565b508091505092915050565b60006128b183836127e0565b905092915050565b6000602082019050919050565b60006128d18261271f565b6128db818561272a565b9350836020820285016128ed8561273b565b8060005b85811015612929578484038952815161290a85826128a5565b9450612915836128b9565b925060208a019950506001810190506128f1565b50829750879550505050505092915050565b6000602082019050818103600083015261295581846128c6565b905092915050565b60006020820190506129726000830184612407565b92915050565b600081519050919050565b600082825260208201905092915050565b6000819050602082019050919050565b60006129b0838361275a565b60208301905092915050565b6000602082019050919050565b60006129d482612978565b6129de8185612983565b93506129e983612994565b8060005b83811015612a1a578151612a0188826129a4565b9750612a0c836129bc565b9250506001810190506129ed565b5085935050505092915050565b60006020820190508181036000830152612a4181846129c9565b905092915050565b612a528161232d565b8114612a5d57600080fd5b50565b600081359050612a6f81612a49565b92915050565b60008060408385031215612a8c57612a8b61229e565b5b6000612a9a85828601612a60565b9250506020612aab85828601612384565b9150509250929050565b6000602082019050612aca60008301846123f8565b92915050565b6000612adb826123e6565b9050919050565b612aeb81612ad0565b8114612af657600080fd5b50565b600081359050612b0881612ae2565b92915050565b6000612b19826123e6565b9050919050565b612b2981612b0e565b8114612b3457600080fd5b50565b600081359050612b4681612b20565b92915050565b60008060408385031215612b6357612b6261229e565b5b6000612b7185828601612af9565b9250506020612b8285828601612b37565b9150509250929050565b600080fd5b600080fd5b7f4e487b7100000000000000000000000000000000000000000000000000000000600052604160045260246000fd5b612bce8261245c565b810181811067ffffffffffffffff82111715612bed57612bec612b96565b5b80604052505050565b6000612c00612294565b9050612c0c8282612bc5565b919050565b600067ffffffffffffffff821115612c2c57612c2b612b96565b5b612c358261245c565b9050602081019050919050565b82818337600083830152505050565b6000612c64612c5f84612c11565b612bf6565b905082815260208101848484011115612c8057612c7f612b91565b5b612c8b848285612c42565b509392505050565b600082601f830112612ca857612ca7612b8c565b5b8135612cb8848260208601612c51565b91505092915050565b600080600060608486031215612cda57612cd961229e565b5b600084013567ffffffffffffffff811115612cf857612cf76122a3565b5b612d0486828701612c93565b9350506020612d1586828701612384565b925050604084013567ffffffffffffffff811115612d3657612d356122a3565b5b612d4286828701612c93565b9150509250925092565b7f4e487b7100000000000000000000000000000000000000000000000000000000600052602260045260246000fd5b60006002820490506001821680612d9357607f821691505b602082108103612da657612da5612d4c565b5b50919050565b7f496e76616c696420697373756520494400000000000000000000000000000000600082015250565b6000612de2601083612421565b9150612ded82612dac565b602082019050919050565b60006020820190508181036000830152612e1181612dd5565b9050919050565b7f4e487b7100000000000000000000000000000000000000000000000000000000600052601160045260246000fd5b6000612e5282612363565b9150612e5d83612363565b9250828203905081811115612e7557612e74612e18565b5b92915050565b7f4e487b7100000000000000000000000000000000000000000000000000000000600052603260045260246000fd5b7f596f7520617265206e6f7420746865206f776e6572206f66207468652069737360008201527f7565210000000000000000000000000000000000000000000000000000000000602082015250565b6000612f06602383612421565b9150612f1182612eaa565b604082019050919050565b60006020820190508181036000830152612f3581612ef9565b9050919050565b6000612f4782612363565b9150612f5283612363565b9250828201905080821115612f6a57612f69612e18565b5b92915050565b60008160001c9050919050565b600073ffffffffffffffffffffffffffffffffffffffff82169050919050565b6000612fb0612fab83612f70565b612f7d565b9050919050565b6000819050919050565b6000612fd4612fcf83612f70565b612fb7565b9050919050565b60008190508160005260206000209050919050565b60008154612ffd81612d7b565b6130078186612769565b9450600182166000811461302257600181146130385761306b565b60ff19831686528115156020028601935061306b565b61304185612fdb565b60005b8381101561306357815481890152600182019150602081019050613044565b808801955050505b50505092915050565b600060ff82169050919050565b600061309461308f83612f70565b613074565b9050919050565b600060ff82169050919050565b60006130bb6130b683612f70565b61309b565b9050919050565b60008160081c9050919050565b600060ff82169050919050565b60006130ef6130ea836130c2565b6130cf565b9050919050565b60006101208301600080840154905061310e81612f9d565b61311b600087018261274b565b506001840154905061312c81612fc1565b613139602087018261275a565b506002840154905061314a81612fc1565b613157604087018261275a565b5060038401858303606087015261316e8382612ff0565b9250506004840154905061318181613081565b61318e60808701826127b3565b506005840154905061319f81612fc1565b6131ac60a087018261275a565b50600684015490506131bd81612fc1565b6131ca60c087018261275a565b50600784015490506131db816130a8565b6131e860e08701826127c2565b506131f2816130dc565b6132006101008701826127d1565b50819250505092915050565b6000606082019050818103600083015261322681866130f6565b9050613235602083018561250e565b6132426040830184612556565b949350505050565b7f5374617475732050656e64696e67210000000000000000000000000000000000600082015250565b6000613280600f83612421565b915061328b8261324a565b602082019050919050565b600060208201905081810360008301526132af81613273565b9050919050565b6000815190506132c58161236d565b92915050565b6000602082840312156132e1576132e061229e565b5b60006132ef848285016132b6565b91505092915050565b7f596f752061726520616c72656164792061207573657200000000000000000000600082015250565b600061332e601683612421565b9150613339826132f8565b602082019050919050565b6000602082019050818103600083015261335d81613321565b9050919050565b600060ff82169050919050565b6000819050919050565b600061339661339161338c84613364565b613371565b612363565b9050919050565b6133a68161337b565b82525050565b60006040820190506133c160008301856123f8565b6133ce602083018461339d565b9392505050565b7f43616c6c6572206973206e6f7420612056455249464945520000000000000000600082015250565b600061340b601883612421565b9150613416826133d5565b602082019050919050565b6000602082019050818103600083015261343a816133fe565b9050919050565b7f497373756520616c726561647920766572696669656400000000000000000000600082015250565b6000613477601683612421565b915061348282613441565b602082019050919050565b600060208201905081810360008301526134a68161346a565b9050919050565b6000815190506134bc81612a49565b92915050565b6000602082840312156134d8576134d761229e565b5b60006134e6848285016134ad565b91505092915050565b600060608201905061350460008301866123f8565b61351160208301856123f8565b61351e604083018461339d565b949350505050565b7f594f5520444f4e2754204841564520454e4f554748205354414b4520434f494e60008201527f5300000000000000000000000000000000000000000000000000000000000000602082015250565b6000613582602183612421565b915061358d82613526565b604082019050919050565b600060208201905081810360008301526135b181613575565b9050919050565b600081905092915050565b60006135ce82612416565b6135d881856135b8565b93506135e8818560208601612432565b80840191505092915050565b600061360082846135c3565b915081905092915050565b60006020601f8301049050919050565b600082821b905092915050565b6000600883026136587fffffffffffffffffffffffffffffffffffffffffffffffffffffffffffffffff8261361b565b613662868361361b565b95508019841693508086168417925050509392505050565b600061369561369061368b84612363565b613371565b612363565b9050919050565b6000819050919050565b6136af8361367a565b6136c36136bb8261369c565b848454613628565b825550505050565b600090565b6136d86136cb565b6136e38184846136a6565b505050565b5b81811015613707576136fc6000826136d0565b6001810190506136e9565b5050565b601f82111561374c5761371d81612fdb565b6137268461360b565b81016020851015613735578190505b6137496137418561360b565b8301826136e8565b50505b505050565b600082821c905092915050565b600061376f60001984600802613751565b1980831691505092915050565b6000613788838361375e565b9150826002028217905092915050565b6137a182612416565b67ffffffffffffffff8111156137ba576137b9612b96565b5b6137c48254612d7b565b6137cf82828561370b565b600060209050601f83116001811461380257600084156137f0578287015190505b6137fa858261377c565b865550613862565b601f19841661381086612fdb565b60005b8281101561383857848901518255600182019150602085019450602081019050613813565b868310156138555784890151613851601f89168261375e565b8355505b6001600288020188555050505b505050505050565b600061012083016000830151613883600086018261274b565b506020830151613896602086018261275a565b5060408301516138a9604086018261275a565b50606083015184820360608601526138c1828261277a565b91505060808301516138d660808601826127b3565b5060a08301516138e960a086018261275a565b5060c08301516138fc60c086018261275a565b5060e083015161390f60e08601826127c2565b506101008301516139246101008601826127d1565b508091505092915050565b60006020820190508181036000830152613949818461386a565b905092915050565b600060408201905061396660008301856123f8565b6139736020830184612603565b939250505056fea26469706673582212204deb1cdc8f2cfd508eb8c5c240a0300daa3c061711a30b4f73309a7293efae1264736f6c63430008180033",
  "linkReferences": {},
  "deployedLinkReferences": {}
}