{
  "_format": "hh-sol-artifact-1",
  "contractName": "Bluexross",
  "sourceName": "contracts/Bluexross.sol",
  "abi": [
    {
      "inputs": [],
      "stateMutability": "nonpayable",
      "type": "constructor"
    },
    {
      "inputs": [],
      "name": "AccessControlBadConfirmation",
      "type": "error"
    },
    {
      "inputs": [
        {
          "internalType": "address",
          "name": "account",
          "type": "address"
        },
        {
          "internalType": "bytes32",
          "name": "neededRole",
          "type": "bytes32"
        }
      ],
      "name": "AccessControlUnauthorizedAccount",
      "type": "error"
    },
    {
      "inputs": [
        {
          "internalType": "address",
          "name": "owner",
          "type": "address"
        }
      ],
      "name": "OwnableInvalidOwner",
      "type": "error"
    },
    {
      "inputs": [
        {
          "internalType": "address",
          "name": "account",
          "type": "address"
        }
      ],
      "name": "OwnableUnauthorizedAccount",
      "type": "error"
    },
    {
      "anonymous": false,
      "inputs": [
        {
          "components": [
            {
              "internalType": "address",
              "name": "user",
              "type": "address"
            },
            {
              "internalType": "uint256",
              "name": "Id",
              "type": "uint256"
            },
            {
              "internalType": "string",
              "name": "phoneno",
              "type": "string"
            },
            {
              "internalType": "string",
              "name": "addres",
              "type": "string"
            },
            {
              "internalType": "bool",
              "name": "fakeissue",
              "type": "bool"
            },
            {
              "internalType": "uint256",
              "name": "time",
              "type": "uint256"
            },
            {
              "internalType": "uint256",
              "name": "timestamp",
              "type": "uint256"
            },
            {
              "internalType": "string",
              "name": "status",
              "type": "string"
            },
            {
              "internalType": "string",
              "name": "rewardstatus",
              "type": "string"
            }
          ],
          "indexed": false,
          "internalType": "struct Bluexross.Issue",
          "name": "_issue",
          "type": "tuple"
        },
        {
          "indexed": false,
          "internalType": "uint256",
          "name": "Time",
          "type": "uint256"
        },
        {
          "indexed": false,
          "internalType": "string",
          "name": "status",
          "type": "string"
        }
      ],
      "name": "IssueRised",
      "type": "event"
    },
    {
      "anonymous": false,
      "inputs": [
        {
          "indexed": true,
          "internalType": "address",
          "name": "previousOwner",
          "type": "address"
        },
        {
          "indexed": true,
          "internalType": "address",
          "name": "newOwner",
          "type": "address"
        }
      ],
      "name": "OwnershipTransferred",
      "type": "event"
    },
    {
      "anonymous": false,
      "inputs": [
        {
          "indexed": true,
          "internalType": "bytes32",
          "name": "role",
          "type": "bytes32"
        },
        {
          "indexed": true,
          "internalType": "bytes32",
          "name": "previousAdminRole",
          "type": "bytes32"
        },
        {
          "indexed": true,
          "internalType": "bytes32",
          "name": "newAdminRole",
          "type": "bytes32"
        }
      ],
      "name": "RoleAdminChanged",
      "type": "event"
    },
    {
      "anonymous": false,
      "inputs": [
        {
          "indexed": true,
          "internalType": "bytes32",
          "name": "role",
          "type": "bytes32"
        },
        {
          "indexed": true,
          "internalType": "address",
          "name": "account",
          "type": "address"
        },
        {
          "indexed": true,
          "internalType": "address",
          "name": "sender",
          "type": "address"
        }
      ],
      "name": "RoleGranted",
      "type": "event"
    },
    {
      "anonymous": false,
      "inputs": [
        {
          "indexed": true,
          "internalType": "bytes32",
          "name": "role",
          "type": "bytes32"
        },
        {
          "indexed": true,
          "internalType": "address",
          "name": "account",
          "type": "address"
        },
        {
          "indexed": true,
          "internalType": "address",
          "name": "sender",
          "type": "address"
        }
      ],
      "name": "RoleRevoked",
      "type": "event"
    },
    {
      "anonymous": false,
      "inputs": [
        {
          "indexed": false,
          "internalType": "string",
          "name": "status",
          "type": "string"
        },
        {
          "indexed": false,
          "internalType": "string",
          "name": "Rewardstatus",
          "type": "string"
        }
      ],
      "name": "Status",
      "type": "event"
    },
    {
      "anonymous": false,
      "inputs": [
        {
          "indexed": true,
          "internalType": "address",
          "name": "_user",
          "type": "address"
        }
      ],
      "name": "newuser",
      "type": "event"
    },
    {
      "inputs": [
        {
          "internalType": "uint256",
          "name": "id",
          "type": "uint256"
        }
      ],
      "name": "CheckAndReward",
      "outputs": [],
      "stateMutability": "nonpayable",
      "type": "function"
    },
    {
      "inputs": [],
      "name": "CheckverifierAccess",
      "outputs": [
        {
          "internalType": "bool",
          "name": "",
          "type": "bool"
        }
      ],
      "stateMutability": "view",
      "type": "function"
    },
    {
      "inputs": [],
      "name": "DEFAULT_ADMIN_ROLE",
      "outputs": [
        {
          "internalType": "bytes32",
          "name": "",
          "type": "bytes32"
        }
      ],
      "stateMutability": "view",
      "type": "function"
    },
    {
      "inputs": [
        {
          "internalType": "address",
          "name": "_Verifier",
          "type": "address"
        }
      ],
      "name": "GrantVerifyAccess",
      "outputs": [],
      "stateMutability": "nonpayable",
      "type": "function"
    },
    {
      "inputs": [
        {
          "internalType": "contract StakeTokens",
          "name": "_stakecoins",
          "type": "address"
        },
        {
          "internalType": "contract RewardTokens",
          "name": "_rewardcoins",
          "type": "address"
        }
      ],
      "name": "InitialiseCoins",
      "outputs": [],
      "stateMutability": "nonpayable",
      "type": "function"
    },
    {
      "inputs": [
        {
          "internalType": "string",
          "name": "rescuetype",
          "type": "string"
        },
        {
          "internalType": "string",
          "name": "phoneNo",
          "type": "string"
        },
        {
          "internalType": "string",
          "name": "addres",
          "type": "string"
        }
      ],
      "name": "IssueRescue",
      "outputs": [],
      "stateMutability": "nonpayable",
      "type": "function"
    },
    {
      "inputs": [
        {
          "internalType": "bool",
          "name": "issueDetail",
          "type": "bool"
        },
        {
          "internalType": "uint256",
          "name": "id",
          "type": "uint256"
        }
      ],
      "name": "IssueVerify",
      "outputs": [],
      "stateMutability": "nonpayable",
      "type": "function"
    },
    {
      "inputs": [],
      "name": "VERIFIER",
      "outputs": [
        {
          "internalType": "bytes32",
          "name": "",
          "type": "bytes32"
        }
      ],
      "stateMutability": "view",
      "type": "function"
    },
    {
      "inputs": [],
      "name": "checkOwner",
      "outputs": [
        {
          "internalType": "bool",
          "name": "",
          "type": "bool"
        }
      ],
      "stateMutability": "view",
      "type": "function"
    },
    {
      "inputs": [],
      "name": "getCheckAndReward",
      "outputs": [
        {
          "internalType": "uint256[]",
          "name": "",
          "type": "uint256[]"
        }
      ],
      "stateMutability": "view",
      "type": "function"
    },
    {
      "inputs": [],
      "name": "getIssues",
      "outputs": [
        {
          "components": [
            {
              "internalType": "address",
              "name": "user",
              "type": "address"
            },
            {
              "internalType": "uint256",
              "name": "Id",
              "type": "uint256"
            },
            {
              "internalType": "string",
              "name": "phoneno",
              "type": "string"
            },
            {
              "internalType": "string",
              "name": "addres",
              "type": "string"
            },
            {
              "internalType": "bool",
              "name": "fakeissue",
              "type": "bool"
            },
            {
              "internalType": "uint256",
              "name": "time",
              "type": "uint256"
            },
            {
              "internalType": "uint256",
              "name": "timestamp",
              "type": "uint256"
            },
            {
              "internalType": "string",
              "name": "status",
              "type": "string"
            },
            {
              "internalType": "string",
              "name": "rewardstatus",
              "type": "string"
            }
          ],
          "internalType": "struct Bluexross.Issue[]",
          "name": "",
          "type": "tuple[]"
        }
      ],
      "stateMutability": "view",
      "type": "function"
    },
    {
      "inputs": [
        {
          "internalType": "bytes32",
          "name": "role",
          "type": "bytes32"
        }
      ],
      "name": "getRoleAdmin",
      "outputs": [
        {
          "internalType": "bytes32",
          "name": "",
          "type": "bytes32"
        }
      ],
      "stateMutability": "view",
      "type": "function"
    },
    {
      "inputs": [],
      "name": "getrewardbalance",
      "outputs": [
        {
          "internalType": "uint256",
          "name": "",
          "type": "uint256"
        }
      ],
      "stateMutability": "view",
      "type": "function"
    },
    {
      "inputs": [],
      "name": "getstakebalance",
      "outputs": [
        {
          "internalType": "uint256",
          "name": "",
          "type": "uint256"
        }
      ],
      "stateMutability": "view",
      "type": "function"
    },
    {
      "inputs": [
        {
          "internalType": "bytes32",
          "name": "role",
          "type": "bytes32"
        },
        {
          "internalType": "address",
          "name": "account",
          "type": "address"
        }
      ],
      "name": "grantRole",
      "outputs": [],
      "stateMutability": "nonpayable",
      "type": "function"
    },
    {
      "inputs": [
        {
          "internalType": "bytes32",
          "name": "role",
          "type": "bytes32"
        },
        {
          "internalType": "address",
          "name": "account",
          "type": "address"
        }
      ],
      "name": "hasRole",
      "outputs": [
        {
          "internalType": "bool",
          "name": "",
          "type": "bool"
        }
      ],
      "stateMutability": "view",
      "type": "function"
    },
    {
      "inputs": [],
      "name": "isNewUser",
      "outputs": [
        {
          "internalType": "bool",
          "name": "",
          "type": "bool"
        }
      ],
      "stateMutability": "view",
      "type": "function"
    },
    {
      "inputs": [
        {
          "internalType": "uint256",
          "name": "",
          "type": "uint256"
        }
      ],
      "name": "issues",
      "outputs": [
        {
          "internalType": "address",
          "name": "user",
          "type": "address"
        },
        {
          "internalType": "uint256",
          "name": "Id",
          "type": "uint256"
        },
        {
          "internalType": "string",
          "name": "phoneno",
          "type": "string"
        },
        {
          "internalType": "string",
          "name": "addres",
          "type": "string"
        },
        {
          "internalType": "bool",
          "name": "fakeissue",
          "type": "bool"
        },
        {
          "internalType": "uint256",
          "name": "time",
          "type": "uint256"
        },
        {
          "internalType": "uint256",
          "name": "timestamp",
          "type": "uint256"
        },
        {
          "internalType": "string",
          "name": "status",
          "type": "string"
        },
        {
          "internalType": "string",
          "name": "rewardstatus",
          "type": "string"
        }
      ],
      "stateMutability": "view",
      "type": "function"
    },
    {
      "inputs": [],
      "name": "newUser",
      "outputs": [],
      "stateMutability": "nonpayable",
      "type": "function"
    },
    {
      "inputs": [],
      "name": "owner",
      "outputs": [
        {
          "internalType": "address",
          "name": "",
          "type": "address"
        }
      ],
      "stateMutability": "view",
      "type": "function"
    },
    {
      "inputs": [],
      "name": "renounceOwnership",
      "outputs": [],
      "stateMutability": "nonpayable",
      "type": "function"
    },
    {
      "inputs": [
        {
          "internalType": "bytes32",
          "name": "role",
          "type": "bytes32"
        },
        {
          "internalType": "address",
          "name": "callerConfirmation",
          "type": "address"
        }
      ],
      "name": "renounceRole",
      "outputs": [],
      "stateMutability": "nonpayable",
      "type": "function"
    },
    {
      "inputs": [
        {
          "internalType": "bytes32",
          "name": "role",
          "type": "bytes32"
        },
        {
          "internalType": "address",
          "name": "account",
          "type": "address"
        }
      ],
      "name": "revokeRole",
      "outputs": [],
      "stateMutability": "nonpayable",
      "type": "function"
    },
    {
      "inputs": [
        {
          "internalType": "bytes4",
          "name": "interfaceId",
          "type": "bytes4"
        }
      ],
      "name": "supportsInterface",
      "outputs": [
        {
          "internalType": "bool",
          "name": "",
          "type": "bool"
        }
      ],
      "stateMutability": "view",
      "type": "function"
    },
    {
      "inputs": [
        {
          "internalType": "address",
          "name": "newOwner",
          "type": "address"
        }
      ],
      "name": "transferOwnership",
      "outputs": [],
      "stateMutability": "nonpayable",
      "type": "function"
    }
  ],
  "bytecode": "0x608060405260056008553480156200001657600080fd5b5033600073ffffffffffffffffffffffffffffffffffffffff168173ffffffffffffffffffffffffffffffffffffffff16036200008d5760006040517f1e4fbdf70000000000000000000000000000000000000000000000000000000081526004016200008491906200028e565b60405180910390fd5b6200009e816200018560201b60201c565b50601e6003604051620000b19062000306565b908152602001604051809103902060006101000a81548160ff021916908360ff16021790555060786003604051620000e9906200036d565b908152602001604051809103902060006101000a81548160ff021916908360ff16021790555060b460036040516200012190620003d4565b908152602001604051809103902060006101000a81548160ff021916908360ff16021790555060f0600360405162000159906200043b565b908152602001604051809103902060006101000a81548160ff021916908360ff16021790555062000452565b60008060009054906101000a900473ffffffffffffffffffffffffffffffffffffffff169050816000806101000a81548173ffffffffffffffffffffffffffffffffffffffff021916908373ffffffffffffffffffffffffffffffffffffffff1602179055508173ffffffffffffffffffffffffffffffffffffffff168173ffffffffffffffffffffffffffffffffffffffff167f8be0079c531659141344cd1fd0a4f28419497f9722a3daafe3b4186f6b6457e060405160405180910390a35050565b600073ffffffffffffffffffffffffffffffffffffffff82169050919050565b6000620002768262000249565b9050919050565b620002888162000269565b82525050565b6000602082019050620002a560008301846200027d565b92915050565b600081905092915050565b7f7265736375650000000000000000000000000000000000000000000000000000600082015250565b6000620002ee600683620002ab565b9150620002fb82620002b6565b600682019050919050565b60006200031382620002df565b9150819050919050565b7f696e6a7572790000000000000000000000000000000000000000000000000000600082015250565b600062000355600683620002ab565b915062000362826200031d565b600682019050919050565b60006200037a8262000346565b9150819050919050565b7f6163636964656e74000000000000000000000000000000000000000000000000600082015250565b6000620003bc600883620002ab565b9150620003c98262000384565b600882019050919050565b6000620003e182620003ad565b9150819050919050565b7f616e696d616c6162757365000000000000000000000000000000000000000000600082015250565b600062000423600b83620002ab565b91506200043082620003eb565b600b82019050919050565b6000620004488262000414565b9150819050919050565b613ead80620004626000396000f3fe608060405234801561001057600080fd5b50600436106101735760003560e01c8063715018a6116100de578063a217fddf11610097578063beb29f5311610071578063beb29f531461040a578063cdbce03d14610426578063d547741f14610444578063f2fde38b1461046057610173565b8063a217fddf146103b2578063a4965d36146103d0578063b3d0f186146103ee57610173565b8063715018a6146103025780637a9f245a1461030c5780637ce4f0891461032a57806386f910ae146103485780638da5cb5b1461036457806391d148541461038257610173565b80633428cd09116101305780633428cd091461026857806336568abe146102845780634434f973146102a0578063570588db146102be5780636b5b0d9c146102da5780636cebad98146102f857610173565b806301ffc9a71461017857806304e15de5146101a857806308c84e70146101e057806308df086c146101fe578063248a9ca31461021c5780632f2ff15d1461024c575b600080fd5b610192600480360381019061018d919061284c565b61047c565b60405161019f9190612894565b60405180910390f35b6101c260048036038101906101bd91906128e5565b6104f6565b6040516101d7999897969594939291906129f2565b60405180910390f35b6101e86107a1565b6040516101f59190612ab4565b60405180910390f35b6102066107c5565b6040516102139190612894565b60405180910390f35b61023660048036038101906102319190612afb565b6107f6565b6040516102439190612ab4565b60405180910390f35b61026660048036038101906102619190612b54565b610816565b005b610282600480360381019061027d9190612b94565b610838565b005b61029e60048036038101906102999190612b54565b61086e565b005b6102a86108e9565b6040516102b59190612dd4565b60405180910390f35b6102d860048036038101906102d391906128e5565b610c89565b005b6102e26110d5565b6040516102ef9190612df6565b60405180910390f35b610300611181565b005b61030a611341565b005b610314611355565b6040516103219190612df6565b60405180910390f35b6103326113f8565b60405161033f9190612ec0565b60405180910390f35b610362600480360381019061035d9190612f0e565b61148d565b005b61036c6119b5565b6040516103799190612f4e565b60405180910390f35b61039c60048036038101906103979190612b54565b6119de565b6040516103a99190612894565b60405180910390f35b6103ba611a49565b6040516103c79190612ab4565b60405180910390f35b6103d8611a50565b6040516103e59190612894565b60405180910390f35b6104086004803603810190610403919061309e565b611aa4565b005b610424600480360381019061041f91906131c1565b611f17565b005b61042e611fa5565b60405161043b9190612894565b60405180910390f35b61045e60048036038101906104599190612b54565b611fe2565b005b61047a60048036038101906104759190612b94565b612004565b005b60007f7965db0b000000000000000000000000000000000000000000000000000000007bffffffffffffffffffffffffffffffffffffffffffffffffffffffff1916827bffffffffffffffffffffffffffffffffffffffffffffffffffffffff191614806104ef57506104ee8261208a565b5b9050919050565b6002818154811061050657600080fd5b90600052602060002090600902016000915090508060000160009054906101000a900473ffffffffffffffffffffffffffffffffffffffff169080600101549080600201805461055590613230565b80601f016020809104026020016040519081016040528092919081815260200182805461058190613230565b80156105ce5780601f106105a3576101008083540402835291602001916105ce565b820191906000526020600020905b8154815290600101906020018083116105b157829003601f168201915b5050505050908060030180546105e390613230565b80601f016020809104026020016040519081016040528092919081815260200182805461060f90613230565b801561065c5780601f106106315761010080835404028352916020019161065c565b820191906000526020600020905b81548152906001019060200180831161063f57829003601f168201915b5050505050908060040160009054906101000a900460ff169080600501549080600601549080600701805461069090613230565b80601f01602080910402602001604051908101604052809291908181526020018280546106bc90613230565b80156107095780601f106106de57610100808354040283529160200191610709565b820191906000526020600020905b8154815290600101906020018083116106ec57829003601f168201915b50505050509080600801805461071e90613230565b80601f016020809104026020016040519081016040528092919081815260200182805461074a90613230565b80156107975780601f1061076c57610100808354040283529160200191610797565b820191906000526020600020905b81548152906001019060200180831161077a57829003601f168201915b5050505050905089565b7fa48c898f5241be426b79d4b5a3c206f9c9a06576e1b72c338c3ec849771d568681565b60006107f17fa48c898f5241be426b79d4b5a3c206f9c9a06576e1b72c338c3ec849771d5686336119de565b905090565b600060016000838152602001908152602001600020600101549050919050565b61081f826107f6565b610828816120f4565b6108328383612108565b50505050565b6108406121f9565b61086a7fa48c898f5241be426b79d4b5a3c206f9c9a06576e1b72c338c3ec849771d568682612108565b5050565b610876612280565b73ffffffffffffffffffffffffffffffffffffffff168173ffffffffffffffffffffffffffffffffffffffff16146108da576040517f6697b23200000000000000000000000000000000000000000000000000000000815260040160405180910390fd5b6108e48282612288565b505050565b60606109157fa48c898f5241be426b79d4b5a3c206f9c9a06576e1b72c338c3ec849771d5686336119de565b610954576040517f08c379a000000000000000000000000000000000000000000000000000000000815260040161094b906132ad565b60405180910390fd5b6002805480602002602001604051908101604052809291908181526020016000905b82821015610c805783829060005260206000209060090201604051806101200160405290816000820160009054906101000a900473ffffffffffffffffffffffffffffffffffffffff1673ffffffffffffffffffffffffffffffffffffffff1673ffffffffffffffffffffffffffffffffffffffff16815260200160018201548152602001600282018054610a0a90613230565b80601f0160208091040260200160405190810160405280929190818152602001828054610a3690613230565b8015610a835780601f10610a5857610100808354040283529160200191610a83565b820191906000526020600020905b815481529060010190602001808311610a6657829003601f168201915b50505050508152602001600382018054610a9c90613230565b80601f0160208091040260200160405190810160405280929190818152602001828054610ac890613230565b8015610b155780601f10610aea57610100808354040283529160200191610b15565b820191906000526020600020905b815481529060010190602001808311610af857829003601f168201915b505050505081526020016004820160009054906101000a900460ff161515151581526020016005820154815260200160068201548152602001600782018054610b5d90613230565b80601f0160208091040260200160405190810160405280929190818152602001828054610b8990613230565b8015610bd65780601f10610bab57610100808354040283529160200191610bd6565b820191906000526020600020905b815481529060010190602001808311610bb957829003601f168201915b50505050508152602001600882018054610bef90613230565b80601f0160208091040260200160405190810160405280929190818152602001828054610c1b90613230565b8015610c685780601f10610c3d57610100808354040283529160200191610c68565b820191906000526020600020905b815481529060010190602001808311610c4b57829003601f168201915b50505050508152505081526020019060010190610976565b50505050905090565b600280549050811115610cd1576040517f08c379a0000000000000000000000000000000000000000000000000000000008152600401610cc890613319565b60405180910390fd5b3373ffffffffffffffffffffffffffffffffffffffff166002600183610cf79190613368565b81548110610d0857610d0761339c565b5b906000526020600020906009020160000160009054906101000a900473ffffffffffffffffffffffffffffffffffffffff1673ffffffffffffffffffffffffffffffffffffffff1614610d90576040517f08c379a0000000000000000000000000000000000000000000000000000000008152600401610d879061343d565b60405180910390fd5b6002600182610d9f9190613368565b81548110610db057610daf61339c565b5b9060005260206000209060090201600501546002600183610dd19190613368565b81548110610de257610de161339c565b5b906000526020600020906009020160060154610dfe919061345d565b42111561102357610e436040518060400160405280600681526020017f484954545454000000000000000000000000000000000000000000000000000081525061237b565b6040518060400160405280600a81526020017f756e617474656e646564000000000000000000000000000000000000000000008152506002600183610e889190613368565b81548110610e9957610e9861339c565b5b90600052602060002090600902016007019081610eb6919061363d565b50610f116002600183610ec99190613368565b81548110610eda57610ed961339c565b5b906000526020600020906009020160000160009054906101000a900473ffffffffffffffffffffffffffffffffffffffff16612414565b6040518060400160405280601281526020017f526577617264207375636365737366756c6c00000000000000000000000000008152506002600183610f569190613368565b81548110610f6757610f6661339c565b5b90600052602060002090600902016008019081610f84919061363d565b507f69633d2671bb8c2b303d5a46d471ce695817434f9bb15943539c4016831e47826002600183610fb59190613368565b81548110610fc657610fc561339c565b5b90600052602060002090600902016007016002600184610fe69190613368565b81548110610ff757610ff661339c565b5b9060005260206000209060090201600801604051611016929190613793565b60405180910390a16110d2565b6040518060400160405280600781526020017f70656e64696e670000000000000000000000000000000000000000000000000081525060026001836110689190613368565b815481106110795761107861339c565b5b90600052602060002090600902016008019081611096919061363d565b506040517f08c379a00000000000000000000000000000000000000000000000000000000081526004016110c990613816565b60405180910390fd5b50565b60006110e033612549565b600660009054906101000a900473ffffffffffffffffffffffffffffffffffffffff1673ffffffffffffffffffffffffffffffffffffffff166370a08231336040518263ffffffff1660e01b815260040161113b9190612f4e565b602060405180830381865afa158015611158573d6000803e3d6000fd5b505050506040513d601f19601f8201168201806040525081019061117c919061384b565b905090565b60001515600460003373ffffffffffffffffffffffffffffffffffffffff1673ffffffffffffffffffffffffffffffffffffffff16815260200190815260200160002060009054906101000a900460ff16151514611214576040517f08c379a000000000000000000000000000000000000000000000000000000000815260040161120b906138c4565b60405180910390fd5b6001600460003373ffffffffffffffffffffffffffffffffffffffff1673ffffffffffffffffffffffffffffffffffffffff16815260200190815260200160002060006101000a81548160ff021916908315150217905550600660009054906101000a900473ffffffffffffffffffffffffffffffffffffffff1673ffffffffffffffffffffffffffffffffffffffff166340c10f1933600a6040518363ffffffff1660e01b81526004016112ca92919061391f565b600060405180830381600087803b1580156112e457600080fd5b505af11580156112f8573d6000803e3d6000fd5b505050503373ffffffffffffffffffffffffffffffffffffffff167fb7ef386d3c6dc080c6176a3903ca6fcdd0add9272221b4866b01a6514564b09960405160405180910390a2565b6113496121f9565b61135360006125e2565b565b6000600760009054906101000a900473ffffffffffffffffffffffffffffffffffffffff1673ffffffffffffffffffffffffffffffffffffffff166370a08231336040518263ffffffff1660e01b81526004016113b29190612f4e565b602060405180830381865afa1580156113cf573d6000803e3d6000fd5b505050506040513d601f19601f820116820180604052508101906113f3919061384b565b905090565b6060600560003373ffffffffffffffffffffffffffffffffffffffff1673ffffffffffffffffffffffffffffffffffffffff16815260200190815260200160002080548060200260200160405190810160405280929190818152602001828054801561148357602002820191906000526020600020905b81548152602001906001019080831161146f575b5050505050905090565b6114b77fa48c898f5241be426b79d4b5a3c206f9c9a06576e1b72c338c3ec849771d5686336119de565b6114f6576040517f08c379a00000000000000000000000000000000000000000000000000000000081526004016114ed906132ad565b60405180910390fd5b60028054905081111561153e576040517f08c379a000000000000000000000000000000000000000000000000000000000815260040161153590613319565b60405180910390fd5b6040518060400160405280600781526020017f70656e64696e670000000000000000000000000000000000000000000000000081525080519060200120600260018361158a9190613368565b8154811061159b5761159a61339c565b5b90600052602060002090600902016007016040516115b991906139eb565b604051809103902014611601576040517f08c379a00000000000000000000000000000000000000000000000000000000081526004016115f890613a4e565b60405180910390fd5b8160026001836116119190613368565b815481106116225761162161339c565b5b906000526020600020906009020160040160006101000a81548160ff0219169083151502179055508161182f576040518060400160405280600981526020017f636f6d706c65746564000000000000000000000000000000000000000000000081525060026001836116949190613368565b815481106116a5576116a461339c565b5b906000526020600020906009020160070190816116c2919061363d565b5061171d60026001836116d59190613368565b815481106116e6576116e561339c565b5b906000526020600020906009020160000160009054906101000a900473ffffffffffffffffffffffffffffffffffffffff16612414565b6040518060400160405280601281526020017f526577617264207375636365737366756c6c000000000000000000000000000081525060026001836117629190613368565b815481106117735761177261339c565b5b90600052602060002090600902016008019081611790919061363d565b507f69633d2671bb8c2b303d5a46d471ce695817434f9bb15943539c4016831e478260026001836117c19190613368565b815481106117d2576117d161339c565b5b906000526020600020906009020160070160026001846117f29190613368565b815481106118035761180261339c565b5b9060005260206000209060090201600801604051611822929190613793565b60405180910390a16119b1565b6040518060400160405280600a81526020017f66616b652069737375650000000000000000000000000000000000000000000081525060026001836118749190613368565b815481106118855761188461339c565b5b906000526020600020906009020160070190816118a2919061363d565b506040518060400160405280601781526020017f7374616b6520636f696e20697320676f6e65203a5d5d2000000000000000000081525060026001836118e89190613368565b815481106118f9576118f861339c565b5b90600052602060002090600902016008019081611916919061363d565b507f69633d2671bb8c2b303d5a46d471ce695817434f9bb15943539c4016831e478260026001836119479190613368565b815481106119585761195761339c565b5b906000526020600020906009020160070160026001846119789190613368565b815481106119895761198861339c565b5b90600052602060002090600902016008016040516119a8929190613793565b60405180910390a15b5050565b60008060009054906101000a900473ffffffffffffffffffffffffffffffffffffffff16905090565b60006001600084815260200190815260200160002060000160008373ffffffffffffffffffffffffffffffffffffffff1673ffffffffffffffffffffffffffffffffffffffff16815260200190815260200160002060009054906101000a900460ff16905092915050565b6000801b81565b6000600460003373ffffffffffffffffffffffffffffffffffffffff1673ffffffffffffffffffffffffffffffffffffffff16815260200190815260200160002060009054906101000a900460ff16905090565b611aad33612549565b611ab630612549565b600660009054906101000a900473ffffffffffffffffffffffffffffffffffffffff1673ffffffffffffffffffffffffffffffffffffffff1663095ea7b33060056040518363ffffffff1660e01b8152600401611b14929190613aa9565b6020604051808303816000875af1158015611b33573d6000803e3d6000fd5b505050506040513d601f19601f82011682018060405250810190611b579190613ae7565b50600660009054906101000a900473ffffffffffffffffffffffffffffffffffffffff1673ffffffffffffffffffffffffffffffffffffffff166323b872dd33306008546040518463ffffffff1660e01b8152600401611bb993929190613b14565b6020604051808303816000875af1158015611bd8573d6000803e3d6000fd5b505050506040513d601f19601f82011682018060405250810190611bfc9190613ae7565b611c3b576040517f08c379a0000000000000000000000000000000000000000000000000000000008152600401611c3290613bbd565b60405180910390fd5b6000600384604051611c4d9190613c19565b908152602001604051809103902060009054906101000a900460ff1660ff169050611c7c6002805490506126a6565b60006040518061012001604052803373ffffffffffffffffffffffffffffffffffffffff1681526020016001600280549050611cb8919061345d565b81526020018581526020018481526020016000151581526020018381526020014281526020016040518060400160405280600781526020017f70656e64696e670000000000000000000000000000000000000000000000000081525081526020016040518060400160405280600781526020017f70656e64696e67000000000000000000000000000000000000000000000000008152508152509050600560003373ffffffffffffffffffffffffffffffffffffffff1673ffffffffffffffffffffffffffffffffffffffff1681526020019081526020016000206001600280549050611da5919061345d565b9080600181540180825580915050600190039060005260206000200160009091909190915055600281908060018154018082558091505060019003906000526020600020906009020160009091909190915060008201518160000160006101000a81548173ffffffffffffffffffffffffffffffffffffffff021916908373ffffffffffffffffffffffffffffffffffffffff160217905550602082015181600101556040820151816002019081611e5d919061363d565b506060820151816003019081611e73919061363d565b5060808201518160040160006101000a81548160ff02191690831515021790555060a0820151816005015560c0820151816006015560e0820151816007019081611ebd919061363d565b50610100820151816008019081611ed4919061363d565b5050507fd7581ce2bb3a8c58c90eb3ec4c2b35e69644c0930b100296d4b065907c844fbc8183604051611f08929190613d56565b60405180910390a15050505050565b611f1f6121f9565b81600660006101000a81548173ffffffffffffffffffffffffffffffffffffffff021916908373ffffffffffffffffffffffffffffffffffffffff16021790555080600760006101000a81548173ffffffffffffffffffffffffffffffffffffffff021916908373ffffffffffffffffffffffffffffffffffffffff1602179055505050565b6000611faf6119b5565b73ffffffffffffffffffffffffffffffffffffffff163373ffffffffffffffffffffffffffffffffffffffff1614905090565b611feb826107f6565b611ff4816120f4565b611ffe8383612288565b50505050565b61200c6121f9565b600073ffffffffffffffffffffffffffffffffffffffff168173ffffffffffffffffffffffffffffffffffffffff160361207e5760006040517f1e4fbdf70000000000000000000000000000000000000000000000000000000081526004016120759190612f4e565b60405180910390fd5b612087816125e2565b50565b60007f01ffc9a7000000000000000000000000000000000000000000000000000000007bffffffffffffffffffffffffffffffffffffffffffffffffffffffff1916827bffffffffffffffffffffffffffffffffffffffffffffffffffffffff1916149050919050565b61210581612100612280565b61273f565b50565b600061211483836119de565b6121ee57600180600085815260200190815260200160002060000160008473ffffffffffffffffffffffffffffffffffffffff1673ffffffffffffffffffffffffffffffffffffffff16815260200190815260200160002060006101000a81548160ff02191690831515021790555061218b612280565b73ffffffffffffffffffffffffffffffffffffffff168273ffffffffffffffffffffffffffffffffffffffff16847f2f8788117e7eff1d82e926ec794901d17c78024a50270940304540a733656f0d60405160405180910390a4600190506121f3565b600090505b92915050565b612201612280565b73ffffffffffffffffffffffffffffffffffffffff1661221f6119b5565b73ffffffffffffffffffffffffffffffffffffffff161461227e57612242612280565b6040517f118cdaa70000000000000000000000000000000000000000000000000000000081526004016122759190612f4e565b60405180910390fd5b565b600033905090565b600061229483836119de565b156123705760006001600085815260200190815260200160002060000160008473ffffffffffffffffffffffffffffffffffffffff1673ffffffffffffffffffffffffffffffffffffffff16815260200190815260200160002060006101000a81548160ff02191690831515021790555061230d612280565b73ffffffffffffffffffffffffffffffffffffffff168273ffffffffffffffffffffffffffffffffffffffff16847ff6391f5c32d9c69d2a47ea670b442974b53935d1edc7fd64eb21e047a839171b60405160405180910390a460019050612375565b600090505b92915050565b6124118160405160240161238f9190613d99565b6040516020818303038152906040527f41304fac000000000000000000000000000000000000000000000000000000007bffffffffffffffffffffffffffffffffffffffffffffffffffffffff19166020820180517bffffffffffffffffffffffffffffffffffffffffffffffffffffffff8381831617835250505050612790565b50565b600660009054906101000a900473ffffffffffffffffffffffffffffffffffffffff1673ffffffffffffffffffffffffffffffffffffffff1663a9059cbb8260056040518363ffffffff1660e01b8152600401612472929190613aa9565b6020604051808303816000875af1158015612491573d6000803e3d6000fd5b505050506040513d601f19601f820116820180604052508101906124b59190613ae7565b50600760009054906101000a900473ffffffffffffffffffffffffffffffffffffffff1673ffffffffffffffffffffffffffffffffffffffff166340c10f198260026040518363ffffffff1660e01b8152600401612514929190613df6565b600060405180830381600087803b15801561252e57600080fd5b505af1158015612542573d6000803e3d6000fd5b5050505050565b6125df8160405160240161255d9190612f4e565b6040516020818303038152906040527f2c2ecbc2000000000000000000000000000000000000000000000000000000007bffffffffffffffffffffffffffffffffffffffffffffffffffffffff19166020820180517bffffffffffffffffffffffffffffffffffffffffffffffffffffffff8381831617835250505050612790565b50565b60008060009054906101000a900473ffffffffffffffffffffffffffffffffffffffff169050816000806101000a81548173ffffffffffffffffffffffffffffffffffffffff021916908373ffffffffffffffffffffffffffffffffffffffff1602179055508173ffffffffffffffffffffffffffffffffffffffff168173ffffffffffffffffffffffffffffffffffffffff167f8be0079c531659141344cd1fd0a4f28419497f9722a3daafe3b4186f6b6457e060405160405180910390a35050565b61273c816040516024016126ba9190612df6565b6040516020818303038152906040527ff82c50f1000000000000000000000000000000000000000000000000000000007bffffffffffffffffffffffffffffffffffffffffffffffffffffffff19166020820180517bffffffffffffffffffffffffffffffffffffffffffffffffffffffff8381831617835250505050612790565b50565b61274982826119de565b61278c5780826040517fe2517d3f000000000000000000000000000000000000000000000000000000008152600401612783929190613e1f565b60405180910390fd5b5050565b6127a78161279f6127aa6127cb565b63ffffffff16565b50565b60006a636f6e736f6c652e6c6f679050600080835160208501845afa505050565b6127d6819050919050565b6127de613e48565b565b6000604051905090565b600080fd5b600080fd5b60007fffffffff0000000000000000000000000000000000000000000000000000000082169050919050565b612829816127f4565b811461283457600080fd5b50565b60008135905061284681612820565b92915050565b600060208284031215612862576128616127ea565b5b600061287084828501612837565b91505092915050565b60008115159050919050565b61288e81612879565b82525050565b60006020820190506128a96000830184612885565b92915050565b6000819050919050565b6128c2816128af565b81146128cd57600080fd5b50565b6000813590506128df816128b9565b92915050565b6000602082840312156128fb576128fa6127ea565b5b6000612909848285016128d0565b91505092915050565b600073ffffffffffffffffffffffffffffffffffffffff82169050919050565b600061293d82612912565b9050919050565b61294d81612932565b82525050565b61295c816128af565b82525050565b600081519050919050565b600082825260208201905092915050565b60005b8381101561299c578082015181840152602081019050612981565b60008484015250505050565b6000601f19601f8301169050919050565b60006129c482612962565b6129ce818561296d565b93506129de81856020860161297e565b6129e7816129a8565b840191505092915050565b600061012082019050612a08600083018c612944565b612a15602083018b612953565b8181036040830152612a27818a6129b9565b90508181036060830152612a3b81896129b9565b9050612a4a6080830188612885565b612a5760a0830187612953565b612a6460c0830186612953565b81810360e0830152612a7681856129b9565b9050818103610100830152612a8b81846129b9565b90509a9950505050505050505050565b6000819050919050565b612aae81612a9b565b82525050565b6000602082019050612ac96000830184612aa5565b92915050565b612ad881612a9b565b8114612ae357600080fd5b50565b600081359050612af581612acf565b92915050565b600060208284031215612b1157612b106127ea565b5b6000612b1f84828501612ae6565b91505092915050565b612b3181612932565b8114612b3c57600080fd5b50565b600081359050612b4e81612b28565b92915050565b60008060408385031215612b6b57612b6a6127ea565b5b6000612b7985828601612ae6565b9250506020612b8a85828601612b3f565b9150509250929050565b600060208284031215612baa57612ba96127ea565b5b6000612bb884828501612b3f565b91505092915050565b600081519050919050565b600082825260208201905092915050565b6000819050602082019050919050565b612bf681612932565b82525050565b612c05816128af565b82525050565b600082825260208201905092915050565b6000612c2782612962565b612c318185612c0b565b9350612c4181856020860161297e565b612c4a816129a8565b840191505092915050565b612c5e81612879565b82525050565b600061012083016000830151612c7d6000860182612bed565b506020830151612c906020860182612bfc565b5060408301518482036040860152612ca88282612c1c565b91505060608301518482036060860152612cc28282612c1c565b9150506080830151612cd76080860182612c55565b5060a0830151612cea60a0860182612bfc565b5060c0830151612cfd60c0860182612bfc565b5060e083015184820360e0860152612d158282612c1c565b915050610100830151848203610100860152612d318282612c1c565b9150508091505092915050565b6000612d4a8383612c64565b905092915050565b6000602082019050919050565b6000612d6a82612bc1565b612d748185612bcc565b935083602082028501612d8685612bdd565b8060005b85811015612dc25784840389528151612da38582612d3e565b9450612dae83612d52565b925060208a01995050600181019050612d8a565b50829750879550505050505092915050565b60006020820190508181036000830152612dee8184612d5f565b905092915050565b6000602082019050612e0b6000830184612953565b92915050565b600081519050919050565b600082825260208201905092915050565b6000819050602082019050919050565b6000612e498383612bfc565b60208301905092915050565b6000602082019050919050565b6000612e6d82612e11565b612e778185612e1c565b9350612e8283612e2d565b8060005b83811015612eb3578151612e9a8882612e3d565b9750612ea583612e55565b925050600181019050612e86565b5085935050505092915050565b60006020820190508181036000830152612eda8184612e62565b905092915050565b612eeb81612879565b8114612ef657600080fd5b50565b600081359050612f0881612ee2565b92915050565b60008060408385031215612f2557612f246127ea565b5b6000612f3385828601612ef9565b9250506020612f44858286016128d0565b9150509250929050565b6000602082019050612f636000830184612944565b92915050565b600080fd5b600080fd5b7f4e487b7100000000000000000000000000000000000000000000000000000000600052604160045260246000fd5b612fab826129a8565b810181811067ffffffffffffffff82111715612fca57612fc9612f73565b5b80604052505050565b6000612fdd6127e0565b9050612fe98282612fa2565b919050565b600067ffffffffffffffff82111561300957613008612f73565b5b613012826129a8565b9050602081019050919050565b82818337600083830152505050565b600061304161303c84612fee565b612fd3565b90508281526020810184848401111561305d5761305c612f6e565b5b61306884828561301f565b509392505050565b600082601f83011261308557613084612f69565b5b813561309584826020860161302e565b91505092915050565b6000806000606084860312156130b7576130b66127ea565b5b600084013567ffffffffffffffff8111156130d5576130d46127ef565b5b6130e186828701613070565b935050602084013567ffffffffffffffff811115613102576131016127ef565b5b61310e86828701613070565b925050604084013567ffffffffffffffff81111561312f5761312e6127ef565b5b61313b86828701613070565b9150509250925092565b600061315082612932565b9050919050565b61316081613145565b811461316b57600080fd5b50565b60008135905061317d81613157565b92915050565b600061318e82612932565b9050919050565b61319e81613183565b81146131a957600080fd5b50565b6000813590506131bb81613195565b92915050565b600080604083850312156131d8576131d76127ea565b5b60006131e68582860161316e565b92505060206131f7858286016131ac565b9150509250929050565b7f4e487b7100000000000000000000000000000000000000000000000000000000600052602260045260246000fd5b6000600282049050600182168061324857607f821691505b60208210810361325b5761325a613201565b5b50919050565b7f43616c6c6572206973206e6f7420612056455249464945520000000000000000600082015250565b600061329760188361296d565b91506132a282613261565b602082019050919050565b600060208201905081810360008301526132c68161328a565b9050919050565b7f496e76616c696420697373756520494400000000000000000000000000000000600082015250565b600061330360108361296d565b915061330e826132cd565b602082019050919050565b60006020820190508181036000830152613332816132f6565b9050919050565b7f4e487b7100000000000000000000000000000000000000000000000000000000600052601160045260246000fd5b6000613373826128af565b915061337e836128af565b925082820390508181111561339657613395613339565b5b92915050565b7f4e487b7100000000000000000000000000000000000000000000000000000000600052603260045260246000fd5b7f596f7520617265206e6f7420746865206f776e6572206f66207468652069737360008201527f7565210000000000000000000000000000000000000000000000000000000000602082015250565b600061342760238361296d565b9150613432826133cb565b604082019050919050565b600060208201905081810360008301526134568161341a565b9050919050565b6000613468826128af565b9150613473836128af565b925082820190508082111561348b5761348a613339565b5b92915050565b60008190508160005260206000209050919050565b60006020601f8301049050919050565b600082821b905092915050565b6000600883026134f37fffffffffffffffffffffffffffffffffffffffffffffffffffffffffffffffff826134b6565b6134fd86836134b6565b95508019841693508086168417925050509392505050565b6000819050919050565b600061353a613535613530846128af565b613515565b6128af565b9050919050565b6000819050919050565b6135548361351f565b61356861356082613541565b8484546134c3565b825550505050565b600090565b61357d613570565b61358881848461354b565b505050565b5b818110156135ac576135a1600082613575565b60018101905061358e565b5050565b601f8211156135f1576135c281613491565b6135cb846134a6565b810160208510156135da578190505b6135ee6135e6856134a6565b83018261358d565b50505b505050565b600082821c905092915050565b6000613614600019846008026135f6565b1980831691505092915050565b600061362d8383613603565b9150826002028217905092915050565b61364682612962565b67ffffffffffffffff81111561365f5761365e612f73565b5b6136698254613230565b6136748282856135b0565b600060209050601f8311600181146136a75760008415613695578287015190505b61369f8582613621565b865550613707565b601f1984166136b586613491565b60005b828110156136dd578489015182556001820191506020850194506020810190506136b8565b868310156136fa57848901516136f6601f891682613603565b8355505b6001600288020188555050505b505050505050565b6000815461371c81613230565b613726818661296d565b9450600182166000811461374157600181146137575761378a565b60ff19831686528115156020028601935061378a565b61376085613491565b60005b8381101561378257815481890152600182019150602081019050613763565b808801955050505b50505092915050565b600060408201905081810360008301526137ad818561370f565b905081810360208301526137c1818461370f565b90509392505050565b7f5374617475732050656e64696e67210000000000000000000000000000000000600082015250565b6000613800600f8361296d565b915061380b826137ca565b602082019050919050565b6000602082019050818103600083015261382f816137f3565b9050919050565b600081519050613845816128b9565b92915050565b600060208284031215613861576138606127ea565b5b600061386f84828501613836565b91505092915050565b7f596f752061726520616c726561647920612075736572203b5b5b000000000000600082015250565b60006138ae601a8361296d565b91506138b982613878565b602082019050919050565b600060208201905081810360008301526138dd816138a1565b9050919050565b6000819050919050565b60006139096139046138ff846138e4565b613515565b6128af565b9050919050565b613919816138ee565b82525050565b60006040820190506139346000830185612944565b6139416020830184613910565b9392505050565b600081905092915050565b60008190508160005260206000209050919050565b6000815461397581613230565b61397f8186613948565b9450600182166000811461399a57600181146139af576139e2565b60ff19831686528115158202860193506139e2565b6139b885613953565b60005b838110156139da578154818901526001820191506020810190506139bb565b838801955050505b50505092915050565b60006139f78284613968565b915081905092915050565b7f497373756520616c726561647920766572696669656400000000000000000000600082015250565b6000613a3860168361296d565b9150613a4382613a02565b602082019050919050565b60006020820190508181036000830152613a6781613a2b565b9050919050565b6000819050919050565b6000613a93613a8e613a8984613a6e565b613515565b6128af565b9050919050565b613aa381613a78565b82525050565b6000604082019050613abe6000830185612944565b613acb6020830184613a9a565b9392505050565b600081519050613ae181612ee2565b92915050565b600060208284031215613afd57613afc6127ea565b5b6000613b0b84828501613ad2565b91505092915050565b6000606082019050613b296000830186612944565b613b366020830185612944565b613b436040830184612953565b949350505050565b7f594f5520444f4e2754204841564520454e4f554748205354414b4520434f494e60008201527f5300000000000000000000000000000000000000000000000000000000000000602082015250565b6000613ba760218361296d565b9150613bb282613b4b565b604082019050919050565b60006020820190508181036000830152613bd681613b9a565b9050919050565b600081905092915050565b6000613bf382612962565b613bfd8185613bdd565b9350613c0d81856020860161297e565b80840191505092915050565b6000613c258284613be8565b915081905092915050565b600061012083016000830151613c496000860182612bed565b506020830151613c5c6020860182612bfc565b5060408301518482036040860152613c748282612c1c565b91505060608301518482036060860152613c8e8282612c1c565b9150506080830151613ca36080860182612c55565b5060a0830151613cb660a0860182612bfc565b5060c0830151613cc960c0860182612bfc565b5060e083015184820360e0860152613ce18282612c1c565b915050610100830151848203610100860152613cfd8282612c1c565b9150508091505092915050565b7f70656e64696e6700000000000000000000000000000000000000000000000000600082015250565b6000613d4060078361296d565b9150613d4b82613d0a565b602082019050919050565b60006060820190508181036000830152613d708185613c30565b9050613d7f6020830184612953565b8181036040830152613d9081613d33565b90509392505050565b60006020820190508181036000830152613db381846129b9565b905092915050565b6000819050919050565b6000613de0613ddb613dd684613dbb565b613515565b6128af565b9050919050565b613df081613dc5565b82525050565b6000604082019050613e0b6000830185612944565b613e186020830184613de7565b9392505050565b6000604082019050613e346000830185612944565b613e416020830184612aa5565b9392505050565b7f4e487b7100000000000000000000000000000000000000000000000000000000600052605160045260246000fdfea264697066735822122018447d471d817941515ebe516ab1d29bbceecfac84736c2b98158cc30a1f846764736f6c63430008180033",
  "linkReferences": {},
  "deployedLinkReferences": {}
}