{
  "_format": "hh-sol-artifact-1",
  "contractName": "Bluexross",
  "sourceName": "contracts/Bluexross.sol",
  "abi": [
    {
      "inputs": [],
      "stateMutability": "nonpayable",
      "type": "constructor"
    },
    {
      "inputs": [],
      "name": "AccessControlBadConfirmation",
      "type": "error"
    },
    {
      "inputs": [
        {
          "internalType": "address",
          "name": "account",
          "type": "address"
        },
        {
          "internalType": "bytes32",
          "name": "neededRole",
          "type": "bytes32"
        }
      ],
      "name": "AccessControlUnauthorizedAccount",
      "type": "error"
    },
    {
      "inputs": [
        {
          "internalType": "address",
          "name": "owner",
          "type": "address"
        }
      ],
      "name": "OwnableInvalidOwner",
      "type": "error"
    },
    {
      "inputs": [
        {
          "internalType": "address",
          "name": "account",
          "type": "address"
        }
      ],
      "name": "OwnableUnauthorizedAccount",
      "type": "error"
    },
    {
      "anonymous": false,
      "inputs": [
        {
          "components": [
            {
              "internalType": "address",
              "name": "user",
              "type": "address"
            },
            {
              "internalType": "uint256",
              "name": "Id",
              "type": "uint256"
            },
            {
              "internalType": "string",
              "name": "phoneno",
              "type": "string"
            },
            {
              "internalType": "string",
              "name": "addres",
              "type": "string"
            },
            {
              "internalType": "bool",
              "name": "fakeissue",
              "type": "bool"
            },
            {
              "internalType": "uint256",
              "name": "time",
              "type": "uint256"
            },
            {
              "internalType": "uint256",
              "name": "timestamp",
              "type": "uint256"
            },
            {
              "internalType": "string",
              "name": "status",
              "type": "string"
            },
            {
              "internalType": "string",
              "name": "rewardstatus",
              "type": "string"
            }
          ],
          "indexed": false,
          "internalType": "struct Bluexross.Issue",
          "name": "_issue",
          "type": "tuple"
        },
        {
          "indexed": false,
          "internalType": "uint256",
          "name": "Time",
          "type": "uint256"
        },
        {
          "indexed": false,
          "internalType": "string",
          "name": "status",
          "type": "string"
        }
      ],
      "name": "IssueRised",
      "type": "event"
    },
    {
      "anonymous": false,
      "inputs": [
        {
          "indexed": true,
          "internalType": "address",
          "name": "previousOwner",
          "type": "address"
        },
        {
          "indexed": true,
          "internalType": "address",
          "name": "newOwner",
          "type": "address"
        }
      ],
      "name": "OwnershipTransferred",
      "type": "event"
    },
    {
      "anonymous": false,
      "inputs": [
        {
          "indexed": true,
          "internalType": "bytes32",
          "name": "role",
          "type": "bytes32"
        },
        {
          "indexed": true,
          "internalType": "bytes32",
          "name": "previousAdminRole",
          "type": "bytes32"
        },
        {
          "indexed": true,
          "internalType": "bytes32",
          "name": "newAdminRole",
          "type": "bytes32"
        }
      ],
      "name": "RoleAdminChanged",
      "type": "event"
    },
    {
      "anonymous": false,
      "inputs": [
        {
          "indexed": true,
          "internalType": "bytes32",
          "name": "role",
          "type": "bytes32"
        },
        {
          "indexed": true,
          "internalType": "address",
          "name": "account",
          "type": "address"
        },
        {
          "indexed": true,
          "internalType": "address",
          "name": "sender",
          "type": "address"
        }
      ],
      "name": "RoleGranted",
      "type": "event"
    },
    {
      "anonymous": false,
      "inputs": [
        {
          "indexed": true,
          "internalType": "bytes32",
          "name": "role",
          "type": "bytes32"
        },
        {
          "indexed": true,
          "internalType": "address",
          "name": "account",
          "type": "address"
        },
        {
          "indexed": true,
          "internalType": "address",
          "name": "sender",
          "type": "address"
        }
      ],
      "name": "RoleRevoked",
      "type": "event"
    },
    {
      "anonymous": false,
      "inputs": [
        {
          "indexed": false,
          "internalType": "string",
          "name": "status",
          "type": "string"
        },
        {
          "indexed": false,
          "internalType": "string",
          "name": "Rewardstatus",
          "type": "string"
        }
      ],
      "name": "Status",
      "type": "event"
    },
    {
      "anonymous": false,
      "inputs": [
        {
          "indexed": true,
          "internalType": "address",
          "name": "_user",
          "type": "address"
        }
      ],
      "name": "newuser",
      "type": "event"
    },
    {
      "inputs": [
        {
          "internalType": "uint256",
          "name": "id",
          "type": "uint256"
        }
      ],
      "name": "CheckAndReward",
      "outputs": [],
      "stateMutability": "nonpayable",
      "type": "function"
    },
    {
      "inputs": [],
      "name": "DEFAULT_ADMIN_ROLE",
      "outputs": [
        {
          "internalType": "bytes32",
          "name": "",
          "type": "bytes32"
        }
      ],
      "stateMutability": "view",
      "type": "function"
    },
    {
      "inputs": [
        {
          "internalType": "address",
          "name": "_Verifier",
          "type": "address"
        }
      ],
      "name": "GrantVerifyAccess",
      "outputs": [],
      "stateMutability": "nonpayable",
      "type": "function"
    },
    {
      "inputs": [
        {
          "internalType": "contract StakeTokens",
          "name": "_stakecoins",
          "type": "address"
        },
        {
          "internalType": "contract RewardTokens",
          "name": "_rewardcoins",
          "type": "address"
        }
      ],
      "name": "InitialiseCoins",
      "outputs": [],
      "stateMutability": "nonpayable",
      "type": "function"
    },
    {
      "inputs": [
        {
          "internalType": "string",
          "name": "rescuetype",
          "type": "string"
        },
        {
          "internalType": "string",
          "name": "phoneNo",
          "type": "string"
        },
        {
          "internalType": "string",
          "name": "addres",
          "type": "string"
        }
      ],
      "name": "IssueRescue",
      "outputs": [],
      "stateMutability": "nonpayable",
      "type": "function"
    },
    {
      "inputs": [
        {
          "internalType": "bool",
          "name": "issueDetail",
          "type": "bool"
        },
        {
          "internalType": "uint256",
          "name": "id",
          "type": "uint256"
        }
      ],
      "name": "IssueVerify",
      "outputs": [],
      "stateMutability": "nonpayable",
      "type": "function"
    },
    {
      "inputs": [],
      "name": "VERIFIER",
      "outputs": [
        {
          "internalType": "bytes32",
          "name": "",
          "type": "bytes32"
        }
      ],
      "stateMutability": "view",
      "type": "function"
    },
    {
      "inputs": [],
      "name": "getCheckAndReward",
      "outputs": [
        {
          "internalType": "uint256[]",
          "name": "",
          "type": "uint256[]"
        }
      ],
      "stateMutability": "view",
      "type": "function"
    },
    {
      "inputs": [],
      "name": "getIssues",
      "outputs": [
        {
          "components": [
            {
              "internalType": "address",
              "name": "user",
              "type": "address"
            },
            {
              "internalType": "uint256",
              "name": "Id",
              "type": "uint256"
            },
            {
              "internalType": "string",
              "name": "phoneno",
              "type": "string"
            },
            {
              "internalType": "string",
              "name": "addres",
              "type": "string"
            },
            {
              "internalType": "bool",
              "name": "fakeissue",
              "type": "bool"
            },
            {
              "internalType": "uint256",
              "name": "time",
              "type": "uint256"
            },
            {
              "internalType": "uint256",
              "name": "timestamp",
              "type": "uint256"
            },
            {
              "internalType": "string",
              "name": "status",
              "type": "string"
            },
            {
              "internalType": "string",
              "name": "rewardstatus",
              "type": "string"
            }
          ],
          "internalType": "struct Bluexross.Issue[]",
          "name": "",
          "type": "tuple[]"
        }
      ],
      "stateMutability": "view",
      "type": "function"
    },
    {
      "inputs": [
        {
          "internalType": "bytes32",
          "name": "role",
          "type": "bytes32"
        }
      ],
      "name": "getRoleAdmin",
      "outputs": [
        {
          "internalType": "bytes32",
          "name": "",
          "type": "bytes32"
        }
      ],
      "stateMutability": "view",
      "type": "function"
    },
    {
      "inputs": [],
      "name": "getrewardbalance",
      "outputs": [
        {
          "internalType": "uint256",
          "name": "",
          "type": "uint256"
        }
      ],
      "stateMutability": "view",
      "type": "function"
    },
    {
      "inputs": [],
      "name": "getstakebalance",
      "outputs": [
        {
          "internalType": "uint256",
          "name": "",
          "type": "uint256"
        }
      ],
      "stateMutability": "view",
      "type": "function"
    },
    {
      "inputs": [
        {
          "internalType": "bytes32",
          "name": "role",
          "type": "bytes32"
        },
        {
          "internalType": "address",
          "name": "account",
          "type": "address"
        }
      ],
      "name": "grantRole",
      "outputs": [],
      "stateMutability": "nonpayable",
      "type": "function"
    },
    {
      "inputs": [
        {
          "internalType": "bytes32",
          "name": "role",
          "type": "bytes32"
        },
        {
          "internalType": "address",
          "name": "account",
          "type": "address"
        }
      ],
      "name": "hasRole",
      "outputs": [
        {
          "internalType": "bool",
          "name": "",
          "type": "bool"
        }
      ],
      "stateMutability": "view",
      "type": "function"
    },
    {
      "inputs": [
        {
          "internalType": "uint256",
          "name": "",
          "type": "uint256"
        }
      ],
      "name": "issues",
      "outputs": [
        {
          "internalType": "address",
          "name": "user",
          "type": "address"
        },
        {
          "internalType": "uint256",
          "name": "Id",
          "type": "uint256"
        },
        {
          "internalType": "string",
          "name": "phoneno",
          "type": "string"
        },
        {
          "internalType": "string",
          "name": "addres",
          "type": "string"
        },
        {
          "internalType": "bool",
          "name": "fakeissue",
          "type": "bool"
        },
        {
          "internalType": "uint256",
          "name": "time",
          "type": "uint256"
        },
        {
          "internalType": "uint256",
          "name": "timestamp",
          "type": "uint256"
        },
        {
          "internalType": "string",
          "name": "status",
          "type": "string"
        },
        {
          "internalType": "string",
          "name": "rewardstatus",
          "type": "string"
        }
      ],
      "stateMutability": "view",
      "type": "function"
    },
    {
      "inputs": [],
      "name": "newUser",
      "outputs": [],
      "stateMutability": "nonpayable",
      "type": "function"
    },
    {
      "inputs": [],
      "name": "owner",
      "outputs": [
        {
          "internalType": "address",
          "name": "",
          "type": "address"
        }
      ],
      "stateMutability": "view",
      "type": "function"
    },
    {
      "inputs": [],
      "name": "renounceOwnership",
      "outputs": [],
      "stateMutability": "nonpayable",
      "type": "function"
    },
    {
      "inputs": [
        {
          "internalType": "bytes32",
          "name": "role",
          "type": "bytes32"
        },
        {
          "internalType": "address",
          "name": "callerConfirmation",
          "type": "address"
        }
      ],
      "name": "renounceRole",
      "outputs": [],
      "stateMutability": "nonpayable",
      "type": "function"
    },
    {
      "inputs": [
        {
          "internalType": "bytes32",
          "name": "role",
          "type": "bytes32"
        },
        {
          "internalType": "address",
          "name": "account",
          "type": "address"
        }
      ],
      "name": "revokeRole",
      "outputs": [],
      "stateMutability": "nonpayable",
      "type": "function"
    },
    {
      "inputs": [
        {
          "internalType": "bytes4",
          "name": "interfaceId",
          "type": "bytes4"
        }
      ],
      "name": "supportsInterface",
      "outputs": [
        {
          "internalType": "bool",
          "name": "",
          "type": "bool"
        }
      ],
      "stateMutability": "view",
      "type": "function"
    },
    {
      "inputs": [
        {
          "internalType": "address",
          "name": "newOwner",
          "type": "address"
        }
      ],
      "name": "transferOwnership",
      "outputs": [],
      "stateMutability": "nonpayable",
      "type": "function"
    }
  ],
  "bytecode": "0x608060405260056008553480156200001657600080fd5b5033600073ffffffffffffffffffffffffffffffffffffffff168173ffffffffffffffffffffffffffffffffffffffff16036200008d5760006040517f1e4fbdf70000000000000000000000000000000000000000000000000000000081526004016200008491906200028e565b60405180910390fd5b6200009e816200018560201b60201c565b50603c6003604051620000b19062000306565b908152602001604051809103902060006101000a81548160ff021916908360ff16021790555060786003604051620000e9906200036d565b908152602001604051809103902060006101000a81548160ff021916908360ff16021790555060b460036040516200012190620003d4565b908152602001604051809103902060006101000a81548160ff021916908360ff16021790555060f0600360405162000159906200043b565b908152602001604051809103902060006101000a81548160ff021916908360ff16021790555062000452565b60008060009054906101000a900473ffffffffffffffffffffffffffffffffffffffff169050816000806101000a81548173ffffffffffffffffffffffffffffffffffffffff021916908373ffffffffffffffffffffffffffffffffffffffff1602179055508173ffffffffffffffffffffffffffffffffffffffff168173ffffffffffffffffffffffffffffffffffffffff167f8be0079c531659141344cd1fd0a4f28419497f9722a3daafe3b4186f6b6457e060405160405180910390a35050565b600073ffffffffffffffffffffffffffffffffffffffff82169050919050565b6000620002768262000249565b9050919050565b620002888162000269565b82525050565b6000602082019050620002a560008301846200027d565b92915050565b600081905092915050565b7f7265736375650000000000000000000000000000000000000000000000000000600082015250565b6000620002ee600683620002ab565b9150620002fb82620002b6565b600682019050919050565b60006200031382620002df565b9150819050919050565b7f696e6a7572790000000000000000000000000000000000000000000000000000600082015250565b600062000355600683620002ab565b915062000362826200031d565b600682019050919050565b60006200037a8262000346565b9150819050919050565b7f6163636964656e74000000000000000000000000000000000000000000000000600082015250565b6000620003bc600883620002ab565b9150620003c98262000384565b600882019050919050565b6000620003e182620003ad565b9150819050919050565b7f616e696d616c6162757365000000000000000000000000000000000000000000600082015250565b600062000423600b83620002ab565b91506200043082620003eb565b600b82019050919050565b6000620004488262000414565b9150819050919050565b613cef80620004626000396000f3fe608060405234801561001057600080fd5b50600436106101425760003560e01c8063715018a6116100b857806391d148541161007c57806391d1485414610333578063a217fddf14610363578063b3d0f18614610381578063beb29f531461039d578063d547741f146103b9578063f2fde38b146103d557610142565b8063715018a6146102b35780637a9f245a146102bd5780637ce4f089146102db57806386f910ae146102f95780638da5cb5b1461031557610142565b80633428cd091161010a5780633428cd091461021957806336568abe146102355780634434f97314610251578063570588db1461026f5780636b5b0d9c1461028b5780636cebad98146102a957610142565b806301ffc9a71461014757806304e15de51461017757806308c84e70146101af578063248a9ca3146101cd5780632f2ff15d146101fd575b600080fd5b610161600480360381019061015c919061275e565b6103f1565b60405161016e91906127a6565b60405180910390f35b610191600480360381019061018c91906127f7565b61046b565b6040516101a699989796959493929190612904565b60405180910390f35b6101b7610716565b6040516101c491906129c6565b60405180910390f35b6101e760048036038101906101e29190612a0d565b61073a565b6040516101f491906129c6565b60405180910390f35b61021760048036038101906102129190612a66565b61075a565b005b610233600480360381019061022e9190612aa6565b61077c565b005b61024f600480360381019061024a9190612a66565b6107b2565b005b61025961082d565b6040516102669190612ce6565b60405180910390f35b610289600480360381019061028491906127f7565b610bcd565b005b610293611078565b6040516102a09190612d08565b60405180910390f35b6102b1611124565b005b6102bb6112e4565b005b6102c56112f8565b6040516102d29190612d08565b60405180910390f35b6102e361139b565b6040516102f09190612dd2565b60405180910390f35b610313600480360381019061030e9190612e20565b611430565b005b61031d611958565b60405161032a9190612e60565b60405180910390f35b61034d60048036038101906103489190612a66565b611981565b60405161035a91906127a6565b60405180910390f35b61036b6119ec565b60405161037891906129c6565b60405180910390f35b61039b60048036038101906103969190612fb0565b6119f3565b005b6103b760048036038101906103b291906130d3565b611e66565b005b6103d360048036038101906103ce9190612a66565b611ef4565b005b6103ef60048036038101906103ea9190612aa6565b611f16565b005b60007f7965db0b000000000000000000000000000000000000000000000000000000007bffffffffffffffffffffffffffffffffffffffffffffffffffffffff1916827bffffffffffffffffffffffffffffffffffffffffffffffffffffffff19161480610464575061046382611f9c565b5b9050919050565b6002818154811061047b57600080fd5b90600052602060002090600902016000915090508060000160009054906101000a900473ffffffffffffffffffffffffffffffffffffffff16908060010154908060020180546104ca90613142565b80601f01602080910402602001604051908101604052809291908181526020018280546104f690613142565b80156105435780601f1061051857610100808354040283529160200191610543565b820191906000526020600020905b81548152906001019060200180831161052657829003601f168201915b50505050509080600301805461055890613142565b80601f016020809104026020016040519081016040528092919081815260200182805461058490613142565b80156105d15780601f106105a6576101008083540402835291602001916105d1565b820191906000526020600020905b8154815290600101906020018083116105b457829003601f168201915b5050505050908060040160009054906101000a900460ff169080600501549080600601549080600701805461060590613142565b80601f016020809104026020016040519081016040528092919081815260200182805461063190613142565b801561067e5780601f106106535761010080835404028352916020019161067e565b820191906000526020600020905b81548152906001019060200180831161066157829003601f168201915b50505050509080600801805461069390613142565b80601f01602080910402602001604051908101604052809291908181526020018280546106bf90613142565b801561070c5780601f106106e15761010080835404028352916020019161070c565b820191906000526020600020905b8154815290600101906020018083116106ef57829003601f168201915b5050505050905089565b7fa48c898f5241be426b79d4b5a3c206f9c9a06576e1b72c338c3ec849771d568681565b600060016000838152602001908152602001600020600101549050919050565b6107638261073a565b61076c81612006565b610776838361201a565b50505050565b61078461210b565b6107ae7fa48c898f5241be426b79d4b5a3c206f9c9a06576e1b72c338c3ec849771d56868261201a565b5050565b6107ba612192565b73ffffffffffffffffffffffffffffffffffffffff168173ffffffffffffffffffffffffffffffffffffffff161461081e576040517f6697b23200000000000000000000000000000000000000000000000000000000815260040160405180910390fd5b610828828261219a565b505050565b60606108597fa48c898f5241be426b79d4b5a3c206f9c9a06576e1b72c338c3ec849771d568633611981565b610898576040517f08c379a000000000000000000000000000000000000000000000000000000000815260040161088f906131bf565b60405180910390fd5b6002805480602002602001604051908101604052809291908181526020016000905b82821015610bc45783829060005260206000209060090201604051806101200160405290816000820160009054906101000a900473ffffffffffffffffffffffffffffffffffffffff1673ffffffffffffffffffffffffffffffffffffffff1673ffffffffffffffffffffffffffffffffffffffff1681526020016001820154815260200160028201805461094e90613142565b80601f016020809104026020016040519081016040528092919081815260200182805461097a90613142565b80156109c75780601f1061099c576101008083540402835291602001916109c7565b820191906000526020600020905b8154815290600101906020018083116109aa57829003601f168201915b505050505081526020016003820180546109e090613142565b80601f0160208091040260200160405190810160405280929190818152602001828054610a0c90613142565b8015610a595780601f10610a2e57610100808354040283529160200191610a59565b820191906000526020600020905b815481529060010190602001808311610a3c57829003601f168201915b505050505081526020016004820160009054906101000a900460ff161515151581526020016005820154815260200160068201548152602001600782018054610aa190613142565b80601f0160208091040260200160405190810160405280929190818152602001828054610acd90613142565b8015610b1a5780601f10610aef57610100808354040283529160200191610b1a565b820191906000526020600020905b815481529060010190602001808311610afd57829003601f168201915b50505050508152602001600882018054610b3390613142565b80601f0160208091040260200160405190810160405280929190818152602001828054610b5f90613142565b8015610bac5780601f10610b8157610100808354040283529160200191610bac565b820191906000526020600020905b815481529060010190602001808311610b8f57829003601f168201915b505050505081525050815260200190600101906108ba565b50505050905090565b600280549050811115610c15576040517f08c379a0000000000000000000000000000000000000000000000000000000008152600401610c0c9061322b565b60405180910390fd5b3373ffffffffffffffffffffffffffffffffffffffff166002600183610c3b919061327a565b81548110610c4c57610c4b6132ae565b5b906000526020600020906009020160000160009054906101000a900473ffffffffffffffffffffffffffffffffffffffff1673ffffffffffffffffffffffffffffffffffffffff1614610cd4576040517f08c379a0000000000000000000000000000000000000000000000000000000008152600401610ccb9061334f565b60405180910390fd5b6002600182610ce3919061327a565b81548110610cf457610cf36132ae565b5b9060005260206000209060090201600501546002600183610d15919061327a565b81548110610d2657610d256132ae565b5b906000526020600020906009020160060154610d42919061336f565b421115610f6757610d876040518060400160405280600681526020017f484954545454000000000000000000000000000000000000000000000000000081525061228d565b6040518060400160405280600a81526020017f756e617474656e646564000000000000000000000000000000000000000000008152506002600183610dcc919061327a565b81548110610ddd57610ddc6132ae565b5b90600052602060002090600902016007019081610dfa919061354f565b50610e556002600183610e0d919061327a565b81548110610e1e57610e1d6132ae565b5b906000526020600020906009020160000160009054906101000a900473ffffffffffffffffffffffffffffffffffffffff16612326565b6040518060400160405280601281526020017f526577617264207375636365737366756c6c00000000000000000000000000008152506002600183610e9a919061327a565b81548110610eab57610eaa6132ae565b5b90600052602060002090600902016008019081610ec8919061354f565b507f69633d2671bb8c2b303d5a46d471ce695817434f9bb15943539c4016831e47826002600183610ef9919061327a565b81548110610f0a57610f096132ae565b5b90600052602060002090600902016007016002600184610f2a919061327a565b81548110610f3b57610f3a6132ae565b5b9060005260206000209060090201600801604051610f5a9291906136a5565b60405180910390a1611075565b6040518060400160405280600781526020017f70656e64696e67000000000000000000000000000000000000000000000000008152506002600183610fac919061327a565b81548110610fbd57610fbc6132ae565b5b90600052602060002090600902016008019081610fda919061354f565b507f69633d2671bb8c2b303d5a46d471ce695817434f9bb15943539c4016831e4782600260018361100b919061327a565b8154811061101c5761101b6132ae565b5b9060005260206000209060090201600701600260018461103c919061327a565b8154811061104d5761104c6132ae565b5b906000526020600020906009020160080160405161106c9291906136a5565b60405180910390a15b50565b60006110833361245b565b600660009054906101000a900473ffffffffffffffffffffffffffffffffffffffff1673ffffffffffffffffffffffffffffffffffffffff166370a08231336040518263ffffffff1660e01b81526004016110de9190612e60565b602060405180830381865afa1580156110fb573d6000803e3d6000fd5b505050506040513d601f19601f8201168201806040525081019061111f91906136f1565b905090565b60001515600460003373ffffffffffffffffffffffffffffffffffffffff1673ffffffffffffffffffffffffffffffffffffffff16815260200190815260200160002060009054906101000a900460ff161515146111b7576040517f08c379a00000000000000000000000000000000000000000000000000000000081526004016111ae9061376a565b60405180910390fd5b6001600460003373ffffffffffffffffffffffffffffffffffffffff1673ffffffffffffffffffffffffffffffffffffffff16815260200190815260200160002060006101000a81548160ff021916908315150217905550600660009054906101000a900473ffffffffffffffffffffffffffffffffffffffff1673ffffffffffffffffffffffffffffffffffffffff166340c10f193360056040518363ffffffff1660e01b815260040161126d9291906137c5565b600060405180830381600087803b15801561128757600080fd5b505af115801561129b573d6000803e3d6000fd5b505050503373ffffffffffffffffffffffffffffffffffffffff167fb7ef386d3c6dc080c6176a3903ca6fcdd0add9272221b4866b01a6514564b09960405160405180910390a2565b6112ec61210b565b6112f660006124f4565b565b6000600760009054906101000a900473ffffffffffffffffffffffffffffffffffffffff1673ffffffffffffffffffffffffffffffffffffffff166370a08231336040518263ffffffff1660e01b81526004016113559190612e60565b602060405180830381865afa158015611372573d6000803e3d6000fd5b505050506040513d601f19601f8201168201806040525081019061139691906136f1565b905090565b6060600560003373ffffffffffffffffffffffffffffffffffffffff1673ffffffffffffffffffffffffffffffffffffffff16815260200190815260200160002080548060200260200160405190810160405280929190818152602001828054801561142657602002820191906000526020600020905b815481526020019060010190808311611412575b5050505050905090565b61145a7fa48c898f5241be426b79d4b5a3c206f9c9a06576e1b72c338c3ec849771d568633611981565b611499576040517f08c379a0000000000000000000000000000000000000000000000000000000008152600401611490906131bf565b60405180910390fd5b6002805490508111156114e1576040517f08c379a00000000000000000000000000000000000000000000000000000000081526004016114d89061322b565b60405180910390fd5b6040518060400160405280600781526020017f70656e64696e670000000000000000000000000000000000000000000000000081525080519060200120600260018361152d919061327a565b8154811061153e5761153d6132ae565b5b906000526020600020906009020160070160405161155c9190613891565b6040518091039020146115a4576040517f08c379a000000000000000000000000000000000000000000000000000000000815260040161159b906138f4565b60405180910390fd5b8160026001836115b4919061327a565b815481106115c5576115c46132ae565b5b906000526020600020906009020160040160006101000a81548160ff021916908315150217905550816117d2576040518060400160405280600981526020017f636f6d706c6574656400000000000000000000000000000000000000000000008152506002600183611637919061327a565b81548110611648576116476132ae565b5b90600052602060002090600902016007019081611665919061354f565b506116c06002600183611678919061327a565b81548110611689576116886132ae565b5b906000526020600020906009020160000160009054906101000a900473ffffffffffffffffffffffffffffffffffffffff16612326565b6040518060400160405280601281526020017f526577617264207375636365737366756c6c00000000000000000000000000008152506002600183611705919061327a565b81548110611716576117156132ae565b5b90600052602060002090600902016008019081611733919061354f565b507f69633d2671bb8c2b303d5a46d471ce695817434f9bb15943539c4016831e47826002600183611764919061327a565b81548110611775576117746132ae565b5b90600052602060002090600902016007016002600184611795919061327a565b815481106117a6576117a56132ae565b5b90600052602060002090600902016008016040516117c59291906136a5565b60405180910390a1611954565b6040518060400160405280600a81526020017f66616b65206973737565000000000000000000000000000000000000000000008152506002600183611817919061327a565b81548110611828576118276132ae565b5b90600052602060002090600902016007019081611845919061354f565b506040518060400160405280601781526020017f7374616b6520636f696e20697320676f6e65203a5d5d20000000000000000000815250600260018361188b919061327a565b8154811061189c5761189b6132ae565b5b906000526020600020906009020160080190816118b9919061354f565b507f69633d2671bb8c2b303d5a46d471ce695817434f9bb15943539c4016831e478260026001836118ea919061327a565b815481106118fb576118fa6132ae565b5b9060005260206000209060090201600701600260018461191b919061327a565b8154811061192c5761192b6132ae565b5b906000526020600020906009020160080160405161194b9291906136a5565b60405180910390a15b5050565b60008060009054906101000a900473ffffffffffffffffffffffffffffffffffffffff16905090565b60006001600084815260200190815260200160002060000160008373ffffffffffffffffffffffffffffffffffffffff1673ffffffffffffffffffffffffffffffffffffffff16815260200190815260200160002060009054906101000a900460ff16905092915050565b6000801b81565b6119fc3361245b565b611a053061245b565b600660009054906101000a900473ffffffffffffffffffffffffffffffffffffffff1673ffffffffffffffffffffffffffffffffffffffff1663095ea7b33060056040518363ffffffff1660e01b8152600401611a639291906137c5565b6020604051808303816000875af1158015611a82573d6000803e3d6000fd5b505050506040513d601f19601f82011682018060405250810190611aa69190613929565b50600660009054906101000a900473ffffffffffffffffffffffffffffffffffffffff1673ffffffffffffffffffffffffffffffffffffffff166323b872dd33306008546040518463ffffffff1660e01b8152600401611b0893929190613956565b6020604051808303816000875af1158015611b27573d6000803e3d6000fd5b505050506040513d601f19601f82011682018060405250810190611b4b9190613929565b611b8a576040517f08c379a0000000000000000000000000000000000000000000000000000000008152600401611b81906139ff565b60405180910390fd5b6000600384604051611b9c9190613a5b565b908152602001604051809103902060009054906101000a900460ff1660ff169050611bcb6002805490506125b8565b60006040518061012001604052803373ffffffffffffffffffffffffffffffffffffffff1681526020016001600280549050611c07919061336f565b81526020018581526020018481526020016000151581526020018381526020014281526020016040518060400160405280600781526020017f70656e64696e670000000000000000000000000000000000000000000000000081525081526020016040518060400160405280600781526020017f70656e64696e67000000000000000000000000000000000000000000000000008152508152509050600560003373ffffffffffffffffffffffffffffffffffffffff1673ffffffffffffffffffffffffffffffffffffffff1681526020019081526020016000206001600280549050611cf4919061336f565b9080600181540180825580915050600190039060005260206000200160009091909190915055600281908060018154018082558091505060019003906000526020600020906009020160009091909190915060008201518160000160006101000a81548173ffffffffffffffffffffffffffffffffffffffff021916908373ffffffffffffffffffffffffffffffffffffffff160217905550602082015181600101556040820151816002019081611dac919061354f565b506060820151816003019081611dc2919061354f565b5060808201518160040160006101000a81548160ff02191690831515021790555060a0820151816005015560c0820151816006015560e0820151816007019081611e0c919061354f565b50610100820151816008019081611e23919061354f565b5050507fd7581ce2bb3a8c58c90eb3ec4c2b35e69644c0930b100296d4b065907c844fbc8183604051611e57929190613b98565b60405180910390a15050505050565b611e6e61210b565b81600660006101000a81548173ffffffffffffffffffffffffffffffffffffffff021916908373ffffffffffffffffffffffffffffffffffffffff16021790555080600760006101000a81548173ffffffffffffffffffffffffffffffffffffffff021916908373ffffffffffffffffffffffffffffffffffffffff1602179055505050565b611efd8261073a565b611f0681612006565b611f10838361219a565b50505050565b611f1e61210b565b600073ffffffffffffffffffffffffffffffffffffffff168173ffffffffffffffffffffffffffffffffffffffff1603611f905760006040517f1e4fbdf7000000000000000000000000000000000000000000000000000000008152600401611f879190612e60565b60405180910390fd5b611f99816124f4565b50565b60007f01ffc9a7000000000000000000000000000000000000000000000000000000007bffffffffffffffffffffffffffffffffffffffffffffffffffffffff1916827bffffffffffffffffffffffffffffffffffffffffffffffffffffffff1916149050919050565b61201781612012612192565b612651565b50565b60006120268383611981565b61210057600180600085815260200190815260200160002060000160008473ffffffffffffffffffffffffffffffffffffffff1673ffffffffffffffffffffffffffffffffffffffff16815260200190815260200160002060006101000a81548160ff02191690831515021790555061209d612192565b73ffffffffffffffffffffffffffffffffffffffff168273ffffffffffffffffffffffffffffffffffffffff16847f2f8788117e7eff1d82e926ec794901d17c78024a50270940304540a733656f0d60405160405180910390a460019050612105565b600090505b92915050565b612113612192565b73ffffffffffffffffffffffffffffffffffffffff16612131611958565b73ffffffffffffffffffffffffffffffffffffffff161461219057612154612192565b6040517f118cdaa70000000000000000000000000000000000000000000000000000000081526004016121879190612e60565b60405180910390fd5b565b600033905090565b60006121a68383611981565b156122825760006001600085815260200190815260200160002060000160008473ffffffffffffffffffffffffffffffffffffffff1673ffffffffffffffffffffffffffffffffffffffff16815260200190815260200160002060006101000a81548160ff02191690831515021790555061221f612192565b73ffffffffffffffffffffffffffffffffffffffff168273ffffffffffffffffffffffffffffffffffffffff16847ff6391f5c32d9c69d2a47ea670b442974b53935d1edc7fd64eb21e047a839171b60405160405180910390a460019050612287565b600090505b92915050565b612323816040516024016122a19190613bdb565b6040516020818303038152906040527f41304fac000000000000000000000000000000000000000000000000000000007bffffffffffffffffffffffffffffffffffffffffffffffffffffffff19166020820180517bffffffffffffffffffffffffffffffffffffffffffffffffffffffff83818316178352505050506126a2565b50565b600660009054906101000a900473ffffffffffffffffffffffffffffffffffffffff1673ffffffffffffffffffffffffffffffffffffffff1663a9059cbb8260056040518363ffffffff1660e01b81526004016123849291906137c5565b6020604051808303816000875af11580156123a3573d6000803e3d6000fd5b505050506040513d601f19601f820116820180604052508101906123c79190613929565b50600760009054906101000a900473ffffffffffffffffffffffffffffffffffffffff1673ffffffffffffffffffffffffffffffffffffffff166340c10f198260026040518363ffffffff1660e01b8152600401612426929190613c38565b600060405180830381600087803b15801561244057600080fd5b505af1158015612454573d6000803e3d6000fd5b5050505050565b6124f18160405160240161246f9190612e60565b6040516020818303038152906040527f2c2ecbc2000000000000000000000000000000000000000000000000000000007bffffffffffffffffffffffffffffffffffffffffffffffffffffffff19166020820180517bffffffffffffffffffffffffffffffffffffffffffffffffffffffff83818316178352505050506126a2565b50565b60008060009054906101000a900473ffffffffffffffffffffffffffffffffffffffff169050816000806101000a81548173ffffffffffffffffffffffffffffffffffffffff021916908373ffffffffffffffffffffffffffffffffffffffff1602179055508173ffffffffffffffffffffffffffffffffffffffff168173ffffffffffffffffffffffffffffffffffffffff167f8be0079c531659141344cd1fd0a4f28419497f9722a3daafe3b4186f6b6457e060405160405180910390a35050565b61264e816040516024016125cc9190612d08565b6040516020818303038152906040527ff82c50f1000000000000000000000000000000000000000000000000000000007bffffffffffffffffffffffffffffffffffffffffffffffffffffffff19166020820180517bffffffffffffffffffffffffffffffffffffffffffffffffffffffff83818316178352505050506126a2565b50565b61265b8282611981565b61269e5780826040517fe2517d3f000000000000000000000000000000000000000000000000000000008152600401612695929190613c61565b60405180910390fd5b5050565b6126b9816126b16126bc6126dd565b63ffffffff16565b50565b60006a636f6e736f6c652e6c6f679050600080835160208501845afa505050565b6126e8819050919050565b6126f0613c8a565b565b6000604051905090565b600080fd5b600080fd5b60007fffffffff0000000000000000000000000000000000000000000000000000000082169050919050565b61273b81612706565b811461274657600080fd5b50565b60008135905061275881612732565b92915050565b600060208284031215612774576127736126fc565b5b600061278284828501612749565b91505092915050565b60008115159050919050565b6127a08161278b565b82525050565b60006020820190506127bb6000830184612797565b92915050565b6000819050919050565b6127d4816127c1565b81146127df57600080fd5b50565b6000813590506127f1816127cb565b92915050565b60006020828403121561280d5761280c6126fc565b5b600061281b848285016127e2565b91505092915050565b600073ffffffffffffffffffffffffffffffffffffffff82169050919050565b600061284f82612824565b9050919050565b61285f81612844565b82525050565b61286e816127c1565b82525050565b600081519050919050565b600082825260208201905092915050565b60005b838110156128ae578082015181840152602081019050612893565b60008484015250505050565b6000601f19601f8301169050919050565b60006128d682612874565b6128e0818561287f565b93506128f0818560208601612890565b6128f9816128ba565b840191505092915050565b60006101208201905061291a600083018c612856565b612927602083018b612865565b8181036040830152612939818a6128cb565b9050818103606083015261294d81896128cb565b905061295c6080830188612797565b61296960a0830187612865565b61297660c0830186612865565b81810360e083015261298881856128cb565b905081810361010083015261299d81846128cb565b90509a9950505050505050505050565b6000819050919050565b6129c0816129ad565b82525050565b60006020820190506129db60008301846129b7565b92915050565b6129ea816129ad565b81146129f557600080fd5b50565b600081359050612a07816129e1565b92915050565b600060208284031215612a2357612a226126fc565b5b6000612a31848285016129f8565b91505092915050565b612a4381612844565b8114612a4e57600080fd5b50565b600081359050612a6081612a3a565b92915050565b60008060408385031215612a7d57612a7c6126fc565b5b6000612a8b858286016129f8565b9250506020612a9c85828601612a51565b9150509250929050565b600060208284031215612abc57612abb6126fc565b5b6000612aca84828501612a51565b91505092915050565b600081519050919050565b600082825260208201905092915050565b6000819050602082019050919050565b612b0881612844565b82525050565b612b17816127c1565b82525050565b600082825260208201905092915050565b6000612b3982612874565b612b438185612b1d565b9350612b53818560208601612890565b612b5c816128ba565b840191505092915050565b612b708161278b565b82525050565b600061012083016000830151612b8f6000860182612aff565b506020830151612ba26020860182612b0e565b5060408301518482036040860152612bba8282612b2e565b91505060608301518482036060860152612bd48282612b2e565b9150506080830151612be96080860182612b67565b5060a0830151612bfc60a0860182612b0e565b5060c0830151612c0f60c0860182612b0e565b5060e083015184820360e0860152612c278282612b2e565b915050610100830151848203610100860152612c438282612b2e565b9150508091505092915050565b6000612c5c8383612b76565b905092915050565b6000602082019050919050565b6000612c7c82612ad3565b612c868185612ade565b935083602082028501612c9885612aef565b8060005b85811015612cd45784840389528151612cb58582612c50565b9450612cc083612c64565b925060208a01995050600181019050612c9c565b50829750879550505050505092915050565b60006020820190508181036000830152612d008184612c71565b905092915050565b6000602082019050612d1d6000830184612865565b92915050565b600081519050919050565b600082825260208201905092915050565b6000819050602082019050919050565b6000612d5b8383612b0e565b60208301905092915050565b6000602082019050919050565b6000612d7f82612d23565b612d898185612d2e565b9350612d9483612d3f565b8060005b83811015612dc5578151612dac8882612d4f565b9750612db783612d67565b925050600181019050612d98565b5085935050505092915050565b60006020820190508181036000830152612dec8184612d74565b905092915050565b612dfd8161278b565b8114612e0857600080fd5b50565b600081359050612e1a81612df4565b92915050565b60008060408385031215612e3757612e366126fc565b5b6000612e4585828601612e0b565b9250506020612e56858286016127e2565b9150509250929050565b6000602082019050612e756000830184612856565b92915050565b600080fd5b600080fd5b7f4e487b7100000000000000000000000000000000000000000000000000000000600052604160045260246000fd5b612ebd826128ba565b810181811067ffffffffffffffff82111715612edc57612edb612e85565b5b80604052505050565b6000612eef6126f2565b9050612efb8282612eb4565b919050565b600067ffffffffffffffff821115612f1b57612f1a612e85565b5b612f24826128ba565b9050602081019050919050565b82818337600083830152505050565b6000612f53612f4e84612f00565b612ee5565b905082815260208101848484011115612f6f57612f6e612e80565b5b612f7a848285612f31565b509392505050565b600082601f830112612f9757612f96612e7b565b5b8135612fa7848260208601612f40565b91505092915050565b600080600060608486031215612fc957612fc86126fc565b5b600084013567ffffffffffffffff811115612fe757612fe6612701565b5b612ff386828701612f82565b935050602084013567ffffffffffffffff81111561301457613013612701565b5b61302086828701612f82565b925050604084013567ffffffffffffffff81111561304157613040612701565b5b61304d86828701612f82565b9150509250925092565b600061306282612844565b9050919050565b61307281613057565b811461307d57600080fd5b50565b60008135905061308f81613069565b92915050565b60006130a082612844565b9050919050565b6130b081613095565b81146130bb57600080fd5b50565b6000813590506130cd816130a7565b92915050565b600080604083850312156130ea576130e96126fc565b5b60006130f885828601613080565b9250506020613109858286016130be565b9150509250929050565b7f4e487b7100000000000000000000000000000000000000000000000000000000600052602260045260246000fd5b6000600282049050600182168061315a57607f821691505b60208210810361316d5761316c613113565b5b50919050565b7f43616c6c6572206973206e6f7420612056455249464945520000000000000000600082015250565b60006131a960188361287f565b91506131b482613173565b602082019050919050565b600060208201905081810360008301526131d88161319c565b9050919050565b7f496e76616c696420697373756520494400000000000000000000000000000000600082015250565b600061321560108361287f565b9150613220826131df565b602082019050919050565b6000602082019050818103600083015261324481613208565b9050919050565b7f4e487b7100000000000000000000000000000000000000000000000000000000600052601160045260246000fd5b6000613285826127c1565b9150613290836127c1565b92508282039050818111156132a8576132a761324b565b5b92915050565b7f4e487b7100000000000000000000000000000000000000000000000000000000600052603260045260246000fd5b7f596f7520617265206e6f7420746865206f776e6572206f66207468652069737360008201527f7565210000000000000000000000000000000000000000000000000000000000602082015250565b600061333960238361287f565b9150613344826132dd565b604082019050919050565b600060208201905081810360008301526133688161332c565b9050919050565b600061337a826127c1565b9150613385836127c1565b925082820190508082111561339d5761339c61324b565b5b92915050565b60008190508160005260206000209050919050565b60006020601f8301049050919050565b600082821b905092915050565b6000600883026134057fffffffffffffffffffffffffffffffffffffffffffffffffffffffffffffffff826133c8565b61340f86836133c8565b95508019841693508086168417925050509392505050565b6000819050919050565b600061344c613447613442846127c1565b613427565b6127c1565b9050919050565b6000819050919050565b61346683613431565b61347a61347282613453565b8484546133d5565b825550505050565b600090565b61348f613482565b61349a81848461345d565b505050565b5b818110156134be576134b3600082613487565b6001810190506134a0565b5050565b601f821115613503576134d4816133a3565b6134dd846133b8565b810160208510156134ec578190505b6135006134f8856133b8565b83018261349f565b50505b505050565b600082821c905092915050565b600061352660001984600802613508565b1980831691505092915050565b600061353f8383613515565b9150826002028217905092915050565b61355882612874565b67ffffffffffffffff81111561357157613570612e85565b5b61357b8254613142565b6135868282856134c2565b600060209050601f8311600181146135b957600084156135a7578287015190505b6135b18582613533565b865550613619565b601f1984166135c7866133a3565b60005b828110156135ef578489015182556001820191506020850194506020810190506135ca565b8683101561360c5784890151613608601f891682613515565b8355505b6001600288020188555050505b505050505050565b6000815461362e81613142565b613638818661287f565b9450600182166000811461365357600181146136695761369c565b60ff19831686528115156020028601935061369c565b613672856133a3565b60005b8381101561369457815481890152600182019150602081019050613675565b808801955050505b50505092915050565b600060408201905081810360008301526136bf8185613621565b905081810360208301526136d38184613621565b90509392505050565b6000815190506136eb816127cb565b92915050565b600060208284031215613707576137066126fc565b5b6000613715848285016136dc565b91505092915050565b7f596f752061726520616c726561647920612075736572203b5b5b000000000000600082015250565b6000613754601a8361287f565b915061375f8261371e565b602082019050919050565b6000602082019050818103600083015261378381613747565b9050919050565b6000819050919050565b60006137af6137aa6137a58461378a565b613427565b6127c1565b9050919050565b6137bf81613794565b82525050565b60006040820190506137da6000830185612856565b6137e760208301846137b6565b9392505050565b600081905092915050565b60008190508160005260206000209050919050565b6000815461381b81613142565b61382581866137ee565b94506001821660008114613840576001811461385557613888565b60ff1983168652811515820286019350613888565b61385e856137f9565b60005b8381101561388057815481890152600182019150602081019050613861565b838801955050505b50505092915050565b600061389d828461380e565b915081905092915050565b7f497373756520616c726561647920766572696669656400000000000000000000600082015250565b60006138de60168361287f565b91506138e9826138a8565b602082019050919050565b6000602082019050818103600083015261390d816138d1565b9050919050565b60008151905061392381612df4565b92915050565b60006020828403121561393f5761393e6126fc565b5b600061394d84828501613914565b91505092915050565b600060608201905061396b6000830186612856565b6139786020830185612856565b6139856040830184612865565b949350505050565b7f594f5520444f4e2754204841564520454e4f554748205354414b4520434f494e60008201527f5300000000000000000000000000000000000000000000000000000000000000602082015250565b60006139e960218361287f565b91506139f48261398d565b604082019050919050565b60006020820190508181036000830152613a18816139dc565b9050919050565b600081905092915050565b6000613a3582612874565b613a3f8185613a1f565b9350613a4f818560208601612890565b80840191505092915050565b6000613a678284613a2a565b915081905092915050565b600061012083016000830151613a8b6000860182612aff565b506020830151613a9e6020860182612b0e565b5060408301518482036040860152613ab68282612b2e565b91505060608301518482036060860152613ad08282612b2e565b9150506080830151613ae56080860182612b67565b5060a0830151613af860a0860182612b0e565b5060c0830151613b0b60c0860182612b0e565b5060e083015184820360e0860152613b238282612b2e565b915050610100830151848203610100860152613b3f8282612b2e565b9150508091505092915050565b7f70656e64696e6700000000000000000000000000000000000000000000000000600082015250565b6000613b8260078361287f565b9150613b8d82613b4c565b602082019050919050565b60006060820190508181036000830152613bb28185613a72565b9050613bc16020830184612865565b8181036040830152613bd281613b75565b90509392505050565b60006020820190508181036000830152613bf581846128cb565b905092915050565b6000819050919050565b6000613c22613c1d613c1884613bfd565b613427565b6127c1565b9050919050565b613c3281613c07565b82525050565b6000604082019050613c4d6000830185612856565b613c5a6020830184613c29565b9392505050565b6000604082019050613c766000830185612856565b613c8360208301846129b7565b9392505050565b7f4e487b7100000000000000000000000000000000000000000000000000000000600052605160045260246000fdfea264697066735822122012d0ff4a2cc180c401d375dc459c92062888a5ae88d97837fe3e3a7c0f42880e64736f6c63430008180033",
  "linkReferences": {},
  "deployedLinkReferences": {}
}