{
  "_format": "hh-sol-artifact-1",
  "contractName": "Bluexross",
  "sourceName": "contracts/Bluexross.sol",
  "abi": [
    {
      "inputs": [],
      "stateMutability": "nonpayable",
      "type": "constructor"
    },
    {
      "inputs": [],
      "name": "AccessControlBadConfirmation",
      "type": "error"
    },
    {
      "inputs": [
        {
          "internalType": "address",
          "name": "account",
          "type": "address"
        },
        {
          "internalType": "bytes32",
          "name": "neededRole",
          "type": "bytes32"
        }
      ],
      "name": "AccessControlUnauthorizedAccount",
      "type": "error"
    },
    {
      "inputs": [
        {
          "internalType": "address",
          "name": "owner",
          "type": "address"
        }
      ],
      "name": "OwnableInvalidOwner",
      "type": "error"
    },
    {
      "inputs": [
        {
          "internalType": "address",
          "name": "account",
          "type": "address"
        }
      ],
      "name": "OwnableUnauthorizedAccount",
      "type": "error"
    },
    {
      "anonymous": false,
      "inputs": [
        {
          "components": [
            {
              "internalType": "address",
              "name": "user",
              "type": "address"
            },
            {
              "internalType": "uint256",
              "name": "Id",
              "type": "uint256"
            },
            {
              "internalType": "string",
              "name": "phoneno",
              "type": "string"
            },
            {
              "internalType": "string",
              "name": "addres",
              "type": "string"
            },
            {
              "internalType": "bool",
              "name": "fakeissue",
              "type": "bool"
            },
            {
              "internalType": "uint256",
              "name": "time",
              "type": "uint256"
            },
            {
              "internalType": "uint256",
              "name": "timestamp",
              "type": "uint256"
            },
            {
              "internalType": "string",
              "name": "status",
              "type": "string"
            },
            {
              "internalType": "string",
              "name": "rewardstatus",
              "type": "string"
            }
          ],
          "indexed": false,
          "internalType": "struct Bluexross.Issue",
          "name": "_issue",
          "type": "tuple"
        },
        {
          "indexed": false,
          "internalType": "uint256",
          "name": "Time",
          "type": "uint256"
        },
        {
          "indexed": false,
          "internalType": "string",
          "name": "status",
          "type": "string"
        }
      ],
      "name": "IssueRised",
      "type": "event"
    },
    {
      "anonymous": false,
      "inputs": [
        {
          "indexed": true,
          "internalType": "address",
          "name": "previousOwner",
          "type": "address"
        },
        {
          "indexed": true,
          "internalType": "address",
          "name": "newOwner",
          "type": "address"
        }
      ],
      "name": "OwnershipTransferred",
      "type": "event"
    },
    {
      "anonymous": false,
      "inputs": [
        {
          "indexed": true,
          "internalType": "bytes32",
          "name": "role",
          "type": "bytes32"
        },
        {
          "indexed": true,
          "internalType": "bytes32",
          "name": "previousAdminRole",
          "type": "bytes32"
        },
        {
          "indexed": true,
          "internalType": "bytes32",
          "name": "newAdminRole",
          "type": "bytes32"
        }
      ],
      "name": "RoleAdminChanged",
      "type": "event"
    },
    {
      "anonymous": false,
      "inputs": [
        {
          "indexed": true,
          "internalType": "bytes32",
          "name": "role",
          "type": "bytes32"
        },
        {
          "indexed": true,
          "internalType": "address",
          "name": "account",
          "type": "address"
        },
        {
          "indexed": true,
          "internalType": "address",
          "name": "sender",
          "type": "address"
        }
      ],
      "name": "RoleGranted",
      "type": "event"
    },
    {
      "anonymous": false,
      "inputs": [
        {
          "indexed": true,
          "internalType": "bytes32",
          "name": "role",
          "type": "bytes32"
        },
        {
          "indexed": true,
          "internalType": "address",
          "name": "account",
          "type": "address"
        },
        {
          "indexed": true,
          "internalType": "address",
          "name": "sender",
          "type": "address"
        }
      ],
      "name": "RoleRevoked",
      "type": "event"
    },
    {
      "anonymous": false,
      "inputs": [
        {
          "indexed": false,
          "internalType": "string",
          "name": "status",
          "type": "string"
        },
        {
          "indexed": false,
          "internalType": "string",
          "name": "Rewardstatus",
          "type": "string"
        }
      ],
      "name": "Status",
      "type": "event"
    },
    {
      "anonymous": false,
      "inputs": [
        {
          "indexed": true,
          "internalType": "address",
          "name": "_user",
          "type": "address"
        }
      ],
      "name": "newuser",
      "type": "event"
    },
    {
      "inputs": [
        {
          "internalType": "uint256",
          "name": "id",
          "type": "uint256"
        }
      ],
      "name": "CheckAndReward",
      "outputs": [],
      "stateMutability": "nonpayable",
      "type": "function"
    },
    {
      "inputs": [],
      "name": "DEFAULT_ADMIN_ROLE",
      "outputs": [
        {
          "internalType": "bytes32",
          "name": "",
          "type": "bytes32"
        }
      ],
      "stateMutability": "view",
      "type": "function"
    },
    {
      "inputs": [
        {
          "internalType": "address",
          "name": "_Verifier",
          "type": "address"
        }
      ],
      "name": "GrantVerifyAccess",
      "outputs": [],
      "stateMutability": "nonpayable",
      "type": "function"
    },
    {
      "inputs": [
        {
          "internalType": "contract StakeTokens",
          "name": "_stakecoins",
          "type": "address"
        },
        {
          "internalType": "contract RewardTokens",
          "name": "_rewardcoins",
          "type": "address"
        }
      ],
      "name": "InitialiseCoins",
      "outputs": [],
      "stateMutability": "nonpayable",
      "type": "function"
    },
    {
      "inputs": [
        {
          "internalType": "string",
          "name": "rescuetype",
          "type": "string"
        },
        {
          "internalType": "string",
          "name": "phoneNo",
          "type": "string"
        },
        {
          "internalType": "string",
          "name": "addres",
          "type": "string"
        }
      ],
      "name": "IssueRescue",
      "outputs": [],
      "stateMutability": "nonpayable",
      "type": "function"
    },
    {
      "inputs": [
        {
          "internalType": "bool",
          "name": "issueDetail",
          "type": "bool"
        },
        {
          "internalType": "uint256",
          "name": "id",
          "type": "uint256"
        }
      ],
      "name": "IssueVerify",
      "outputs": [],
      "stateMutability": "nonpayable",
      "type": "function"
    },
    {
      "inputs": [],
      "name": "VERIFIER",
      "outputs": [
        {
          "internalType": "bytes32",
          "name": "",
          "type": "bytes32"
        }
      ],
      "stateMutability": "view",
      "type": "function"
    },
    {
      "inputs": [],
      "name": "getIssues",
      "outputs": [
        {
          "components": [
            {
              "internalType": "address",
              "name": "user",
              "type": "address"
            },
            {
              "internalType": "uint256",
              "name": "Id",
              "type": "uint256"
            },
            {
              "internalType": "string",
              "name": "phoneno",
              "type": "string"
            },
            {
              "internalType": "string",
              "name": "addres",
              "type": "string"
            },
            {
              "internalType": "bool",
              "name": "fakeissue",
              "type": "bool"
            },
            {
              "internalType": "uint256",
              "name": "time",
              "type": "uint256"
            },
            {
              "internalType": "uint256",
              "name": "timestamp",
              "type": "uint256"
            },
            {
              "internalType": "string",
              "name": "status",
              "type": "string"
            },
            {
              "internalType": "string",
              "name": "rewardstatus",
              "type": "string"
            }
          ],
          "internalType": "struct Bluexross.Issue[]",
          "name": "",
          "type": "tuple[]"
        }
      ],
      "stateMutability": "view",
      "type": "function"
    },
    {
      "inputs": [
        {
          "internalType": "bytes32",
          "name": "role",
          "type": "bytes32"
        }
      ],
      "name": "getRoleAdmin",
      "outputs": [
        {
          "internalType": "bytes32",
          "name": "",
          "type": "bytes32"
        }
      ],
      "stateMutability": "view",
      "type": "function"
    },
    {
      "inputs": [],
      "name": "getrewardbalance",
      "outputs": [
        {
          "internalType": "uint256",
          "name": "",
          "type": "uint256"
        }
      ],
      "stateMutability": "view",
      "type": "function"
    },
    {
      "inputs": [],
      "name": "getstakebalance",
      "outputs": [
        {
          "internalType": "uint256",
          "name": "",
          "type": "uint256"
        }
      ],
      "stateMutability": "view",
      "type": "function"
    },
    {
      "inputs": [
        {
          "internalType": "bytes32",
          "name": "role",
          "type": "bytes32"
        },
        {
          "internalType": "address",
          "name": "account",
          "type": "address"
        }
      ],
      "name": "grantRole",
      "outputs": [],
      "stateMutability": "nonpayable",
      "type": "function"
    },
    {
      "inputs": [
        {
          "internalType": "bytes32",
          "name": "role",
          "type": "bytes32"
        },
        {
          "internalType": "address",
          "name": "account",
          "type": "address"
        }
      ],
      "name": "hasRole",
      "outputs": [
        {
          "internalType": "bool",
          "name": "",
          "type": "bool"
        }
      ],
      "stateMutability": "view",
      "type": "function"
    },
    {
      "inputs": [],
      "name": "newUser",
      "outputs": [],
      "stateMutability": "nonpayable",
      "type": "function"
    },
    {
      "inputs": [],
      "name": "owner",
      "outputs": [
        {
          "internalType": "address",
          "name": "",
          "type": "address"
        }
      ],
      "stateMutability": "view",
      "type": "function"
    },
    {
      "inputs": [],
      "name": "renounceOwnership",
      "outputs": [],
      "stateMutability": "nonpayable",
      "type": "function"
    },
    {
      "inputs": [
        {
          "internalType": "bytes32",
          "name": "role",
          "type": "bytes32"
        },
        {
          "internalType": "address",
          "name": "callerConfirmation",
          "type": "address"
        }
      ],
      "name": "renounceRole",
      "outputs": [],
      "stateMutability": "nonpayable",
      "type": "function"
    },
    {
      "inputs": [
        {
          "internalType": "bytes32",
          "name": "role",
          "type": "bytes32"
        },
        {
          "internalType": "address",
          "name": "account",
          "type": "address"
        }
      ],
      "name": "revokeRole",
      "outputs": [],
      "stateMutability": "nonpayable",
      "type": "function"
    },
    {
      "inputs": [
        {
          "internalType": "bytes4",
          "name": "interfaceId",
          "type": "bytes4"
        }
      ],
      "name": "supportsInterface",
      "outputs": [
        {
          "internalType": "bool",
          "name": "",
          "type": "bool"
        }
      ],
      "stateMutability": "view",
      "type": "function"
    },
    {
      "inputs": [
        {
          "internalType": "address",
          "name": "newOwner",
          "type": "address"
        }
      ],
      "name": "transferOwnership",
      "outputs": [],
      "stateMutability": "nonpayable",
      "type": "function"
    }
  ],
  "bytecode": "0x608060405260056007553480156200001657600080fd5b5033600073ffffffffffffffffffffffffffffffffffffffff168173ffffffffffffffffffffffffffffffffffffffff16036200008d5760006040517f1e4fbdf70000000000000000000000000000000000000000000000000000000081526004016200008491906200028e565b60405180910390fd5b6200009e816200018560201b60201c565b50603c6003604051620000b19062000306565b908152602001604051809103902060006101000a81548160ff021916908360ff16021790555060786003604051620000e9906200036d565b908152602001604051809103902060006101000a81548160ff021916908360ff16021790555060b460036040516200012190620003d4565b908152602001604051809103902060006101000a81548160ff021916908360ff16021790555060f0600360405162000159906200043b565b908152602001604051809103902060006101000a81548160ff021916908360ff16021790555062000452565b60008060009054906101000a900473ffffffffffffffffffffffffffffffffffffffff169050816000806101000a81548173ffffffffffffffffffffffffffffffffffffffff021916908373ffffffffffffffffffffffffffffffffffffffff1602179055508173ffffffffffffffffffffffffffffffffffffffff168173ffffffffffffffffffffffffffffffffffffffff167f8be0079c531659141344cd1fd0a4f28419497f9722a3daafe3b4186f6b6457e060405160405180910390a35050565b600073ffffffffffffffffffffffffffffffffffffffff82169050919050565b6000620002768262000249565b9050919050565b620002888162000269565b82525050565b6000602082019050620002a560008301846200027d565b92915050565b600081905092915050565b7f7265736375650000000000000000000000000000000000000000000000000000600082015250565b6000620002ee600683620002ab565b9150620002fb82620002b6565b600682019050919050565b60006200031382620002df565b9150819050919050565b7f696e6a7572790000000000000000000000000000000000000000000000000000600082015250565b600062000355600683620002ab565b915062000362826200031d565b600682019050919050565b60006200037a8262000346565b9150819050919050565b7f6163636964656e74000000000000000000000000000000000000000000000000600082015250565b6000620003bc600883620002ab565b9150620003c98262000384565b600882019050919050565b6000620003e182620003ad565b9150819050919050565b7f616e696d616c6162757365000000000000000000000000000000000000000000600082015250565b600062000423600b83620002ab565b91506200043082620003eb565b600b82019050919050565b6000620004488262000414565b9150819050919050565b6134a480620004626000396000f3fe608060405234801561001057600080fd5b506004361061012c5760003560e01c8063715018a6116100ad578063a217fddf11610071578063a217fddf146102f7578063b3d0f18614610315578063beb29f5314610331578063d547741f1461034d578063f2fde38b146103695761012c565b8063715018a6146102655780637a9f245a1461026f57806386f910ae1461028d5780638da5cb5b146102a957806391d14854146102c75761012c565b806336568abe116100f457806336568abe146101e75780634434f97314610203578063570588db146102215780636b5b0d9c1461023d5780636cebad981461025b5761012c565b806301ffc9a71461013157806308c84e7014610161578063248a9ca31461017f5780632f2ff15d146101af5780633428cd09146101cb575b600080fd5b61014b6004803603810190610146919061210a565b610385565b6040516101589190612152565b60405180910390f35b6101696103ff565b6040516101769190612186565b60405180910390f35b610199600480360381019061019491906121cd565b610423565b6040516101a69190612186565b60405180910390f35b6101c960048036038101906101c49190612258565b610443565b005b6101e560048036038101906101e09190612298565b610465565b005b61020160048036038101906101fc9190612258565b61049b565b005b61020b610516565b6040516102189190612528565b60405180910390f35b61023b60048036038101906102369190612576565b6108b6565b005b610245610d85565b60405161025291906125b2565b60405180910390f35b610263610e31565b005b61026d610ff1565b005b610277611005565b60405161028491906125b2565b60405180910390f35b6102a760048036038101906102a291906125f9565b6110a8565b005b6102b1611414565b6040516102be9190612648565b60405180910390f35b6102e160048036038101906102dc9190612258565b61143d565b6040516102ee9190612152565b60405180910390f35b6102ff6114a8565b60405161030c9190612186565b60405180910390f35b61032f600480360381019061032a9190612798565b6114af565b005b61034b600480360381019061034691906128bb565b6118ab565b005b61036760048036038101906103629190612258565b611939565b005b610383600480360381019061037e9190612298565b61195b565b005b60007f7965db0b000000000000000000000000000000000000000000000000000000007bffffffffffffffffffffffffffffffffffffffffffffffffffffffff1916827bffffffffffffffffffffffffffffffffffffffffffffffffffffffff191614806103f857506103f7826119e1565b5b9050919050565b7fa48c898f5241be426b79d4b5a3c206f9c9a06576e1b72c338c3ec849771d568681565b600060016000838152602001908152602001600020600101549050919050565b61044c82610423565b61045581611a4b565b61045f8383611a5f565b50505050565b61046d611b50565b6104977fa48c898f5241be426b79d4b5a3c206f9c9a06576e1b72c338c3ec849771d568682611a5f565b5050565b6104a3611bd7565b73ffffffffffffffffffffffffffffffffffffffff168173ffffffffffffffffffffffffffffffffffffffff1614610507576040517f6697b23200000000000000000000000000000000000000000000000000000000815260040160405180910390fd5b6105118282611bdf565b505050565b60606105427fa48c898f5241be426b79d4b5a3c206f9c9a06576e1b72c338c3ec849771d56863361143d565b610581576040517f08c379a000000000000000000000000000000000000000000000000000000000815260040161057890612958565b60405180910390fd5b6002805480602002602001604051908101604052809291908181526020016000905b828210156108ad5783829060005260206000209060090201604051806101200160405290816000820160009054906101000a900473ffffffffffffffffffffffffffffffffffffffff1673ffffffffffffffffffffffffffffffffffffffff1673ffffffffffffffffffffffffffffffffffffffff16815260200160018201548152602001600282018054610637906129a7565b80601f0160208091040260200160405190810160405280929190818152602001828054610663906129a7565b80156106b05780601f10610685576101008083540402835291602001916106b0565b820191906000526020600020905b81548152906001019060200180831161069357829003601f168201915b505050505081526020016003820180546106c9906129a7565b80601f01602080910402602001604051908101604052809291908181526020018280546106f5906129a7565b80156107425780601f1061071757610100808354040283529160200191610742565b820191906000526020600020905b81548152906001019060200180831161072557829003601f168201915b505050505081526020016004820160009054906101000a900460ff16151515158152602001600582015481526020016006820154815260200160078201805461078a906129a7565b80601f01602080910402602001604051908101604052809291908181526020018280546107b6906129a7565b80156108035780601f106107d857610100808354040283529160200191610803565b820191906000526020600020905b8154815290600101906020018083116107e657829003601f168201915b5050505050815260200160088201805461081c906129a7565b80601f0160208091040260200160405190810160405280929190818152602001828054610848906129a7565b80156108955780601f1061086a57610100808354040283529160200191610895565b820191906000526020600020905b81548152906001019060200180831161087857829003601f168201915b505050505081525050815260200190600101906105a3565b50505050905090565b6002805490508111156108fe576040517f08c379a00000000000000000000000000000000000000000000000000000000081526004016108f590612a24565b60405180910390fd5b6000600260018361090f9190612a73565b815481106109205761091f612aa7565b5b9060005260206000209060090201604051806101200160405290816000820160009054906101000a900473ffffffffffffffffffffffffffffffffffffffff1673ffffffffffffffffffffffffffffffffffffffff1673ffffffffffffffffffffffffffffffffffffffff168152602001600182015481526020016002820180546109aa906129a7565b80601f01602080910402602001604051908101604052809291908181526020018280546109d6906129a7565b8015610a235780601f106109f857610100808354040283529160200191610a23565b820191906000526020600020905b815481529060010190602001808311610a0657829003601f168201915b50505050508152602001600382018054610a3c906129a7565b80601f0160208091040260200160405190810160405280929190818152602001828054610a68906129a7565b8015610ab55780601f10610a8a57610100808354040283529160200191610ab5565b820191906000526020600020905b815481529060010190602001808311610a9857829003601f168201915b505050505081526020016004820160009054906101000a900460ff161515151581526020016005820154815260200160068201548152602001600782018054610afd906129a7565b80601f0160208091040260200160405190810160405280929190818152602001828054610b29906129a7565b8015610b765780601f10610b4b57610100808354040283529160200191610b76565b820191906000526020600020905b815481529060010190602001808311610b5957829003601f168201915b50505050508152602001600882018054610b8f906129a7565b80601f0160208091040260200160405190810160405280929190818152602001828054610bbb906129a7565b8015610c085780601f10610bdd57610100808354040283529160200191610c08565b820191906000526020600020905b815481529060010190602001808311610beb57829003601f168201915b50505050508152505090508060a001518160c00151610c279190612ad6565b421115610cff576040518060400160405280600a81526020017f756e617474656e646564000000000000000000000000000000000000000000008152508160e00181905250610c798160000151611cd2565b6040518060400160405280601281526020017f526577617264207375636365737366756c6c00000000000000000000000000008152508161010001819052507f69633d2671bb8c2b303d5a46d471ce695817434f9bb15943539c4016831e47828160e00151826101000151604051610cf2929190612b43565b60405180910390a1610d81565b6040518060400160405280600781526020017f70656e64696e67000000000000000000000000000000000000000000000000008152508161010001819052507f69633d2671bb8c2b303d5a46d471ce695817434f9bb15943539c4016831e47828160e00151826101000151604051610d78929190612b43565b60405180910390a15b5050565b6000610d9033611e07565b600560009054906101000a900473ffffffffffffffffffffffffffffffffffffffff1673ffffffffffffffffffffffffffffffffffffffff166370a08231336040518263ffffffff1660e01b8152600401610deb9190612648565b602060405180830381865afa158015610e08573d6000803e3d6000fd5b505050506040513d601f19601f82011682018060405250810190610e2c9190612b8f565b905090565b60001515600460003373ffffffffffffffffffffffffffffffffffffffff1673ffffffffffffffffffffffffffffffffffffffff16815260200190815260200160002060009054906101000a900460ff16151514610ec4576040517f08c379a0000000000000000000000000000000000000000000000000000000008152600401610ebb90612c08565b60405180910390fd5b6001600460003373ffffffffffffffffffffffffffffffffffffffff1673ffffffffffffffffffffffffffffffffffffffff16815260200190815260200160002060006101000a81548160ff021916908315150217905550600560009054906101000a900473ffffffffffffffffffffffffffffffffffffffff1673ffffffffffffffffffffffffffffffffffffffff166340c10f193360056040518363ffffffff1660e01b8152600401610f7a929190612c6d565b600060405180830381600087803b158015610f9457600080fd5b505af1158015610fa8573d6000803e3d6000fd5b505050503373ffffffffffffffffffffffffffffffffffffffff167fb7ef386d3c6dc080c6176a3903ca6fcdd0add9272221b4866b01a6514564b09960405160405180910390a2565b610ff9611b50565b6110036000611ea0565b565b6000600660009054906101000a900473ffffffffffffffffffffffffffffffffffffffff1673ffffffffffffffffffffffffffffffffffffffff166370a08231336040518263ffffffff1660e01b81526004016110629190612648565b602060405180830381865afa15801561107f573d6000803e3d6000fd5b505050506040513d601f19601f820116820180604052508101906110a39190612b8f565b905090565b6110d27fa48c898f5241be426b79d4b5a3c206f9c9a06576e1b72c338c3ec849771d56863361143d565b611111576040517f08c379a000000000000000000000000000000000000000000000000000000000815260040161110890612958565b60405180910390fd5b600280549050811115611159576040517f08c379a000000000000000000000000000000000000000000000000000000000815260040161115090612a24565b60405180910390fd5b6000600260018361116a9190612a73565b8154811061117b5761117a612aa7565b5b906000526020600020906009020190506040518060400160405280600781526020017f70656e64696e670000000000000000000000000000000000000000000000000081525080519060200120816007016040516111d99190612d39565b604051809103902014611221576040517f08c379a000000000000000000000000000000000000000000000000000000000815260040161121890612d9c565b60405180910390fd5b828160040160006101000a81548160ff02191690831515021790555082611341576040518060400160405280600981526020017f636f6d706c6574656400000000000000000000000000000000000000000000008152508160070190816112889190612f5e565b506112b68160000160009054906101000a900473ffffffffffffffffffffffffffffffffffffffff16611cd2565b6040518060400160405280601281526020017f526577617264207375636365737366756c6c00000000000000000000000000008152508160080190816112fc9190612f5e565b507f69633d2671bb8c2b303d5a46d471ce695817434f9bb15943539c4016831e478281600701826008016040516113349291906130b4565b60405180910390a161140f565b6040518060400160405280600a81526020017f66616b65206973737565000000000000000000000000000000000000000000008152508160070190816113879190612f5e565b506040518060400160405280601781526020017f7374616b6520636f696e20697320676f6e65203a5d5d200000000000000000008152508160080190816113ce9190612f5e565b507f69633d2671bb8c2b303d5a46d471ce695817434f9bb15943539c4016831e478281600701826008016040516114069291906130b4565b60405180910390a15b505050565b60008060009054906101000a900473ffffffffffffffffffffffffffffffffffffffff16905090565b60006001600084815260200190815260200160002060000160008373ffffffffffffffffffffffffffffffffffffffff1673ffffffffffffffffffffffffffffffffffffffff16815260200190815260200160002060009054906101000a900460ff16905092915050565b6000801b81565b6114b833611e07565b6114c130611e07565b600560009054906101000a900473ffffffffffffffffffffffffffffffffffffffff1673ffffffffffffffffffffffffffffffffffffffff1663095ea7b33060056040518363ffffffff1660e01b815260040161151f929190612c6d565b6020604051808303816000875af115801561153e573d6000803e3d6000fd5b505050506040513d601f19601f820116820180604052508101906115629190613100565b50600560009054906101000a900473ffffffffffffffffffffffffffffffffffffffff1673ffffffffffffffffffffffffffffffffffffffff166323b872dd33306007546040518463ffffffff1660e01b81526004016115c49392919061312d565b6020604051808303816000875af11580156115e3573d6000803e3d6000fd5b505050506040513d601f19601f820116820180604052508101906116079190613100565b611646576040517f08c379a000000000000000000000000000000000000000000000000000000000815260040161163d906131d6565b60405180910390fd5b60006003846040516116589190613232565b908152602001604051809103902060009054906101000a900460ff1660ff16905060006040518061012001604052803373ffffffffffffffffffffffffffffffffffffffff16815260200160016002805490506116b59190612ad6565b81526020018581526020018481526020016000151581526020018381526020014281526020016040518060400160405280600781526020017f70656e64696e670000000000000000000000000000000000000000000000000081525081526020016040518060400160405280600781526020017f70656e64696e67000000000000000000000000000000000000000000000000008152508152509050600281908060018154018082558091505060019003906000526020600020906009020160009091909190915060008201518160000160006101000a81548173ffffffffffffffffffffffffffffffffffffffff021916908373ffffffffffffffffffffffffffffffffffffffff1602179055506020820151816001015560408201518160020190816117e39190612f5e565b5060608201518160030190816117f99190612f5e565b5060808201518160040160006101000a81548160ff02191690831515021790555060a0820151816005015560c0820151816006015560e08201518160070190816118439190612f5e565b5061010082015181600801908161185a9190612f5e565b50505061186b600280549050611f64565b7fd7581ce2bb3a8c58c90eb3ec4c2b35e69644c0930b100296d4b065907c844fbc818360405161189c92919061336f565b60405180910390a15050505050565b6118b3611b50565b81600560006101000a81548173ffffffffffffffffffffffffffffffffffffffff021916908373ffffffffffffffffffffffffffffffffffffffff16021790555080600660006101000a81548173ffffffffffffffffffffffffffffffffffffffff021916908373ffffffffffffffffffffffffffffffffffffffff1602179055505050565b61194282610423565b61194b81611a4b565b6119558383611bdf565b50505050565b611963611b50565b600073ffffffffffffffffffffffffffffffffffffffff168173ffffffffffffffffffffffffffffffffffffffff16036119d55760006040517f1e4fbdf70000000000000000000000000000000000000000000000000000000081526004016119cc9190612648565b60405180910390fd5b6119de81611ea0565b50565b60007f01ffc9a7000000000000000000000000000000000000000000000000000000007bffffffffffffffffffffffffffffffffffffffffffffffffffffffff1916827bffffffffffffffffffffffffffffffffffffffffffffffffffffffff1916149050919050565b611a5c81611a57611bd7565b611ffd565b50565b6000611a6b838361143d565b611b4557600180600085815260200190815260200160002060000160008473ffffffffffffffffffffffffffffffffffffffff1673ffffffffffffffffffffffffffffffffffffffff16815260200190815260200160002060006101000a81548160ff021916908315150217905550611ae2611bd7565b73ffffffffffffffffffffffffffffffffffffffff168273ffffffffffffffffffffffffffffffffffffffff16847f2f8788117e7eff1d82e926ec794901d17c78024a50270940304540a733656f0d60405160405180910390a460019050611b4a565b600090505b92915050565b611b58611bd7565b73ffffffffffffffffffffffffffffffffffffffff16611b76611414565b73ffffffffffffffffffffffffffffffffffffffff1614611bd557611b99611bd7565b6040517f118cdaa7000000000000000000000000000000000000000000000000000000008152600401611bcc9190612648565b60405180910390fd5b565b600033905090565b6000611beb838361143d565b15611cc75760006001600085815260200190815260200160002060000160008473ffffffffffffffffffffffffffffffffffffffff1673ffffffffffffffffffffffffffffffffffffffff16815260200190815260200160002060006101000a81548160ff021916908315150217905550611c64611bd7565b73ffffffffffffffffffffffffffffffffffffffff168273ffffffffffffffffffffffffffffffffffffffff16847ff6391f5c32d9c69d2a47ea670b442974b53935d1edc7fd64eb21e047a839171b60405160405180910390a460019050611ccc565b600090505b92915050565b600560009054906101000a900473ffffffffffffffffffffffffffffffffffffffff1673ffffffffffffffffffffffffffffffffffffffff1663a9059cbb8260056040518363ffffffff1660e01b8152600401611d30929190612c6d565b6020604051808303816000875af1158015611d4f573d6000803e3d6000fd5b505050506040513d601f19601f82011682018060405250810190611d739190613100565b50600660009054906101000a900473ffffffffffffffffffffffffffffffffffffffff1673ffffffffffffffffffffffffffffffffffffffff166340c10f198260026040518363ffffffff1660e01b8152600401611dd29291906133ed565b600060405180830381600087803b158015611dec57600080fd5b505af1158015611e00573d6000803e3d6000fd5b5050505050565b611e9d81604051602401611e1b9190612648565b6040516020818303038152906040527f2c2ecbc2000000000000000000000000000000000000000000000000000000007bffffffffffffffffffffffffffffffffffffffffffffffffffffffff19166020820180517bffffffffffffffffffffffffffffffffffffffffffffffffffffffff838183161783525050505061204e565b50565b60008060009054906101000a900473ffffffffffffffffffffffffffffffffffffffff169050816000806101000a81548173ffffffffffffffffffffffffffffffffffffffff021916908373ffffffffffffffffffffffffffffffffffffffff1602179055508173ffffffffffffffffffffffffffffffffffffffff168173ffffffffffffffffffffffffffffffffffffffff167f8be0079c531659141344cd1fd0a4f28419497f9722a3daafe3b4186f6b6457e060405160405180910390a35050565b611ffa81604051602401611f7891906125b2565b6040516020818303038152906040527ff82c50f1000000000000000000000000000000000000000000000000000000007bffffffffffffffffffffffffffffffffffffffffffffffffffffffff19166020820180517bffffffffffffffffffffffffffffffffffffffffffffffffffffffff838183161783525050505061204e565b50565b612007828261143d565b61204a5780826040517fe2517d3f000000000000000000000000000000000000000000000000000000008152600401612041929190613416565b60405180910390fd5b5050565b6120658161205d612068612089565b63ffffffff16565b50565b60006a636f6e736f6c652e6c6f679050600080835160208501845afa505050565b612094819050919050565b61209c61343f565b565b6000604051905090565b600080fd5b600080fd5b60007fffffffff0000000000000000000000000000000000000000000000000000000082169050919050565b6120e7816120b2565b81146120f257600080fd5b50565b600081359050612104816120de565b92915050565b6000602082840312156121205761211f6120a8565b5b600061212e848285016120f5565b91505092915050565b60008115159050919050565b61214c81612137565b82525050565b60006020820190506121676000830184612143565b92915050565b6000819050919050565b6121808161216d565b82525050565b600060208201905061219b6000830184612177565b92915050565b6121aa8161216d565b81146121b557600080fd5b50565b6000813590506121c7816121a1565b92915050565b6000602082840312156121e3576121e26120a8565b5b60006121f1848285016121b8565b91505092915050565b600073ffffffffffffffffffffffffffffffffffffffff82169050919050565b6000612225826121fa565b9050919050565b6122358161221a565b811461224057600080fd5b50565b6000813590506122528161222c565b92915050565b6000806040838503121561226f5761226e6120a8565b5b600061227d858286016121b8565b925050602061228e85828601612243565b9150509250929050565b6000602082840312156122ae576122ad6120a8565b5b60006122bc84828501612243565b91505092915050565b600081519050919050565b600082825260208201905092915050565b6000819050602082019050919050565b6122fa8161221a565b82525050565b6000819050919050565b61231381612300565b82525050565b600081519050919050565b600082825260208201905092915050565b60005b83811015612353578082015181840152602081019050612338565b60008484015250505050565b6000601f19601f8301169050919050565b600061237b82612319565b6123858185612324565b9350612395818560208601612335565b61239e8161235f565b840191505092915050565b6123b281612137565b82525050565b6000610120830160008301516123d160008601826122f1565b5060208301516123e4602086018261230a565b50604083015184820360408601526123fc8282612370565b915050606083015184820360608601526124168282612370565b915050608083015161242b60808601826123a9565b5060a083015161243e60a086018261230a565b5060c083015161245160c086018261230a565b5060e083015184820360e08601526124698282612370565b9150506101008301518482036101008601526124858282612370565b9150508091505092915050565b600061249e83836123b8565b905092915050565b6000602082019050919050565b60006124be826122c5565b6124c881856122d0565b9350836020820285016124da856122e1565b8060005b8581101561251657848403895281516124f78582612492565b9450612502836124a6565b925060208a019950506001810190506124de565b50829750879550505050505092915050565b6000602082019050818103600083015261254281846124b3565b905092915050565b61255381612300565b811461255e57600080fd5b50565b6000813590506125708161254a565b92915050565b60006020828403121561258c5761258b6120a8565b5b600061259a84828501612561565b91505092915050565b6125ac81612300565b82525050565b60006020820190506125c760008301846125a3565b92915050565b6125d681612137565b81146125e157600080fd5b50565b6000813590506125f3816125cd565b92915050565b600080604083850312156126105761260f6120a8565b5b600061261e858286016125e4565b925050602061262f85828601612561565b9150509250929050565b6126428161221a565b82525050565b600060208201905061265d6000830184612639565b92915050565b600080fd5b600080fd5b7f4e487b7100000000000000000000000000000000000000000000000000000000600052604160045260246000fd5b6126a58261235f565b810181811067ffffffffffffffff821117156126c4576126c361266d565b5b80604052505050565b60006126d761209e565b90506126e3828261269c565b919050565b600067ffffffffffffffff8211156127035761270261266d565b5b61270c8261235f565b9050602081019050919050565b82818337600083830152505050565b600061273b612736846126e8565b6126cd565b90508281526020810184848401111561275757612756612668565b5b612762848285612719565b509392505050565b600082601f83011261277f5761277e612663565b5b813561278f848260208601612728565b91505092915050565b6000806000606084860312156127b1576127b06120a8565b5b600084013567ffffffffffffffff8111156127cf576127ce6120ad565b5b6127db8682870161276a565b935050602084013567ffffffffffffffff8111156127fc576127fb6120ad565b5b6128088682870161276a565b925050604084013567ffffffffffffffff811115612829576128286120ad565b5b6128358682870161276a565b9150509250925092565b600061284a8261221a565b9050919050565b61285a8161283f565b811461286557600080fd5b50565b60008135905061287781612851565b92915050565b60006128888261221a565b9050919050565b6128988161287d565b81146128a357600080fd5b50565b6000813590506128b58161288f565b92915050565b600080604083850312156128d2576128d16120a8565b5b60006128e085828601612868565b92505060206128f1858286016128a6565b9150509250929050565b600082825260208201905092915050565b7f43616c6c6572206973206e6f7420612056455249464945520000000000000000600082015250565b60006129426018836128fb565b915061294d8261290c565b602082019050919050565b6000602082019050818103600083015261297181612935565b9050919050565b7f4e487b7100000000000000000000000000000000000000000000000000000000600052602260045260246000fd5b600060028204905060018216806129bf57607f821691505b6020821081036129d2576129d1612978565b5b50919050565b7f496e76616c696420697373756520494400000000000000000000000000000000600082015250565b6000612a0e6010836128fb565b9150612a19826129d8565b602082019050919050565b60006020820190508181036000830152612a3d81612a01565b9050919050565b7f4e487b7100000000000000000000000000000000000000000000000000000000600052601160045260246000fd5b6000612a7e82612300565b9150612a8983612300565b9250828203905081811115612aa157612aa0612a44565b5b92915050565b7f4e487b7100000000000000000000000000000000000000000000000000000000600052603260045260246000fd5b6000612ae182612300565b9150612aec83612300565b9250828201905080821115612b0457612b03612a44565b5b92915050565b6000612b1582612319565b612b1f81856128fb565b9350612b2f818560208601612335565b612b388161235f565b840191505092915050565b60006040820190508181036000830152612b5d8185612b0a565b90508181036020830152612b718184612b0a565b90509392505050565b600081519050612b898161254a565b92915050565b600060208284031215612ba557612ba46120a8565b5b6000612bb384828501612b7a565b91505092915050565b7f596f752061726520616c726561647920612075736572203b5b5b000000000000600082015250565b6000612bf2601a836128fb565b9150612bfd82612bbc565b602082019050919050565b60006020820190508181036000830152612c2181612be5565b9050919050565b6000819050919050565b6000819050919050565b6000612c57612c52612c4d84612c28565b612c32565b612300565b9050919050565b612c6781612c3c565b82525050565b6000604082019050612c826000830185612639565b612c8f6020830184612c5e565b9392505050565b600081905092915050565b60008190508160005260206000209050919050565b60008154612cc3816129a7565b612ccd8186612c96565b94506001821660008114612ce85760018114612cfd57612d30565b60ff1983168652811515820286019350612d30565b612d0685612ca1565b60005b83811015612d2857815481890152600182019150602081019050612d09565b838801955050505b50505092915050565b6000612d458284612cb6565b915081905092915050565b7f497373756520616c726561647920766572696669656400000000000000000000600082015250565b6000612d866016836128fb565b9150612d9182612d50565b602082019050919050565b60006020820190508181036000830152612db581612d79565b9050919050565b60008190508160005260206000209050919050565b60006020601f8301049050919050565b600082821b905092915050565b600060088302612e1e7fffffffffffffffffffffffffffffffffffffffffffffffffffffffffffffffff82612de1565b612e288683612de1565b95508019841693508086168417925050509392505050565b6000612e5b612e56612e5184612300565b612c32565b612300565b9050919050565b6000819050919050565b612e7583612e40565b612e89612e8182612e62565b848454612dee565b825550505050565b600090565b612e9e612e91565b612ea9818484612e6c565b505050565b5b81811015612ecd57612ec2600082612e96565b600181019050612eaf565b5050565b601f821115612f1257612ee381612dbc565b612eec84612dd1565b81016020851015612efb578190505b612f0f612f0785612dd1565b830182612eae565b50505b505050565b600082821c905092915050565b6000612f3560001984600802612f17565b1980831691505092915050565b6000612f4e8383612f24565b9150826002028217905092915050565b612f6782612319565b67ffffffffffffffff811115612f8057612f7f61266d565b5b612f8a82546129a7565b612f95828285612ed1565b600060209050601f831160018114612fc85760008415612fb6578287015190505b612fc08582612f42565b865550613028565b601f198416612fd686612dbc565b60005b82811015612ffe57848901518255600182019150602085019450602081019050612fd9565b8683101561301b5784890151613017601f891682612f24565b8355505b6001600288020188555050505b505050505050565b6000815461303d816129a7565b61304781866128fb565b945060018216600081146130625760018114613078576130ab565b60ff1983168652811515602002860193506130ab565b61308185612dbc565b60005b838110156130a357815481890152600182019150602081019050613084565b808801955050505b50505092915050565b600060408201905081810360008301526130ce8185613030565b905081810360208301526130e28184613030565b90509392505050565b6000815190506130fa816125cd565b92915050565b600060208284031215613116576131156120a8565b5b6000613124848285016130eb565b91505092915050565b60006060820190506131426000830186612639565b61314f6020830185612639565b61315c60408301846125a3565b949350505050565b7f594f5520444f4e2754204841564520454e4f554748205354414b4520434f494e60008201527f5300000000000000000000000000000000000000000000000000000000000000602082015250565b60006131c06021836128fb565b91506131cb82613164565b604082019050919050565b600060208201905081810360008301526131ef816131b3565b9050919050565b600081905092915050565b600061320c82612319565b61321681856131f6565b9350613226818560208601612335565b80840191505092915050565b600061323e8284613201565b915081905092915050565b60006101208301600083015161326260008601826122f1565b506020830151613275602086018261230a565b506040830151848203604086015261328d8282612370565b915050606083015184820360608601526132a78282612370565b91505060808301516132bc60808601826123a9565b5060a08301516132cf60a086018261230a565b5060c08301516132e260c086018261230a565b5060e083015184820360e08601526132fa8282612370565b9150506101008301518482036101008601526133168282612370565b9150508091505092915050565b7f70656e64696e6700000000000000000000000000000000000000000000000000600082015250565b60006133596007836128fb565b915061336482613323565b602082019050919050565b600060608201905081810360008301526133898185613249565b905061339860208301846125a3565b81810360408301526133a98161334c565b90509392505050565b6000819050919050565b60006133d76133d26133cd846133b2565b612c32565b612300565b9050919050565b6133e7816133bc565b82525050565b60006040820190506134026000830185612639565b61340f60208301846133de565b9392505050565b600060408201905061342b6000830185612639565b6134386020830184612177565b9392505050565b7f4e487b7100000000000000000000000000000000000000000000000000000000600052605160045260246000fdfea26469706673582212201db615354d269f8fc7ce78a270d0d8b217d3e9dea776e3161094fcf7e6d14fb764736f6c63430008180033",
  "linkReferences": {},
  "deployedLinkReferences": {}
}