{
  "_format": "hh-sol-artifact-1",
  "contractName": "Bluexross",
  "sourceName": "contracts/Bluexross.sol",
  "abi": [
    {
      "inputs": [],
      "stateMutability": "nonpayable",
      "type": "constructor"
    },
    {
      "inputs": [],
      "name": "AccessControlBadConfirmation",
      "type": "error"
    },
    {
      "inputs": [
        {
          "internalType": "address",
          "name": "account",
          "type": "address"
        },
        {
          "internalType": "bytes32",
          "name": "neededRole",
          "type": "bytes32"
        }
      ],
      "name": "AccessControlUnauthorizedAccount",
      "type": "error"
    },
    {
      "inputs": [
        {
          "internalType": "address",
          "name": "owner",
          "type": "address"
        }
      ],
      "name": "OwnableInvalidOwner",
      "type": "error"
    },
    {
      "inputs": [
        {
          "internalType": "address",
          "name": "account",
          "type": "address"
        }
      ],
      "name": "OwnableUnauthorizedAccount",
      "type": "error"
    },
    {
      "anonymous": false,
      "inputs": [
        {
          "components": [
            {
              "internalType": "address",
              "name": "user",
              "type": "address"
            },
            {
              "internalType": "uint256",
              "name": "Id",
              "type": "uint256"
            },
            {
              "internalType": "string",
              "name": "phoneno",
              "type": "string"
            },
            {
              "internalType": "string",
              "name": "addres",
              "type": "string"
            },
            {
              "internalType": "bool",
              "name": "fakeissue",
              "type": "bool"
            },
            {
              "internalType": "uint256",
              "name": "time",
              "type": "uint256"
            },
            {
              "internalType": "uint256",
              "name": "timestamp",
              "type": "uint256"
            },
            {
              "internalType": "string",
              "name": "status",
              "type": "string"
            },
            {
              "internalType": "string",
              "name": "rewardstatus",
              "type": "string"
            }
          ],
          "indexed": false,
          "internalType": "struct Bluexross.Issue",
          "name": "_issue",
          "type": "tuple"
        },
        {
          "indexed": false,
          "internalType": "uint256",
          "name": "Time",
          "type": "uint256"
        },
        {
          "indexed": false,
          "internalType": "string",
          "name": "status",
          "type": "string"
        }
      ],
      "name": "IssueRised",
      "type": "event"
    },
    {
      "anonymous": false,
      "inputs": [
        {
          "indexed": true,
          "internalType": "address",
          "name": "previousOwner",
          "type": "address"
        },
        {
          "indexed": true,
          "internalType": "address",
          "name": "newOwner",
          "type": "address"
        }
      ],
      "name": "OwnershipTransferred",
      "type": "event"
    },
    {
      "anonymous": false,
      "inputs": [
        {
          "indexed": true,
          "internalType": "bytes32",
          "name": "role",
          "type": "bytes32"
        },
        {
          "indexed": true,
          "internalType": "bytes32",
          "name": "previousAdminRole",
          "type": "bytes32"
        },
        {
          "indexed": true,
          "internalType": "bytes32",
          "name": "newAdminRole",
          "type": "bytes32"
        }
      ],
      "name": "RoleAdminChanged",
      "type": "event"
    },
    {
      "anonymous": false,
      "inputs": [
        {
          "indexed": true,
          "internalType": "bytes32",
          "name": "role",
          "type": "bytes32"
        },
        {
          "indexed": true,
          "internalType": "address",
          "name": "account",
          "type": "address"
        },
        {
          "indexed": true,
          "internalType": "address",
          "name": "sender",
          "type": "address"
        }
      ],
      "name": "RoleGranted",
      "type": "event"
    },
    {
      "anonymous": false,
      "inputs": [
        {
          "indexed": true,
          "internalType": "bytes32",
          "name": "role",
          "type": "bytes32"
        },
        {
          "indexed": true,
          "internalType": "address",
          "name": "account",
          "type": "address"
        },
        {
          "indexed": true,
          "internalType": "address",
          "name": "sender",
          "type": "address"
        }
      ],
      "name": "RoleRevoked",
      "type": "event"
    },
    {
      "anonymous": false,
      "inputs": [
        {
          "indexed": false,
          "internalType": "string",
          "name": "status",
          "type": "string"
        },
        {
          "indexed": false,
          "internalType": "string",
          "name": "Rewardstatus",
          "type": "string"
        }
      ],
      "name": "Status",
      "type": "event"
    },
    {
      "anonymous": false,
      "inputs": [
        {
          "indexed": true,
          "internalType": "address",
          "name": "_user",
          "type": "address"
        }
      ],
      "name": "newuser",
      "type": "event"
    },
    {
      "inputs": [
        {
          "internalType": "uint256",
          "name": "id",
          "type": "uint256"
        }
      ],
      "name": "CheckAndReward",
      "outputs": [],
      "stateMutability": "nonpayable",
      "type": "function"
    },
    {
      "inputs": [],
      "name": "CheckverifierAccess",
      "outputs": [
        {
          "internalType": "bool",
          "name": "",
          "type": "bool"
        }
      ],
      "stateMutability": "view",
      "type": "function"
    },
    {
      "inputs": [],
      "name": "DEFAULT_ADMIN_ROLE",
      "outputs": [
        {
          "internalType": "bytes32",
          "name": "",
          "type": "bytes32"
        }
      ],
      "stateMutability": "view",
      "type": "function"
    },
    {
      "inputs": [
        {
          "internalType": "address",
          "name": "_Verifier",
          "type": "address"
        }
      ],
      "name": "GrantVerifyAccess",
      "outputs": [],
      "stateMutability": "nonpayable",
      "type": "function"
    },
    {
      "inputs": [
        {
          "internalType": "contract StakeTokens",
          "name": "_stakecoins",
          "type": "address"
        },
        {
          "internalType": "contract RewardTokens",
          "name": "_rewardcoins",
          "type": "address"
        }
      ],
      "name": "InitialiseCoins",
      "outputs": [],
      "stateMutability": "nonpayable",
      "type": "function"
    },
    {
      "inputs": [
        {
          "internalType": "string",
          "name": "rescuetype",
          "type": "string"
        },
        {
          "internalType": "string",
          "name": "phoneNo",
          "type": "string"
        },
        {
          "internalType": "string",
          "name": "addres",
          "type": "string"
        }
      ],
      "name": "IssueRescue",
      "outputs": [],
      "stateMutability": "nonpayable",
      "type": "function"
    },
    {
      "inputs": [
        {
          "internalType": "bool",
          "name": "issueDetail",
          "type": "bool"
        },
        {
          "internalType": "uint256",
          "name": "id",
          "type": "uint256"
        }
      ],
      "name": "IssueVerify",
      "outputs": [],
      "stateMutability": "nonpayable",
      "type": "function"
    },
    {
      "inputs": [],
      "name": "VERIFIER",
      "outputs": [
        {
          "internalType": "bytes32",
          "name": "",
          "type": "bytes32"
        }
      ],
      "stateMutability": "view",
      "type": "function"
    },
    {
      "inputs": [],
      "name": "checkOwner",
      "outputs": [
        {
          "internalType": "bool",
          "name": "",
          "type": "bool"
        }
      ],
      "stateMutability": "view",
      "type": "function"
    },
    {
      "inputs": [],
      "name": "getCheckAndReward",
      "outputs": [
        {
          "internalType": "uint256[]",
          "name": "",
          "type": "uint256[]"
        }
      ],
      "stateMutability": "view",
      "type": "function"
    },
    {
      "inputs": [],
      "name": "getIssues",
      "outputs": [
        {
          "components": [
            {
              "internalType": "address",
              "name": "user",
              "type": "address"
            },
            {
              "internalType": "uint256",
              "name": "Id",
              "type": "uint256"
            },
            {
              "internalType": "string",
              "name": "phoneno",
              "type": "string"
            },
            {
              "internalType": "string",
              "name": "addres",
              "type": "string"
            },
            {
              "internalType": "bool",
              "name": "fakeissue",
              "type": "bool"
            },
            {
              "internalType": "uint256",
              "name": "time",
              "type": "uint256"
            },
            {
              "internalType": "uint256",
              "name": "timestamp",
              "type": "uint256"
            },
            {
              "internalType": "string",
              "name": "status",
              "type": "string"
            },
            {
              "internalType": "string",
              "name": "rewardstatus",
              "type": "string"
            }
          ],
          "internalType": "struct Bluexross.Issue[]",
          "name": "",
          "type": "tuple[]"
        }
      ],
      "stateMutability": "view",
      "type": "function"
    },
    {
      "inputs": [
        {
          "internalType": "bytes32",
          "name": "role",
          "type": "bytes32"
        }
      ],
      "name": "getRoleAdmin",
      "outputs": [
        {
          "internalType": "bytes32",
          "name": "",
          "type": "bytes32"
        }
      ],
      "stateMutability": "view",
      "type": "function"
    },
    {
      "inputs": [],
      "name": "getrewardbalance",
      "outputs": [
        {
          "internalType": "uint256",
          "name": "",
          "type": "uint256"
        }
      ],
      "stateMutability": "view",
      "type": "function"
    },
    {
      "inputs": [],
      "name": "getstakebalance",
      "outputs": [
        {
          "internalType": "uint256",
          "name": "",
          "type": "uint256"
        }
      ],
      "stateMutability": "view",
      "type": "function"
    },
    {
      "inputs": [
        {
          "internalType": "bytes32",
          "name": "role",
          "type": "bytes32"
        },
        {
          "internalType": "address",
          "name": "account",
          "type": "address"
        }
      ],
      "name": "grantRole",
      "outputs": [],
      "stateMutability": "nonpayable",
      "type": "function"
    },
    {
      "inputs": [
        {
          "internalType": "bytes32",
          "name": "role",
          "type": "bytes32"
        },
        {
          "internalType": "address",
          "name": "account",
          "type": "address"
        }
      ],
      "name": "hasRole",
      "outputs": [
        {
          "internalType": "bool",
          "name": "",
          "type": "bool"
        }
      ],
      "stateMutability": "view",
      "type": "function"
    },
    {
      "inputs": [
        {
          "internalType": "uint256",
          "name": "",
          "type": "uint256"
        }
      ],
      "name": "issues",
      "outputs": [
        {
          "internalType": "address",
          "name": "user",
          "type": "address"
        },
        {
          "internalType": "uint256",
          "name": "Id",
          "type": "uint256"
        },
        {
          "internalType": "string",
          "name": "phoneno",
          "type": "string"
        },
        {
          "internalType": "string",
          "name": "addres",
          "type": "string"
        },
        {
          "internalType": "bool",
          "name": "fakeissue",
          "type": "bool"
        },
        {
          "internalType": "uint256",
          "name": "time",
          "type": "uint256"
        },
        {
          "internalType": "uint256",
          "name": "timestamp",
          "type": "uint256"
        },
        {
          "internalType": "string",
          "name": "status",
          "type": "string"
        },
        {
          "internalType": "string",
          "name": "rewardstatus",
          "type": "string"
        }
      ],
      "stateMutability": "view",
      "type": "function"
    },
    {
      "inputs": [],
      "name": "newUser",
      "outputs": [],
      "stateMutability": "nonpayable",
      "type": "function"
    },
    {
      "inputs": [],
      "name": "owner",
      "outputs": [
        {
          "internalType": "address",
          "name": "",
          "type": "address"
        }
      ],
      "stateMutability": "view",
      "type": "function"
    },
    {
      "inputs": [],
      "name": "renounceOwnership",
      "outputs": [],
      "stateMutability": "nonpayable",
      "type": "function"
    },
    {
      "inputs": [
        {
          "internalType": "bytes32",
          "name": "role",
          "type": "bytes32"
        },
        {
          "internalType": "address",
          "name": "callerConfirmation",
          "type": "address"
        }
      ],
      "name": "renounceRole",
      "outputs": [],
      "stateMutability": "nonpayable",
      "type": "function"
    },
    {
      "inputs": [
        {
          "internalType": "bytes32",
          "name": "role",
          "type": "bytes32"
        },
        {
          "internalType": "address",
          "name": "account",
          "type": "address"
        }
      ],
      "name": "revokeRole",
      "outputs": [],
      "stateMutability": "nonpayable",
      "type": "function"
    },
    {
      "inputs": [
        {
          "internalType": "bytes4",
          "name": "interfaceId",
          "type": "bytes4"
        }
      ],
      "name": "supportsInterface",
      "outputs": [
        {
          "internalType": "bool",
          "name": "",
          "type": "bool"
        }
      ],
      "stateMutability": "view",
      "type": "function"
    },
    {
      "inputs": [
        {
          "internalType": "address",
          "name": "newOwner",
          "type": "address"
        }
      ],
      "name": "transferOwnership",
      "outputs": [],
      "stateMutability": "nonpayable",
      "type": "function"
    }
  ],
  "bytecode": "0x608060405260056008553480156200001657600080fd5b5033600073ffffffffffffffffffffffffffffffffffffffff168173ffffffffffffffffffffffffffffffffffffffff16036200008d5760006040517f1e4fbdf70000000000000000000000000000000000000000000000000000000081526004016200008491906200028e565b60405180910390fd5b6200009e816200018560201b60201c565b50603c6003604051620000b19062000306565b908152602001604051809103902060006101000a81548160ff021916908360ff16021790555060786003604051620000e9906200036d565b908152602001604051809103902060006101000a81548160ff021916908360ff16021790555060b460036040516200012190620003d4565b908152602001604051809103902060006101000a81548160ff021916908360ff16021790555060f0600360405162000159906200043b565b908152602001604051809103902060006101000a81548160ff021916908360ff16021790555062000452565b60008060009054906101000a900473ffffffffffffffffffffffffffffffffffffffff169050816000806101000a81548173ffffffffffffffffffffffffffffffffffffffff021916908373ffffffffffffffffffffffffffffffffffffffff1602179055508173ffffffffffffffffffffffffffffffffffffffff168173ffffffffffffffffffffffffffffffffffffffff167f8be0079c531659141344cd1fd0a4f28419497f9722a3daafe3b4186f6b6457e060405160405180910390a35050565b600073ffffffffffffffffffffffffffffffffffffffff82169050919050565b6000620002768262000249565b9050919050565b620002888162000269565b82525050565b6000602082019050620002a560008301846200027d565b92915050565b600081905092915050565b7f7265736375650000000000000000000000000000000000000000000000000000600082015250565b6000620002ee600683620002ab565b9150620002fb82620002b6565b600682019050919050565b60006200031382620002df565b9150819050919050565b7f696e6a7572790000000000000000000000000000000000000000000000000000600082015250565b600062000355600683620002ab565b915062000362826200031d565b600682019050919050565b60006200037a8262000346565b9150819050919050565b7f6163636964656e74000000000000000000000000000000000000000000000000600082015250565b6000620003bc600883620002ab565b9150620003c98262000384565b600882019050919050565b6000620003e182620003ad565b9150819050919050565b7f616e696d616c6162757365000000000000000000000000000000000000000000600082015250565b600062000423600b83620002ab565b91506200043082620003eb565b600b82019050919050565b6000620004488262000414565b9150819050919050565b613daf80620004626000396000f3fe608060405234801561001057600080fd5b50600436106101585760003560e01c8063715018a6116100c3578063a217fddf1161007c578063a217fddf14610397578063b3d0f186146103b5578063beb29f53146103d1578063cdbce03d146103ed578063d547741f1461040b578063f2fde38b1461042757610158565b8063715018a6146102e75780637a9f245a146102f15780637ce4f0891461030f57806386f910ae1461032d5780638da5cb5b1461034957806391d148541461036757610158565b80633428cd09116101155780633428cd091461024d57806336568abe146102695780634434f97314610285578063570588db146102a35780636b5b0d9c146102bf5780636cebad98146102dd57610158565b806301ffc9a71461015d57806304e15de51461018d57806308c84e70146101c557806308df086c146101e3578063248a9ca3146102015780632f2ff15d14610231575b600080fd5b6101776004803603810190610172919061281e565b610443565b6040516101849190612866565b60405180910390f35b6101a760048036038101906101a291906128b7565b6104bd565b6040516101bc999897969594939291906129c4565b60405180910390f35b6101cd610768565b6040516101da9190612a86565b60405180910390f35b6101eb61078c565b6040516101f89190612866565b60405180910390f35b61021b60048036038101906102169190612acd565b6107bd565b6040516102289190612a86565b60405180910390f35b61024b60048036038101906102469190612b26565b6107dd565b005b61026760048036038101906102629190612b66565b6107ff565b005b610283600480360381019061027e9190612b26565b610835565b005b61028d6108b0565b60405161029a9190612da6565b60405180910390f35b6102bd60048036038101906102b891906128b7565b610c50565b005b6102c76110fb565b6040516102d49190612dc8565b60405180910390f35b6102e56111a7565b005b6102ef611367565b005b6102f961137b565b6040516103069190612dc8565b60405180910390f35b61031761141e565b6040516103249190612e92565b60405180910390f35b61034760048036038101906103429190612ee0565b6114b3565b005b6103516119db565b60405161035e9190612f20565b60405180910390f35b610381600480360381019061037c9190612b26565b611a04565b60405161038e9190612866565b60405180910390f35b61039f611a6f565b6040516103ac9190612a86565b60405180910390f35b6103cf60048036038101906103ca9190613070565b611a76565b005b6103eb60048036038101906103e69190613193565b611ee9565b005b6103f5611f77565b6040516104029190612866565b60405180910390f35b61042560048036038101906104209190612b26565b611fb4565b005b610441600480360381019061043c9190612b66565b611fd6565b005b60007f7965db0b000000000000000000000000000000000000000000000000000000007bffffffffffffffffffffffffffffffffffffffffffffffffffffffff1916827bffffffffffffffffffffffffffffffffffffffffffffffffffffffff191614806104b657506104b58261205c565b5b9050919050565b600281815481106104cd57600080fd5b90600052602060002090600902016000915090508060000160009054906101000a900473ffffffffffffffffffffffffffffffffffffffff169080600101549080600201805461051c90613202565b80601f016020809104026020016040519081016040528092919081815260200182805461054890613202565b80156105955780601f1061056a57610100808354040283529160200191610595565b820191906000526020600020905b81548152906001019060200180831161057857829003601f168201915b5050505050908060030180546105aa90613202565b80601f01602080910402602001604051908101604052809291908181526020018280546105d690613202565b80156106235780601f106105f857610100808354040283529160200191610623565b820191906000526020600020905b81548152906001019060200180831161060657829003601f168201915b5050505050908060040160009054906101000a900460ff169080600501549080600601549080600701805461065790613202565b80601f016020809104026020016040519081016040528092919081815260200182805461068390613202565b80156106d05780601f106106a5576101008083540402835291602001916106d0565b820191906000526020600020905b8154815290600101906020018083116106b357829003601f168201915b5050505050908060080180546106e590613202565b80601f016020809104026020016040519081016040528092919081815260200182805461071190613202565b801561075e5780601f106107335761010080835404028352916020019161075e565b820191906000526020600020905b81548152906001019060200180831161074157829003601f168201915b5050505050905089565b7fa48c898f5241be426b79d4b5a3c206f9c9a06576e1b72c338c3ec849771d568681565b60006107b87fa48c898f5241be426b79d4b5a3c206f9c9a06576e1b72c338c3ec849771d568633611a04565b905090565b600060016000838152602001908152602001600020600101549050919050565b6107e6826107bd565b6107ef816120c6565b6107f983836120da565b50505050565b6108076121cb565b6108317fa48c898f5241be426b79d4b5a3c206f9c9a06576e1b72c338c3ec849771d5686826120da565b5050565b61083d612252565b73ffffffffffffffffffffffffffffffffffffffff168173ffffffffffffffffffffffffffffffffffffffff16146108a1576040517f6697b23200000000000000000000000000000000000000000000000000000000815260040160405180910390fd5b6108ab828261225a565b505050565b60606108dc7fa48c898f5241be426b79d4b5a3c206f9c9a06576e1b72c338c3ec849771d568633611a04565b61091b576040517f08c379a00000000000000000000000000000000000000000000000000000000081526004016109129061327f565b60405180910390fd5b6002805480602002602001604051908101604052809291908181526020016000905b82821015610c475783829060005260206000209060090201604051806101200160405290816000820160009054906101000a900473ffffffffffffffffffffffffffffffffffffffff1673ffffffffffffffffffffffffffffffffffffffff1673ffffffffffffffffffffffffffffffffffffffff168152602001600182015481526020016002820180546109d190613202565b80601f01602080910402602001604051908101604052809291908181526020018280546109fd90613202565b8015610a4a5780601f10610a1f57610100808354040283529160200191610a4a565b820191906000526020600020905b815481529060010190602001808311610a2d57829003601f168201915b50505050508152602001600382018054610a6390613202565b80601f0160208091040260200160405190810160405280929190818152602001828054610a8f90613202565b8015610adc5780601f10610ab157610100808354040283529160200191610adc565b820191906000526020600020905b815481529060010190602001808311610abf57829003601f168201915b505050505081526020016004820160009054906101000a900460ff161515151581526020016005820154815260200160068201548152602001600782018054610b2490613202565b80601f0160208091040260200160405190810160405280929190818152602001828054610b5090613202565b8015610b9d5780601f10610b7257610100808354040283529160200191610b9d565b820191906000526020600020905b815481529060010190602001808311610b8057829003601f168201915b50505050508152602001600882018054610bb690613202565b80601f0160208091040260200160405190810160405280929190818152602001828054610be290613202565b8015610c2f5780601f10610c0457610100808354040283529160200191610c2f565b820191906000526020600020905b815481529060010190602001808311610c1257829003601f168201915b5050505050815250508152602001906001019061093d565b50505050905090565b600280549050811115610c98576040517f08c379a0000000000000000000000000000000000000000000000000000000008152600401610c8f906132eb565b60405180910390fd5b3373ffffffffffffffffffffffffffffffffffffffff166002600183610cbe919061333a565b81548110610ccf57610cce61336e565b5b906000526020600020906009020160000160009054906101000a900473ffffffffffffffffffffffffffffffffffffffff1673ffffffffffffffffffffffffffffffffffffffff1614610d57576040517f08c379a0000000000000000000000000000000000000000000000000000000008152600401610d4e9061340f565b60405180910390fd5b6002600182610d66919061333a565b81548110610d7757610d7661336e565b5b9060005260206000209060090201600501546002600183610d98919061333a565b81548110610da957610da861336e565b5b906000526020600020906009020160060154610dc5919061342f565b421115610fea57610e0a6040518060400160405280600681526020017f484954545454000000000000000000000000000000000000000000000000000081525061234d565b6040518060400160405280600a81526020017f756e617474656e646564000000000000000000000000000000000000000000008152506002600183610e4f919061333a565b81548110610e6057610e5f61336e565b5b90600052602060002090600902016007019081610e7d919061360f565b50610ed86002600183610e90919061333a565b81548110610ea157610ea061336e565b5b906000526020600020906009020160000160009054906101000a900473ffffffffffffffffffffffffffffffffffffffff166123e6565b6040518060400160405280601281526020017f526577617264207375636365737366756c6c00000000000000000000000000008152506002600183610f1d919061333a565b81548110610f2e57610f2d61336e565b5b90600052602060002090600902016008019081610f4b919061360f565b507f69633d2671bb8c2b303d5a46d471ce695817434f9bb15943539c4016831e47826002600183610f7c919061333a565b81548110610f8d57610f8c61336e565b5b90600052602060002090600902016007016002600184610fad919061333a565b81548110610fbe57610fbd61336e565b5b9060005260206000209060090201600801604051610fdd929190613765565b60405180910390a16110f8565b6040518060400160405280600781526020017f70656e64696e6700000000000000000000000000000000000000000000000000815250600260018361102f919061333a565b815481106110405761103f61336e565b5b9060005260206000209060090201600801908161105d919061360f565b507f69633d2671bb8c2b303d5a46d471ce695817434f9bb15943539c4016831e4782600260018361108e919061333a565b8154811061109f5761109e61336e565b5b906000526020600020906009020160070160026001846110bf919061333a565b815481106110d0576110cf61336e565b5b90600052602060002090600902016008016040516110ef929190613765565b60405180910390a15b50565b60006111063361251b565b600660009054906101000a900473ffffffffffffffffffffffffffffffffffffffff1673ffffffffffffffffffffffffffffffffffffffff166370a08231336040518263ffffffff1660e01b81526004016111619190612f20565b602060405180830381865afa15801561117e573d6000803e3d6000fd5b505050506040513d601f19601f820116820180604052508101906111a291906137b1565b905090565b60001515600460003373ffffffffffffffffffffffffffffffffffffffff1673ffffffffffffffffffffffffffffffffffffffff16815260200190815260200160002060009054906101000a900460ff1615151461123a576040517f08c379a00000000000000000000000000000000000000000000000000000000081526004016112319061382a565b60405180910390fd5b6001600460003373ffffffffffffffffffffffffffffffffffffffff1673ffffffffffffffffffffffffffffffffffffffff16815260200190815260200160002060006101000a81548160ff021916908315150217905550600660009054906101000a900473ffffffffffffffffffffffffffffffffffffffff1673ffffffffffffffffffffffffffffffffffffffff166340c10f193360056040518363ffffffff1660e01b81526004016112f0929190613885565b600060405180830381600087803b15801561130a57600080fd5b505af115801561131e573d6000803e3d6000fd5b505050503373ffffffffffffffffffffffffffffffffffffffff167fb7ef386d3c6dc080c6176a3903ca6fcdd0add9272221b4866b01a6514564b09960405160405180910390a2565b61136f6121cb565b61137960006125b4565b565b6000600760009054906101000a900473ffffffffffffffffffffffffffffffffffffffff1673ffffffffffffffffffffffffffffffffffffffff166370a08231336040518263ffffffff1660e01b81526004016113d89190612f20565b602060405180830381865afa1580156113f5573d6000803e3d6000fd5b505050506040513d601f19601f8201168201806040525081019061141991906137b1565b905090565b6060600560003373ffffffffffffffffffffffffffffffffffffffff1673ffffffffffffffffffffffffffffffffffffffff1681526020019081526020016000208054806020026020016040519081016040528092919081815260200182805480156114a957602002820191906000526020600020905b815481526020019060010190808311611495575b5050505050905090565b6114dd7fa48c898f5241be426b79d4b5a3c206f9c9a06576e1b72c338c3ec849771d568633611a04565b61151c576040517f08c379a00000000000000000000000000000000000000000000000000000000081526004016115139061327f565b60405180910390fd5b600280549050811115611564576040517f08c379a000000000000000000000000000000000000000000000000000000000815260040161155b906132eb565b60405180910390fd5b6040518060400160405280600781526020017f70656e64696e67000000000000000000000000000000000000000000000000008152508051906020012060026001836115b0919061333a565b815481106115c1576115c061336e565b5b90600052602060002090600902016007016040516115df9190613951565b604051809103902014611627576040517f08c379a000000000000000000000000000000000000000000000000000000000815260040161161e906139b4565b60405180910390fd5b816002600183611637919061333a565b815481106116485761164761336e565b5b906000526020600020906009020160040160006101000a81548160ff02191690831515021790555081611855576040518060400160405280600981526020017f636f6d706c65746564000000000000000000000000000000000000000000000081525060026001836116ba919061333a565b815481106116cb576116ca61336e565b5b906000526020600020906009020160070190816116e8919061360f565b5061174360026001836116fb919061333a565b8154811061170c5761170b61336e565b5b906000526020600020906009020160000160009054906101000a900473ffffffffffffffffffffffffffffffffffffffff166123e6565b6040518060400160405280601281526020017f526577617264207375636365737366756c6c00000000000000000000000000008152506002600183611788919061333a565b815481106117995761179861336e565b5b906000526020600020906009020160080190816117b6919061360f565b507f69633d2671bb8c2b303d5a46d471ce695817434f9bb15943539c4016831e478260026001836117e7919061333a565b815481106117f8576117f761336e565b5b90600052602060002090600902016007016002600184611818919061333a565b815481106118295761182861336e565b5b9060005260206000209060090201600801604051611848929190613765565b60405180910390a16119d7565b6040518060400160405280600a81526020017f66616b6520697373756500000000000000000000000000000000000000000000815250600260018361189a919061333a565b815481106118ab576118aa61336e565b5b906000526020600020906009020160070190816118c8919061360f565b506040518060400160405280601781526020017f7374616b6520636f696e20697320676f6e65203a5d5d20000000000000000000815250600260018361190e919061333a565b8154811061191f5761191e61336e565b5b9060005260206000209060090201600801908161193c919061360f565b507f69633d2671bb8c2b303d5a46d471ce695817434f9bb15943539c4016831e4782600260018361196d919061333a565b8154811061197e5761197d61336e565b5b9060005260206000209060090201600701600260018461199e919061333a565b815481106119af576119ae61336e565b5b90600052602060002090600902016008016040516119ce929190613765565b60405180910390a15b5050565b60008060009054906101000a900473ffffffffffffffffffffffffffffffffffffffff16905090565b60006001600084815260200190815260200160002060000160008373ffffffffffffffffffffffffffffffffffffffff1673ffffffffffffffffffffffffffffffffffffffff16815260200190815260200160002060009054906101000a900460ff16905092915050565b6000801b81565b611a7f3361251b565b611a883061251b565b600660009054906101000a900473ffffffffffffffffffffffffffffffffffffffff1673ffffffffffffffffffffffffffffffffffffffff1663095ea7b33060056040518363ffffffff1660e01b8152600401611ae6929190613885565b6020604051808303816000875af1158015611b05573d6000803e3d6000fd5b505050506040513d601f19601f82011682018060405250810190611b2991906139e9565b50600660009054906101000a900473ffffffffffffffffffffffffffffffffffffffff1673ffffffffffffffffffffffffffffffffffffffff166323b872dd33306008546040518463ffffffff1660e01b8152600401611b8b93929190613a16565b6020604051808303816000875af1158015611baa573d6000803e3d6000fd5b505050506040513d601f19601f82011682018060405250810190611bce91906139e9565b611c0d576040517f08c379a0000000000000000000000000000000000000000000000000000000008152600401611c0490613abf565b60405180910390fd5b6000600384604051611c1f9190613b1b565b908152602001604051809103902060009054906101000a900460ff1660ff169050611c4e600280549050612678565b60006040518061012001604052803373ffffffffffffffffffffffffffffffffffffffff1681526020016001600280549050611c8a919061342f565b81526020018581526020018481526020016000151581526020018381526020014281526020016040518060400160405280600781526020017f70656e64696e670000000000000000000000000000000000000000000000000081525081526020016040518060400160405280600781526020017f70656e64696e67000000000000000000000000000000000000000000000000008152508152509050600560003373ffffffffffffffffffffffffffffffffffffffff1673ffffffffffffffffffffffffffffffffffffffff1681526020019081526020016000206001600280549050611d77919061342f565b9080600181540180825580915050600190039060005260206000200160009091909190915055600281908060018154018082558091505060019003906000526020600020906009020160009091909190915060008201518160000160006101000a81548173ffffffffffffffffffffffffffffffffffffffff021916908373ffffffffffffffffffffffffffffffffffffffff160217905550602082015181600101556040820151816002019081611e2f919061360f565b506060820151816003019081611e45919061360f565b5060808201518160040160006101000a81548160ff02191690831515021790555060a0820151816005015560c0820151816006015560e0820151816007019081611e8f919061360f565b50610100820151816008019081611ea6919061360f565b5050507fd7581ce2bb3a8c58c90eb3ec4c2b35e69644c0930b100296d4b065907c844fbc8183604051611eda929190613c58565b60405180910390a15050505050565b611ef16121cb565b81600660006101000a81548173ffffffffffffffffffffffffffffffffffffffff021916908373ffffffffffffffffffffffffffffffffffffffff16021790555080600760006101000a81548173ffffffffffffffffffffffffffffffffffffffff021916908373ffffffffffffffffffffffffffffffffffffffff1602179055505050565b6000611f816119db565b73ffffffffffffffffffffffffffffffffffffffff163373ffffffffffffffffffffffffffffffffffffffff1614905090565b611fbd826107bd565b611fc6816120c6565b611fd0838361225a565b50505050565b611fde6121cb565b600073ffffffffffffffffffffffffffffffffffffffff168173ffffffffffffffffffffffffffffffffffffffff16036120505760006040517f1e4fbdf70000000000000000000000000000000000000000000000000000000081526004016120479190612f20565b60405180910390fd5b612059816125b4565b50565b60007f01ffc9a7000000000000000000000000000000000000000000000000000000007bffffffffffffffffffffffffffffffffffffffffffffffffffffffff1916827bffffffffffffffffffffffffffffffffffffffffffffffffffffffff1916149050919050565b6120d7816120d2612252565b612711565b50565b60006120e68383611a04565b6121c057600180600085815260200190815260200160002060000160008473ffffffffffffffffffffffffffffffffffffffff1673ffffffffffffffffffffffffffffffffffffffff16815260200190815260200160002060006101000a81548160ff02191690831515021790555061215d612252565b73ffffffffffffffffffffffffffffffffffffffff168273ffffffffffffffffffffffffffffffffffffffff16847f2f8788117e7eff1d82e926ec794901d17c78024a50270940304540a733656f0d60405160405180910390a4600190506121c5565b600090505b92915050565b6121d3612252565b73ffffffffffffffffffffffffffffffffffffffff166121f16119db565b73ffffffffffffffffffffffffffffffffffffffff161461225057612214612252565b6040517f118cdaa70000000000000000000000000000000000000000000000000000000081526004016122479190612f20565b60405180910390fd5b565b600033905090565b60006122668383611a04565b156123425760006001600085815260200190815260200160002060000160008473ffffffffffffffffffffffffffffffffffffffff1673ffffffffffffffffffffffffffffffffffffffff16815260200190815260200160002060006101000a81548160ff0219169083151502179055506122df612252565b73ffffffffffffffffffffffffffffffffffffffff168273ffffffffffffffffffffffffffffffffffffffff16847ff6391f5c32d9c69d2a47ea670b442974b53935d1edc7fd64eb21e047a839171b60405160405180910390a460019050612347565b600090505b92915050565b6123e3816040516024016123619190613c9b565b6040516020818303038152906040527f41304fac000000000000000000000000000000000000000000000000000000007bffffffffffffffffffffffffffffffffffffffffffffffffffffffff19166020820180517bffffffffffffffffffffffffffffffffffffffffffffffffffffffff8381831617835250505050612762565b50565b600660009054906101000a900473ffffffffffffffffffffffffffffffffffffffff1673ffffffffffffffffffffffffffffffffffffffff1663a9059cbb8260056040518363ffffffff1660e01b8152600401612444929190613885565b6020604051808303816000875af1158015612463573d6000803e3d6000fd5b505050506040513d601f19601f8201168201806040525081019061248791906139e9565b50600760009054906101000a900473ffffffffffffffffffffffffffffffffffffffff1673ffffffffffffffffffffffffffffffffffffffff166340c10f198260026040518363ffffffff1660e01b81526004016124e6929190613cf8565b600060405180830381600087803b15801561250057600080fd5b505af1158015612514573d6000803e3d6000fd5b5050505050565b6125b18160405160240161252f9190612f20565b6040516020818303038152906040527f2c2ecbc2000000000000000000000000000000000000000000000000000000007bffffffffffffffffffffffffffffffffffffffffffffffffffffffff19166020820180517bffffffffffffffffffffffffffffffffffffffffffffffffffffffff8381831617835250505050612762565b50565b60008060009054906101000a900473ffffffffffffffffffffffffffffffffffffffff169050816000806101000a81548173ffffffffffffffffffffffffffffffffffffffff021916908373ffffffffffffffffffffffffffffffffffffffff1602179055508173ffffffffffffffffffffffffffffffffffffffff168173ffffffffffffffffffffffffffffffffffffffff167f8be0079c531659141344cd1fd0a4f28419497f9722a3daafe3b4186f6b6457e060405160405180910390a35050565b61270e8160405160240161268c9190612dc8565b6040516020818303038152906040527ff82c50f1000000000000000000000000000000000000000000000000000000007bffffffffffffffffffffffffffffffffffffffffffffffffffffffff19166020820180517bffffffffffffffffffffffffffffffffffffffffffffffffffffffff8381831617835250505050612762565b50565b61271b8282611a04565b61275e5780826040517fe2517d3f000000000000000000000000000000000000000000000000000000008152600401612755929190613d21565b60405180910390fd5b5050565b6127798161277161277c61279d565b63ffffffff16565b50565b60006a636f6e736f6c652e6c6f679050600080835160208501845afa505050565b6127a8819050919050565b6127b0613d4a565b565b6000604051905090565b600080fd5b600080fd5b60007fffffffff0000000000000000000000000000000000000000000000000000000082169050919050565b6127fb816127c6565b811461280657600080fd5b50565b600081359050612818816127f2565b92915050565b600060208284031215612834576128336127bc565b5b600061284284828501612809565b91505092915050565b60008115159050919050565b6128608161284b565b82525050565b600060208201905061287b6000830184612857565b92915050565b6000819050919050565b61289481612881565b811461289f57600080fd5b50565b6000813590506128b18161288b565b92915050565b6000602082840312156128cd576128cc6127bc565b5b60006128db848285016128a2565b91505092915050565b600073ffffffffffffffffffffffffffffffffffffffff82169050919050565b600061290f826128e4565b9050919050565b61291f81612904565b82525050565b61292e81612881565b82525050565b600081519050919050565b600082825260208201905092915050565b60005b8381101561296e578082015181840152602081019050612953565b60008484015250505050565b6000601f19601f8301169050919050565b600061299682612934565b6129a0818561293f565b93506129b0818560208601612950565b6129b98161297a565b840191505092915050565b6000610120820190506129da600083018c612916565b6129e7602083018b612925565b81810360408301526129f9818a61298b565b90508181036060830152612a0d818961298b565b9050612a1c6080830188612857565b612a2960a0830187612925565b612a3660c0830186612925565b81810360e0830152612a48818561298b565b9050818103610100830152612a5d818461298b565b90509a9950505050505050505050565b6000819050919050565b612a8081612a6d565b82525050565b6000602082019050612a9b6000830184612a77565b92915050565b612aaa81612a6d565b8114612ab557600080fd5b50565b600081359050612ac781612aa1565b92915050565b600060208284031215612ae357612ae26127bc565b5b6000612af184828501612ab8565b91505092915050565b612b0381612904565b8114612b0e57600080fd5b50565b600081359050612b2081612afa565b92915050565b60008060408385031215612b3d57612b3c6127bc565b5b6000612b4b85828601612ab8565b9250506020612b5c85828601612b11565b9150509250929050565b600060208284031215612b7c57612b7b6127bc565b5b6000612b8a84828501612b11565b91505092915050565b600081519050919050565b600082825260208201905092915050565b6000819050602082019050919050565b612bc881612904565b82525050565b612bd781612881565b82525050565b600082825260208201905092915050565b6000612bf982612934565b612c038185612bdd565b9350612c13818560208601612950565b612c1c8161297a565b840191505092915050565b612c308161284b565b82525050565b600061012083016000830151612c4f6000860182612bbf565b506020830151612c626020860182612bce565b5060408301518482036040860152612c7a8282612bee565b91505060608301518482036060860152612c948282612bee565b9150506080830151612ca96080860182612c27565b5060a0830151612cbc60a0860182612bce565b5060c0830151612ccf60c0860182612bce565b5060e083015184820360e0860152612ce78282612bee565b915050610100830151848203610100860152612d038282612bee565b9150508091505092915050565b6000612d1c8383612c36565b905092915050565b6000602082019050919050565b6000612d3c82612b93565b612d468185612b9e565b935083602082028501612d5885612baf565b8060005b85811015612d945784840389528151612d758582612d10565b9450612d8083612d24565b925060208a01995050600181019050612d5c565b50829750879550505050505092915050565b60006020820190508181036000830152612dc08184612d31565b905092915050565b6000602082019050612ddd6000830184612925565b92915050565b600081519050919050565b600082825260208201905092915050565b6000819050602082019050919050565b6000612e1b8383612bce565b60208301905092915050565b6000602082019050919050565b6000612e3f82612de3565b612e498185612dee565b9350612e5483612dff565b8060005b83811015612e85578151612e6c8882612e0f565b9750612e7783612e27565b925050600181019050612e58565b5085935050505092915050565b60006020820190508181036000830152612eac8184612e34565b905092915050565b612ebd8161284b565b8114612ec857600080fd5b50565b600081359050612eda81612eb4565b92915050565b60008060408385031215612ef757612ef66127bc565b5b6000612f0585828601612ecb565b9250506020612f16858286016128a2565b9150509250929050565b6000602082019050612f356000830184612916565b92915050565b600080fd5b600080fd5b7f4e487b7100000000000000000000000000000000000000000000000000000000600052604160045260246000fd5b612f7d8261297a565b810181811067ffffffffffffffff82111715612f9c57612f9b612f45565b5b80604052505050565b6000612faf6127b2565b9050612fbb8282612f74565b919050565b600067ffffffffffffffff821115612fdb57612fda612f45565b5b612fe48261297a565b9050602081019050919050565b82818337600083830152505050565b600061301361300e84612fc0565b612fa5565b90508281526020810184848401111561302f5761302e612f40565b5b61303a848285612ff1565b509392505050565b600082601f83011261305757613056612f3b565b5b8135613067848260208601613000565b91505092915050565b600080600060608486031215613089576130886127bc565b5b600084013567ffffffffffffffff8111156130a7576130a66127c1565b5b6130b386828701613042565b935050602084013567ffffffffffffffff8111156130d4576130d36127c1565b5b6130e086828701613042565b925050604084013567ffffffffffffffff811115613101576131006127c1565b5b61310d86828701613042565b9150509250925092565b600061312282612904565b9050919050565b61313281613117565b811461313d57600080fd5b50565b60008135905061314f81613129565b92915050565b600061316082612904565b9050919050565b61317081613155565b811461317b57600080fd5b50565b60008135905061318d81613167565b92915050565b600080604083850312156131aa576131a96127bc565b5b60006131b885828601613140565b92505060206131c98582860161317e565b9150509250929050565b7f4e487b7100000000000000000000000000000000000000000000000000000000600052602260045260246000fd5b6000600282049050600182168061321a57607f821691505b60208210810361322d5761322c6131d3565b5b50919050565b7f43616c6c6572206973206e6f7420612056455249464945520000000000000000600082015250565b600061326960188361293f565b915061327482613233565b602082019050919050565b600060208201905081810360008301526132988161325c565b9050919050565b7f496e76616c696420697373756520494400000000000000000000000000000000600082015250565b60006132d560108361293f565b91506132e08261329f565b602082019050919050565b60006020820190508181036000830152613304816132c8565b9050919050565b7f4e487b7100000000000000000000000000000000000000000000000000000000600052601160045260246000fd5b600061334582612881565b915061335083612881565b92508282039050818111156133685761336761330b565b5b92915050565b7f4e487b7100000000000000000000000000000000000000000000000000000000600052603260045260246000fd5b7f596f7520617265206e6f7420746865206f776e6572206f66207468652069737360008201527f7565210000000000000000000000000000000000000000000000000000000000602082015250565b60006133f960238361293f565b91506134048261339d565b604082019050919050565b60006020820190508181036000830152613428816133ec565b9050919050565b600061343a82612881565b915061344583612881565b925082820190508082111561345d5761345c61330b565b5b92915050565b60008190508160005260206000209050919050565b60006020601f8301049050919050565b600082821b905092915050565b6000600883026134c57fffffffffffffffffffffffffffffffffffffffffffffffffffffffffffffffff82613488565b6134cf8683613488565b95508019841693508086168417925050509392505050565b6000819050919050565b600061350c61350761350284612881565b6134e7565b612881565b9050919050565b6000819050919050565b613526836134f1565b61353a61353282613513565b848454613495565b825550505050565b600090565b61354f613542565b61355a81848461351d565b505050565b5b8181101561357e57613573600082613547565b600181019050613560565b5050565b601f8211156135c35761359481613463565b61359d84613478565b810160208510156135ac578190505b6135c06135b885613478565b83018261355f565b50505b505050565b600082821c905092915050565b60006135e6600019846008026135c8565b1980831691505092915050565b60006135ff83836135d5565b9150826002028217905092915050565b61361882612934565b67ffffffffffffffff81111561363157613630612f45565b5b61363b8254613202565b613646828285613582565b600060209050601f8311600181146136795760008415613667578287015190505b61367185826135f3565b8655506136d9565b601f19841661368786613463565b60005b828110156136af5784890151825560018201915060208501945060208101905061368a565b868310156136cc57848901516136c8601f8916826135d5565b8355505b6001600288020188555050505b505050505050565b600081546136ee81613202565b6136f8818661293f565b9450600182166000811461371357600181146137295761375c565b60ff19831686528115156020028601935061375c565b61373285613463565b60005b8381101561375457815481890152600182019150602081019050613735565b808801955050505b50505092915050565b6000604082019050818103600083015261377f81856136e1565b9050818103602083015261379381846136e1565b90509392505050565b6000815190506137ab8161288b565b92915050565b6000602082840312156137c7576137c66127bc565b5b60006137d58482850161379c565b91505092915050565b7f596f752061726520616c726561647920612075736572203b5b5b000000000000600082015250565b6000613814601a8361293f565b915061381f826137de565b602082019050919050565b6000602082019050818103600083015261384381613807565b9050919050565b6000819050919050565b600061386f61386a6138658461384a565b6134e7565b612881565b9050919050565b61387f81613854565b82525050565b600060408201905061389a6000830185612916565b6138a76020830184613876565b9392505050565b600081905092915050565b60008190508160005260206000209050919050565b600081546138db81613202565b6138e581866138ae565b94506001821660008114613900576001811461391557613948565b60ff1983168652811515820286019350613948565b61391e856138b9565b60005b8381101561394057815481890152600182019150602081019050613921565b838801955050505b50505092915050565b600061395d82846138ce565b915081905092915050565b7f497373756520616c726561647920766572696669656400000000000000000000600082015250565b600061399e60168361293f565b91506139a982613968565b602082019050919050565b600060208201905081810360008301526139cd81613991565b9050919050565b6000815190506139e381612eb4565b92915050565b6000602082840312156139ff576139fe6127bc565b5b6000613a0d848285016139d4565b91505092915050565b6000606082019050613a2b6000830186612916565b613a386020830185612916565b613a456040830184612925565b949350505050565b7f594f5520444f4e2754204841564520454e4f554748205354414b4520434f494e60008201527f5300000000000000000000000000000000000000000000000000000000000000602082015250565b6000613aa960218361293f565b9150613ab482613a4d565b604082019050919050565b60006020820190508181036000830152613ad881613a9c565b9050919050565b600081905092915050565b6000613af582612934565b613aff8185613adf565b9350613b0f818560208601612950565b80840191505092915050565b6000613b278284613aea565b915081905092915050565b600061012083016000830151613b4b6000860182612bbf565b506020830151613b5e6020860182612bce565b5060408301518482036040860152613b768282612bee565b91505060608301518482036060860152613b908282612bee565b9150506080830151613ba56080860182612c27565b5060a0830151613bb860a0860182612bce565b5060c0830151613bcb60c0860182612bce565b5060e083015184820360e0860152613be38282612bee565b915050610100830151848203610100860152613bff8282612bee565b9150508091505092915050565b7f70656e64696e6700000000000000000000000000000000000000000000000000600082015250565b6000613c4260078361293f565b9150613c4d82613c0c565b602082019050919050565b60006060820190508181036000830152613c728185613b32565b9050613c816020830184612925565b8181036040830152613c9281613c35565b90509392505050565b60006020820190508181036000830152613cb5818461298b565b905092915050565b6000819050919050565b6000613ce2613cdd613cd884613cbd565b6134e7565b612881565b9050919050565b613cf281613cc7565b82525050565b6000604082019050613d0d6000830185612916565b613d1a6020830184613ce9565b9392505050565b6000604082019050613d366000830185612916565b613d436020830184612a77565b9392505050565b7f4e487b7100000000000000000000000000000000000000000000000000000000600052605160045260246000fdfea26469706673582212208bfb9570cd5e01fa87cf8d5c2445530874e4af5c3c4d3a70243bf7a2600a43c564736f6c63430008180033",
  "linkReferences": {},
  "deployedLinkReferences": {}
}